:020000040800F2
:10000000600E0020A9010008E1390008372F000820
:10001000DD39000829160008C94300080000000067
:10002000000000000000000000000000053E000885
:100030002D16000800000000DB3D0008613E0008AE
:10004000C3010008C3010008C3010008C301000880
:10005000C3010008C3010008C3010008C301000870
:10006000C3010008C3010008C3010008C301000860
:10007000C3010008C3010008C3010008C301000850
:10008000C3010008C3010008C3010008C301000840
:10009000C3010008C3010008C30100083B160008A3
:1000A000C3010008C3010008C3010008C301000820
:1000B000C3010008C3010008C3010008C301000810
:1000C000C3010008C3010008C3010008C301000800
:1000D000C3010008A9430008C3010008B943000890
:1000E0002F160008C3010008C301000800F002F841
:1000F00000F04AF80AA090E8000C82448344AAF178
:100100000107DA4501D100F03FF8AFF2090EBAE875
:100110000F0013F0010F18BFFB1A43F0010318473B
:100120006CBA00008CBA0000103A24BF78C878C1BD
:10013000FAD8520724BF30C830C144BF04680C60ED
:10014000704700000023002400250026103A28BF35
:1001500078C1FBD8520728BF30C148BF0B60704739
:10016000662908F06E86642900F0AC800020704794
:100170001FB500F01BFD04000020002107F032FD38
:10018000E0601FBD10B510BD00F018FE1146FFF76E
:10019000EFFF06F047F800F036FE03B4FFF7F2FF7A
:1001A00003BC04F0B2F90000094880470948004741
:1001B000FEE7FEE7FEE7FEE7FEE7FEE7FEE7FEE717
:1001C000FEE7FEE704480549054A064B7047000074
:1001D000CF3E0008ED00000860080020600E0020FF
:1001E000600A0020600A0020704710B54C1084EAB5
:1001F000530404D54042C1F1000138BF491E1B42DF
:1002000004D55242C3F1000338BF5B1E00F091F9E0
:1002100014F0804F04D04042C1F1000138BF491EA4
:1002200014F0004F04D05242C3F1000338BF5B1EEC
:1002300010BD00000FB4044910B503AA029800F0E5
:1002400081FC10BC5DF814FB740000200FB41CB5D9
:10025000074B06AA7B4469460090059800F059FCBC
:100260000020694600F068FC1CBC5DF814FB00002F
:10027000E108000070B5044685690068C10601D533
:10028000302600E02026C00707D070BDD4E9012148
:1002900030469047206A401C20626D1EF6D570BD26
:1002A00070B5044685690078C00707D170BDD4E9F0
:1002B000012120209047206A401C20626D1EF6D547
:1002C00070BD00002DE9F041064600241068752934
:1002D000314616A510D0AFF30080002802DA404264
:1002E00013A507E031688A0701D512A502E0490786
:1002F00004D511A5012401E0AFF3008000210A22FA
:1003000006F1240709E0B0FBF2FCB0FBF2F302FBBC
:100310001C00303078541846491C0028F3D123467D
:100320002A463046BDE8F04100F085B900000000E3
:100330002D0000002B000000200000002DE9F05FE0
:10034000894604464FF0000ADFF824B1FB44C0F8A8
:1003500020A02046E168884700287DD0252806D0C7
:10036000D4E901219047206A401C2062F1E7002572
:100370005F462046E16888472028064607DB312E85
:1003800005D2B81910F8200C08B10543F1E7A80709
:1003900001D525F00405C4F81CA00027C4F818A056
:1003A0002A2E09D0304604F0A9F838B304EB8708A8
:1003B000303EC8F8186019E059F8041B204604EBD9
:1003C00087029161E1688847012F064618D1E069EC
:1003D000002820DA25F020051DE0D8F8180000EBF1
:1003E000800006EB40003038C8F818002046E1686D
:1003F0008847064604F082F80028EED1012F0AD083
:100400002E2E08D12046E16888477F1C0646022F21
:1004100045F02005C4DBA069002803DA404245F01E
:100420000105A061E80701D025F01005A6B1A6F1ED
:100430004100192802D8203645F400654A46314665
:10044000204625604D46FFF78BFE60B1012807D09E
:10045000ED1D25F0070000E007E000F1080978E74E
:1004600005F1040975E730467AE7206ABDE8F09F98
:1004700056B6000040EA010310B59B070FD1042ACD
:100480000DD310C808C9121F9C42F8D020BA19BA5F
:10049000884201D9012010BD4FF0FF3010BD1AB1C4
:1004A000D30703D0521C07E0002010BD10F8013B19
:1004B00011F8014B1B1B07D110F8013B11F8014B40
:1004C0001B1B01D1921EF1D1184610BD02F0FF0393
:1004D00043EA032242EA024200F048BB4FF0000226
:1004E00000B5134694469646203922BFA0E80C502A
:1004F000A0E80C50B1F12001BFF4F7AF090728BF05
:10050000A0E80C5048BF0CC05DF804EB890028BF80
:1005100040F8042B08BF704748BF20F8022B11F0A9
:10052000804F18BF00F8012B704770477047704725
:10053000704753EA020C00F069802DE9F04B4FF050
:100540000006002B1FBFB3FA83F503FA05F424FA63
:1005500005F65E4012BF1643B2FA82F502FA05F4C0
:10056000C5F120051EBF22FA05FC44EA0C04203523
:1005700056EA044C4FEA144418BF641C4FF00008BC
:100580004FF00009904271EB030C39D3002919BFD9
:10059000B1FA81F701FA07F6B0FA80F700FA07F628
:1005A000C7F120071EBF20FA07FC46EA0C062037D9
:1005B000B6FBF4FCA7EB0507103F07F01F0BCBF1D0
:1005C00020060CFA0BFB2CFA06F644BFB3460026B5
:1005D000202FA4BF5E464FF0000B5BEA060C08BF5D
:1005E0004FF0010B19EB0B09ABFB027C48EB060843
:1005F000C01B06FB02CC0BFB03CC71EB0C01C1E76B
:100600000B46024641464846BDE8F08B13B54FF015
:1006100000004FF00001AFF30080BDE81C407047C0
:1006200010B500F0C7FA006810BD10B5044600F020
:10063000C1FA046010BD2DE9F0470D469946924677
:10064000044600F124080168880604D5E06921F019
:100650001001216000E00120A84201DD471B00E0FD
:100660000027A1697A1902EB0900081AA061207815
:10067000C00602D42046FFF7FDFD002608E0D4E9BD
:1006800001211AF806009047206A401C761C20625F
:100690004E45F4DB2078C0060AD52046FFF7EAFD78
:1006A00006E0D4E9012130209047206A401C2062F6
:1006B000381EA7F10107F4DC07E0D4E9012118F89E
:1006C00005009047206A401C2062281EA5F1010504
:1006D000F3DC2046FFF7E4FD2078000602D5022077
:1006E000BDE8F0870120FBE770472DE9FF4F0C467E
:1006F0001E464FF0FF378BB0D2E90001DDF8608075
:100700000A908A46C1F30A5505B93D4600210846BC
:100710004FF00000BAF1000F00F4400005DA00EBE2
:1007200080004FF4400101EA50004FEA9059B9F1BE
:10073000010F00DDB9460A9850EA4A000ED044F68F
:100740001050A5F2FF3545432F14B8F1000F1ED00D
:100750007542291E1EDDC9F100021CE0B8F1010F2F
:100760004FF0000001D0302103E0F24305E02154B6
:10077000401CB042FBDB30460022002121540B9983
:10078000C1F80880C1E900200FB0BDE8F08FBD1BA3
:100790006D1CDEE74A4600DA694206A800F094FACA
:1007A00006AB93E8070003AB83E8070050460A99BD
:1007B00000F072FB8DE80700A0F500501F38009094
:1007C0000398002D0ADD42F21F014A460844002327
:1007D00003A90390684600F0DBFD09E0A0F5005096
:1007E0004A461F38002303A90390684600F0E5FD40
:1007F0008DE807000004000C03D04FF0FF304108E3
:1008000000E01046B8F1000F03D000220092154618
:100810001EE0751E05D400F0D1F9303262556D1E10
:10082000F9D5B3460122084302D000227F1C04E020
:100830002078302801D100227F1E002A099784D019
:100840001DE0112D07DA00F0B9F9303262556D1C48
:1008500050EA0102F5D1084302D00098C8B10EE079
:100860000021681E05E0235C625C63542254401E34
:10087000491C8142F7DBAB46A81B401E09900020B3
:1008800004F80B000B98099AC0F80880C0E9002B07
:100890007AE711264FF0000857E72DE9F04F884618
:1008A0000446D21D22F0070191B0D1E90001CDE943
:1008B0000A0103F08BFD02460B98C00F01D02D20DA
:1008C00007E02068810701D52B2002E0202101EA02
:1008D000C000032A099001D0072A05DB03464146E0
:1008E000204600F0B1F90BE12078800601D5E069DF
:1008F00000E00620B8F1650F814606D0B8F1660F1A
:1009000018D0B8F1670F70D131E00020B9F1110FA4
:10091000009001DB112301E009F101030AAA01A9FA
:100920000CA8FFF7E2FEDDE90C70002609F10105D5
:10093000834647E001204B4600904FF000470AAA4B
:1009400001A90CA8FFF7D1FEDDE90DB00C995D46B9
:10095000002610B909F101000D18B9EB050003D408
:10096000C0F1FF3609F10105A5EB09002BE0B9F153
:10097000010F01DA4FF001090020B9F1110F0090C9
:10098000484601DD112300E003460AAA01A90CA88C
:10099000FFF7ABFEDDE90C704D460026834620785C
:1009A00000070AD4AB4500DA5D4601A8012D04DD3D
:1009B000411911F8011C302907D04F4502DA17F10F
:1009C000040F04DA012082460FE06D1EEEE7002FCF
:1009D00002DCED1B3E4403E0781CA84200DD7D1CD8
:1009E000B81B00F1010A4FF000472078000703D43C
:1009F000AA4501DB4FF0FF3A0021B7F1004F0DF19E
:100A000043088DF8431024D002202B23002F01DA55
:100A10007F422D230A21021EA0F1010000DC5FB1FC
:100A200097FBF1FC97FBF1F201FB1C7C17460CF1E4
:100A3000300C08F801CDEEE7A8F101000370218821
:100A4000090501D5452100E06521A0F1010800F864
:100A5000011C09980FA9A1EB0807FF1D00B1012097
:100A6000411901EBEA70A1693844081A401EA061DF
:100A70002078C00602D42046FFF7FCFB099828B175
:100A8000D4E901219047206A401C20622078C006EA
:100A900022D52046FFF7EEFB1EE0002E04DBB34517
:100AA00002DD01A8805D00E03020D4E901219047FB
:100AB000206A401C2062761CAAF101005FEA000A4D
:100AC0000AD100F073F8C0680168405CD4E90121E4
:100AD0009047206A401C2062281EA5F10105DCDC3D
:100AE00007E0D4E9012118F8010B9047206A401C67
:100AF0002062381EA7F10107F3DC2046FFF7D0FB88
:100B0000032011B041E6000001694A1C0261087827
:100B1000704700B58FB0CDE901310021059105493D
:100B20007944CDE9031011466846FFF707FC0FB082
:100B300000BD0000E5FFFFFF0A6802F8010B0A6034
:100B400070470000074B70B50D467B44FFF7E1FF8F
:100B50000446284600F02AF910B14FF0FF3070BD6E
:100B6000204670BD474F00004FF000020429C0F03E
:100B7000128010F0030C3FF4B3ACCCF1040CBCF1C8
:100B8000020F18BF00F8012BA8BF20F8022BA1EB21
:100B90000C01FFF7A5BC5FEAC17C24BF00F8012B64
:100BA00000F8012B48BF00F8012B70470048704740
:100BB00020080020004870470008002030B5B0F140
:100BC0000A024FEA900E71F100034EEA817EB0EB0B
:100BD0000E0061EB91014FEA101E4EEA017E10EB10
:100BE0000E0041EB11114FEA102E4EEA016E10EB90
:100BF0000E0041EB11214FEA104E4EEA014E10EB70
:100C00000E0041EB1141401841F100014FEAD000C4
:100C100040EA41704FEAD10110EB80054FEA8104B0
:100C200044EA907444EB01046D1944EB0404521B34
:100C3000A3414FF0000348BF0A3200D530BD401C2D
:100C400041F1000130BD00002DE9F0411F4604468E
:100C500003260168072A01F4006004DB08B116A529
:100C600005E016A503E008B115A500E015A521F0E3
:100C700010002060A069C01EA0610FB1401EA061DD
:100C80002046FFF7F7FA4FB1D4E9012138469047E3
:100C9000206A401C2062C01C206206E0206AFAE73D
:100CA000D4E9012115F8010B9047761EF8D22046B1
:100CB000FFF7F6FABDE8F0814E414E006E616E001E
:100CC000494E4600696E66002DE9F047814616469A
:100CD0008AB0354878440DC88DE80D003248784414
:100CE000801C03AC0DC884E80D0041F69B3008441D
:100CF000372190FBF1F290FBF1F5A5F1800501FBA6
:100D000012041B3C02D56442012000E00020DFF801
:100D100098A080460027FA44AAF1BE0A0EE0E00738
:100D20000AD03246684607EB470101230AEB8101EE
:100D300000F043FB8DE8070064107F1C002CEED10F
:100D4000194F7F44AE3F19E0E80715D007EB0410B8
:100D50000DF1180A90E80E008AE80E00C068F04213
:100D600001D1981908903246012306A903A800F082
:100D700024FB03AB83E807006D10641C002DE3D156
:100D80004FF0010332466946B8F1000F03A802D0C4
:100D900000F0FEFA01E000F010FBC9E90001C9F81B
:100DA00008200AB0BDE8F0874CAE0000007B00F0E0
:100DB0008000704700487047000800207546FFF724
:100DC000F9FFAE4605006946534620F00700854608
:100DD00018B020B5FFF7F6F9BDE820404FF0000647
:100DE0004FF000074FF000084FF0000B21F0070113
:100DF000AC46ACE8C009ACE8C009ACE8C009ACE856
:100E0000C0098D46704710B50446AFF300802046F8
:100E1000BDE81040FFF7C1B94FF0013C50F8042B7A
:100E200051F8043B9A4221D1A2EB0C03934313EAFD
:100E3000CC1317D150F8042B51F8043B9A4215D12A
:100E4000A2EB0C03934313EACC130BD150F8042B01
:100E500051F8043B9A4209D1A2EB0C03934313EAE5
:100E6000CC13DBD04FF00000704700BFD01A01BA9E
:100E7000B1FA81F101F0180122FA01F0CB40C1F181
:100E80002001DBB2C0B2C01A2CFA01F3D11A91438F
:100E900011EAC311E6D170475FEA400C08BF91F038
:100EA000000F4FEA8C234FEAC12243EA51514FEA27
:100EB0001C5018BF00F5F0404FEA300018BF41F059
:100EC00000415FEA6C5C00F02980BCF1FF3F08BF85
:100ED00040F080407047130C06BF12044FF0100C16
:100EE0004FF0000C130E04BF12020CF1080C130F8C
:100EF00004BF12010CF1040C930F04BF92000CF11B
:100F0000020CD30F04BF52000CF1010C11464FF03C
:100F10000002A0F11F00A0EB0C00704711F0004F81
:100F200008BF704731F000413FF4D5AF0B0C06BF4E
:100F300009044FF0100C4FF0000C0B0E04BF090217
:100F40000CF1080C0B0F04BF09010CF1040C8B0F02
:100F500004BF89000CF1020CCB0F04BF49000CF157
:100F6000010CCCF12003A0EB0C0022FA03F302FAEF
:100F70000CF241EA030100F10100704720F07F4CC0
:100F800080EA030023F07F47ACEB070303F57C53B3
:100F900000F0004003F1FF032DE980494FEA154BB3
:100FA00009B44FEA144325EA0B4E24EA03480FF232
:100FB000042606EB132749083E785FEA320203FB5A
:100FC0000667C7F5000707FB06F64FEA54374FEAF6
:100FD000D64606F1020607FB066CCCF1005C4FEA30
:100FE0001C472CEA074C07FB06F40CFB06F504EB48
:100FF00015464FEA961634BF00204FF000404FEAE6
:10100000D13706FB07FC4FEA1C4C0CFB0BF7D21B3D
:1010100003FB0CF761EB07010CFB0EF7B0EB07408D
:1010200072EB17420CFB08F734BFA2EB0742B2EB9E
:10103000074261EB17414FEA0C444FEA910706FB68
:1010400007FC4FEA1C4C0CFB0BF7B0EBC74072EBF4
:10105000573203FB0CF734BFA2EBC742B2EBC742D7
:1010600061EB57310CFB0EF7B0EBC70072EB577218
:101070000CFB08F734BFA2EBC702B2EBC70261EB6F
:101080005771039F4FEA816141EA921104EBCC044E
:101090004FEAD1374FEA826206FB07FC42EA901220
:1010A0004FEA80604FEA1C4C0CFB0BF7D21B03FB92
:1010B0000CF761EB07010CFB0EF7B0EB074072EB8E
:1010C00017420CFB08F734BFA2EB0742B2EB074212
:1010D00061EB17414FEA8C554FEA910704EB9C24D2
:1010E00006FB07FC4FEA1C4C0CFB0BF7B0EBC740B0
:1010F00072EB573203FB0CF734BFA2EBC742B2EBE3
:10110000C74261EB57310CFB0EF7B0EBC70072EB37
:1011100057720CFB08F734BFA2EBC702B2EBC70251
:1011200061EB577115EB4C254FEA816141EA921151
:101130004FEA82624FEAD13742EA901206FB07FC7F
:1011400044F100044FEA80604FEA1C4C0CFB0BF7A3
:10115000D21B03FB0CF761EB07010CFB0EF7B0EBA6
:10116000074072EB17420CFB08F734BFA2EB0742B3
:10117000B2EB074261EB174115EB1C154FEA8131C9
:1011800041EA92414FEA823242EA90424FEA80308D
:101190004FEA0C7644F1000448EA03434EEA0B4858
:1011A0004FF0000EB2EB080C71EB030724BF624650
:1011B00039464EEB0E0E4FF0000B001852414941DC
:1011C0004BEB0B0BB2EB080C71EB03077BF1000B45
:1011D00024BF624639464EEB0E0E4FF0000B00184E
:1011E000524149414BEB0B0BB2EB080C71EB03077F
:1011F0007BF1000B24BF624639464EEB0E0E51EADE
:10120000020718BF46F0010616EB0E7655F10002F4
:1012100054F1000103D5BDE88901BDE80088BDE8AF
:101220008901BDE80048B619524141EB0101A3F123
:101230000103704780807F7E7D7C7B7A797877762A
:1012400076757473727171706F6E6E6D6C6C6B6AA3
:101250006A69686867666665646463636261616041
:10126000605F5F5E5E5D5D5C5C5B5B5A5A595958BE
:101270005857575656555555545453535252525128
:10128000515050504F4F4F4E4E4D4D4D4C4C4C4B7E
:101290004B4B4A4A4A4949494848484747474746C5
:1012A0004646454545444444444343434342424201
:1012B00042414141002B9C4630D477002BD01CB5D5
:1012C0004FEA370703B44FF010004FF01001BAF1A6
:1012D000000F06D0BCF1000FDCBF40F0080040F06A
:1012E00008014FF000000FBCBDE810400BF1010BEE
:1012F000BBF1010F08BF5FEA170722BF12F101021D
:1013000011F101014FF0004143F1000300F00040F2
:1013100043EA00007047F9D35708D0E746EA06468B
:1013200013F1400F4FEA16461FDD13F1200FDFBF08
:1013300016430A46002120335B42BED0C3F120078A
:1013400046EA064602FA07F74FEA164646EA070655
:10135000C3F1200722FA03F201FA07F721FA03F199
:101360004FF0000342EA0702A7E746EA020646EA10
:1013700006464FEA164646EA0106BCBF46EA06465E
:10138000360C4FF000034FF000024FF0000194E7DD
:101390002DE9804C9A46934670B491E8380007C80E
:1013A00031EA400C48BF34EA430C03D5FFF7E6FDB1
:1013B000FFF780FFF0BCBDE8008C2DE9804C9A4619
:1013C000934670B491E8380007C810F0804F08BF0A
:1013D00013F0804F03D100F005F8FFF76BFFF0BC6E
:1013E000BDE8008C20F07F4780EA030023F07F4CAB
:1013F00007EB0C03A3F57C5300F00040A3F1FE03C0
:1014000092F0000F00F0B38095F0000F00F07780AD
:101410002DE901494FEA11404FEA144621EA0048FC
:1014200000FB06FC24EA064708FB06F607FB08F863
:1014300000FB07F718EB06484CEB164C4FEA124B33
:1014400018EB07484FEA15464CEB174022EA0B4EC3
:101450000BFB06FC25EA06470EFB06F607FB0EFE15
:101460000BFB07F71EEB064E4CEB164C4FF000063D
:101470001EEB074E4CEB174B18EB0B0840F100002E
:1014800018EB0E0B58EB000840F100008F1A4FF0DC
:1014900000013CBFC943661B14BFB5EB040C00211F
:1014A0003CBFC943F61B4FEA17444EEA8E0E27EAAB
:1014B00004454FEA1C4704FB07622CEA074C05FB76
:1014C00007F70CFB05F604FB0CFC16EB074642EB9A
:1014D000174216EB0C4642EB1C421BEB060658EB80
:1014E0000202414146EA9E0601D5BDE80189B619CE
:1014F000524141EB0101A3F10103BDE801894FEA2B
:1015000014454FEA114724EA054621EA074C05FB3A
:1015100007F406FB07F70CFB06F105FB0CFC11EBCF
:10152000074144EB17444FEA124711EB0C4144EBDF
:101530001C4422EA074C05FB07F206FB07F70CFBED
:1015400006F605FB0CFC16EB074642EB174216EBC2
:101550000C4642EB1C456A1854F1000148BF704725
:10156000B619524141EB0101A3F10103704795F017
:10157000000F37D04FEA11424FEA144721EA0246E2
:1015800024EA074C02FB07F106FB07F70CFB06F405
:1015900002FB0CFC14EB074441EB17414FEA1547E3
:1015A00014EB0C4441EB1C4125EA074C02FB07F508
:1015B00006FB07F70CFB06F602FB0CFC16EB0746D6
:1015C00045EB174516EB0C4645EB1C42121951F141
:1015D000000148BF7047B619524141EB0101A3F128
:1015E000010370474FEA14454FEA114724EA0546C4
:1015F00021EA074C05FB07F106FB07F70CFB06F297
:101600004FF0000605FB0CFC12EB074241EB1741C3
:1016100012EB0C4251EB1C4148BF7047921841EB52
:101620000101A3F10103704700BFFEE7704710B549
:101630004FF4805000F084F810BD10B5202000F069
:101640007FF810BD72B600BFFEE7000070B504461B
:10165000002594F82100022803D00420A06301256E
:1016600048E02068006820F00E00216808602068CB
:10167000006820F00100216808601F492068884246
:1016800001D1012026E01C4914312068884201D193
:1016900010201FE0184928312068884201D18015A8
:1016A00018E015493C312068884201D1801411E0CE
:1016B000114950312068884202D14FF4803009E04E
:1016C0000D4964312068884202D14FF4801001E056
:1016D0004FF08070084908394860012084F82100E3
:1016E00000BF002084F8200000BF606B10B12046CE
:1016F000616B8847284670BD0800024070B50446FB
:1017000000F0D4F906462546681C10B1044800785C
:10171000054400BF00F0CAF9801BA842FAD370BD8F
:101720000800002010B50446B4F5805F02D106F031
:1017300095F803E0202C01D103F054FA10BD00000D
:1017400010B5044604480068204020B102480460F7
:101750002046FFF7E7FF10BD140401402DE9F847CC
:101760000346002294466EE14FF0010808FA02F4A5
:10177000D1F8008008EA0400A0427DD1DFF8DCA2A5
:10178000D1F80480A8EB0A09D0453AD014DCB8F1AE
:10179000030F50D009DCB8F1000F31D0B8F1010FC0
:1017A0001CD0B8F1020F49D120E0B8F1110F18D0C8
:1017B000B8F1120F42D11EE0B9F5881F25D006DC22
:1017C000B9F5803F20D0B9F5801F37D11AE0B9F5BF
:1017D000001F18D0B9F5041F30D117E0D1F80CC0A4
:1017E0002DE0D1F80C8008F1040C28E0D1F80C8031
:1017F00008F1080C23E0D1F80C8008F10C0C1EE075
:1018000000BF00BF00BF00BF00BF00BFD1F808800D
:10181000B8F1000F02D14FF0040C0BE0D1F80880B2
:10182000B8F1010F03D14FF0080C1C6102E04FF03A
:10183000080C5C6103E04FF0000C00E000BF00BF4B
:10184000FF2801D8984601E003F104084646FF2826
:1018500002D84FEA820803E0A2F108084FEA88089C
:101860004746D6F800804FF00F0909FA07F928EA31
:1018700009080CFA07F900E088E048EA0908C6F808
:101880000080D1F8048008F08058B8F1805F7DD1E5
:1018900000BFDFF8CC81D8F8188048F00108DFF8E5
:1018A000C091C9F81880C846D8F8188008F0010817
:1018B000CDF8008000BF00BF4FEAB9384FEA920967
:1018C00058F829504FEA82784FEA18794FF00F08FC
:1018D00008FA09F825EA0805DFF88881434502D1AE
:1018E0004FF0000816E0DFF88081434502D14FF049
:1018F00001080FE0DFF87481434502D14FF0020880
:1019000008E0DFF86C81434502D14FF0030801E0A5
:101910004FF004084FEA82794FEA197908FA09F87A
:1019200048EA0505DFF84C814FEA920948F829504A
:10193000D1F8048008F48038B8F5803F0AD1DFF888
:101940003881D8F8008048EA0008DFF82C91C9F8FF
:10195000008009E0DFF82081D8F8008028EA00083C
:10196000DFF81491C9F80080D1F8048008F4003839
:10197000B8F5003F10D1DFF8008108F10408D8F86D
:10198000008048EA0008DFF8F09000E05AE009F132
:101990000409C9F800800DE0DFF8DC8008F10408D4
:1019A000D8F8008028EA0008DFF8CC9009F1040993
:1019B000C9F80080D1F8048008F48018B8F5801FB9
:1019C0000ED1DFF8B48008F10808D8F8008048EAA2
:1019D0000008DFF8A49009F10809C9F800800DE0BB
:1019E000DFF8948008F10808D8F8008028EA000899
:1019F000DFF8849009F10809C9F80080D1F8048063
:101A000008F40018B8F5001F0ED1DFF86C8008F15B
:101A10000C08D8F8008048EA0008DFF85C9009F16B
:101A20000C09C9F800800DE0DFF84C8008F10C08C3
:101A3000D8F8008028EA0008DFF83C9009F10C098A
:101A4000C9F80080521CD1F8008028FA02F8B8F1D9
:101A5000000F7FF489AEBDE8F88700000000111088
:101A60000010024000080140000C0140001001403D
:101A70000014014008000140000401400246936840
:101A80000B400BB1012000E00020704710B5C26888
:101A900021EA020302EA010443EA0443036110BDA0
:101AA0000AB1016101E00B0403617047014800685D
:101AB00070470000000000200348006803490978CF
:101AC0000844014908607047000000200800002019
:101AD00010B50848006840F010000649086003206F
:101AE00000F0ACF8002000F007F800F02BF8002020
:101AF00010BD00000020024070B504460E4800787A
:101B00004FF47A71B1FBF0F00C490968B1FBF0F5C4
:101B1000284600F00FFC08B1012070BD102C07D240
:101B200000222146501E00F04BF80548046001E0F9
:101B30000120F2E70020F0E7080000200C00002060
:101B40000400002008B500BF1348806940F0010080
:101B5000114988610846806900F00100009000BFCB
:101B600000BF00BF0846C06940F08050C861084609
:101B7000C06900F08050009000BF00BF052000F059
:101B80005DF800BF0549486820F0E06040F0007053
:101B9000486000BF08BD0000001002400000014086
:101BA00001460846002809DB00F01F0301229A4085
:101BB00043099B0003F1E023C3F8002100BF7047F5
:101BC0002DE9F05F80460D461646002702F012FC14
:101BD000074639462A46334601F00700C0F1070A96
:101BE000BAF1040F02D94FF0040A01E0C0F1070A6C
:101BF000D14600F1040ABAF1070F02D24FF0000AF1
:101C000001E0A0F1030AD4464FF0010A0AFA09FAEA
:101C1000AAF1010A0AEA020A0AFA0CFA4FF0010BC9
:101C20000BFA0CFBABF1010B0BEA030B4AEA0B04BA
:101C30002146404602F0E6FBBDE8F09F00BF00F001
:101C40000702064B19684FF6FF031940044B0B437C
:101C500043EA0221014B196000BF70470CED00E020
:101C60000000FA0570B504460D460CB9012070BDA0
:101C70005A48006800F00700A8420ED25748006892
:101C800020F007002843554908600846006800F026
:101C90000700A84201D00120E9E7207800F0020007
:101CA00002281DD1207800F00400042805D14C48FA
:101CB000406840F4E0604A494860207800F008003D
:101CC000082805D14648406840F4605044494860BF
:101CD0004348406820F0F000A1680843404948604C
:101CE000207800F0010078B36068012806D13C48F4
:101CF000006800F4003090B90120B8E7606802285D
:101D000006D13748006800F0007040B90120AEE706
:101D10003348006800F0020008B90120A7E7304806
:101D2000406820F00300616808432D494860FFF7D0
:101D3000BDFE064609E0FFF7B9FE801B41F288317F
:101D4000884202D9032092E707E02548406800F066
:101D50000C006168B0EB810FEDD12048006800F005
:101D60000700A8420ED91D48006820F0070028434C
:101D70001A4908600846006800F00700A84201D030
:101D8000012074E7207800F00400042807D11448EB
:101D9000406820F4E060E168084311494860207819
:101DA00000F00800082808D10D48406820F4605071
:101DB000216940EAC1000A49486000F03FF808493B
:101DC0004968C1F30311074A515CC84006490860DD
:101DD00006480068FFF790FE002048E70020024018
:101DE00000100240368F00080C0000200400002084
:101DF00001480068704700000C00002000B5FFF7A4
:101E0000F7FF04494968C1F30221034A515CC84005
:101E100000BD000000100240468F000800B5FFF72B
:101E2000E7FF04494968C1F3C221034A515CC84035
:101E300000BD000000100240468F0008F0B585B0DC
:101E40000FF26C0C9CE8E01001A8A0E8E0101CA5C3
:101E50002D68009500210022002300240020194D48
:101E6000696801F00C05F5B1042D02D0082D19D1D7
:101E700001E0154819E001ADC1F38346AC5D01F402
:101E8000803555B10F4D6D68C5F340451DF80520EF
:101E90000D4D6543B5FBF2F302E00C4D04FB05F379
:101EA000184602E000BF084800BF00BF05B0F0BD03
:101EB00002030405060708090A0B0C0D0E0F10108B
:101EC000010200000010024000127A0000093D00EB
:101ED000F8B504460CB90120F8BD207800F00100E7
:101EE000002878D0F848406800F00C0004280CD096
:101EF000F548406800F00C00082811D1F24840680D
:101F000000F48030B0F5803F0AD1EF48006800F45B
:101F1000003000285FD0606800285CD10120DBE73A
:101F200000BF6068B0F5803F06D1E748006840F424
:101F30008030E549086028E0606858B9E2480068E8
:101F400020F48030E04908600846006820F48020D2
:101F500008601AE06068B0F5A02F0BD1DA4800687D
:101F600040F48020D84908600846006840F480307A
:101F700008600AE0D448006820F48030D249086044
:101F80000846006820F48020086000BF606888B1BF
:101F9000FFF78CFD054606E0FFF788FD401B64282F
:101FA00001D9032098E7C848006800F400300028F1
:101FB000F2D010E0FFF77AFD054606E0FFF776FD68
:101FC000401B642801D9032086E7BF48006800F45D
:101FD00000300028F2D1207800F00200022857D10A
:101FE000B948406800F00C0050B1B748406800F0B4
:101FF0000C00082818D1B448406800F4803098B923
:10200000B148006800F0020020B12069012801D029
:10201000012061E7AC48006820F0F800616940EAFF
:10202000C100A949086033E02069E8B10120A7494F
:102030000860FFF73BFD054606E0FFF737FD401B54
:10204000022801D9032047E79F48006800F00200FA
:102050000028F2D09C48006820F0F800616940EA4E
:10206000C1009949086013E0002098490860FFF713
:102070001DFD054606E0FFF719FD401B022801D9AA
:10208000032029E79048006800F002000028F2D100
:10209000207800F0080008282DD1A069B8B10120EF
:1020A0008B490860FFF702FD054606E0FFF7FEFCDE
:1020B000401B022801D903200EE78348406A00F044
:1020C00002000028F2D0012001F088FE13E0002079
:1020D0007F490860FFF7EAFC054606E0FFF7E6FCEB
:1020E000401B022801D90320F6E67748406A00F039
:1020F00002000028F2D1207800F00400042873D1F7
:1021000000277148C06900F0805070B900BF6E4868
:10211000C06940F080506C49C8610846C06900F051
:102120008050009000BF00BF01276A48006800F49B
:102130008070B0B96748006840F4807065490860F5
:10214000FFF7B4FC054606E0FFF7B0FC401B64282F
:1021500001D90320C0E65F48006800F480700028C1
:10216000F2D000BFE068012806D15748006A40F06D
:1021700001005549086227E0E06858B95248006AF2
:1021800020F00100504908620846006A20F004006F
:10219000086219E0E06805280BD14B48006A40F05E
:1021A0000400494908620846006A40F001000862DC
:1021B0000AE04548006A20F00100434908620846E9
:1021C000006A20F00400086200BFE068A0B1FFF7D9
:1021D0006DFC054609E0FFF769FC401B41F28831C0
:1021E000884202D9032077E622E03748006A00F0EF
:1021F00002000028EFD012E0FFF758FC054608E087
:10220000FFF754FC401B41F28831884201D903207A
:1022100062E62D48006A00F002000028F0D1012F8C
:1022200005D12948C06920F080502749C86100BF06
:10223000E069C8B32448406800F00C00082860D06A
:10224000E069022848D1002020490866FFF72EFCEB
:10225000054606E0FFF72AFC401B022801D90320AF
:102260003AE61948006800F000700028F2D1206AB0
:10227000B0F5803F07D11448406820F40030A168D1
:10228000084311494860D4E9080108430E494968E8
:1022900021F4741108430C49486001200B49086679
:1022A000FFF704FC054607E03DE0FFF7FFFB401B9E
:1022B000022801D903200FE60348006800F00070EF
:1022C0000028F2D02FE0000000100240000042423F
:1022D0008004424200700040002014490866FFF765
:1022E000E5FB054606E0FFF7E1FB401B022801D9AC
:1022F0000320F1E50E48006800F000700028F2D1DC
:1023000011E0E069012800D1E6E50948466806F4D5
:102310008031206A814204D106F47011606A8142E2
:1023200001D00120D8E50020D6E50000000042429F
:102330000010024070B504462546681EB0F1807F4B
:1023400001D301200FE0681E4FF0E02148610F210A
:102350004FF0FF3002F056F800204FF0E021886186
:1023600007200861002070BD10B50346002200BFA1
:1023700093F83C00012801D1022010BD012083F810
:102380003C0000BF22F0FF00CC6840EA040222F4C7
:1023900040708C6840EA040222F480604C6840EA95
:1023A000040222F400600C6840EA040222F4805027
:1023B0000C6940EA040222F400504C6940EA04022D
:1023C00022F48040CC6940EA04021868426400BFED
:1023D000002083F83C0000BF00BFCEE730B50246C6
:1023E0000B4600BF92F83C00012801D1022030BD0D
:1023F000012082F83C0000BF022082F83D001068F6
:1024000044681068816824F07004186804431068F8
:102410004460104D1068A8420BD01068B0F1804F96
:1024200007D00D4D1068A84203D00C4D1068A8428B
:1024300005D121F0800158680143106881600120B6
:1024400082F83D0000BF002082F83C0000BF00BFC2
:10245000CDE70000002C01400004004000080040CF
:1024600010B504460CB9012010BD94F83D0028B900
:10247000002084F83C00204600F026F8022084F872
:102480003D00211D206801F023FD012084F8460055
:1024900000BF84F83E0001213F2001554020015536
:1024A0004120015500BF00BF012084F842004320B5
:1024B0000155442001554520015500BF012084F8F5
:1024C0003D000020D0E7000008B5094A01689142AC
:1024D0000DD100BF0749C96941F00201054AD16128
:1024E0001146C96901F00201009100BF00BF08BD9B
:1024F0000004004000100240014691F83D00012810
:1025000001D001207047022081F83D00124B08687D
:1025100098420BD00868B0F1804F07D00F4B086885
:10252000984203D00E4B086898420CD10868806826
:1025300000F00702062A0CD00868006840F001008D
:102540000B68186005E00868006840F001000B683F
:1025500018600020D6E70000002C01400004004075
:1025600000080040014600BF0868006A41F21112ED
:10257000104050B90868006A9210104028B90868E5
:10258000006820F001000A68106000BF012081F897
:102590003D00002070472DE9F04104460D4600BF84
:1025A00094F83C00012802D10220BDE8F08101200E
:1025B00084F83C0000BF022084F83D002068866853
:1025C00026F0770626F47F46206886602868502823
:1025D00033D00CDC202850D004DC00284BD010284D
:1025E00051D149E0302849D040284CD139E0602809
:1025F0002DD0702807D0B0F5805F03D0B0F5005F14
:1026000041D10DE040E0D5E902136A68206801F08D
:10261000AAFC2068866846F077062068866033E06A
:10262000D5E902136A68206801F09DFC2068806883
:1026300040F480402168886026E0EA686968206884
:1026400001F062FD5021206801F098FC1CE0EA686E
:102650006968206801F06BFD6021206801F08EFC44
:1026600012E0EA686968206801F04EFD40212068A8
:1026700001F084FC08E000BF00BF00BF29682068AB
:1026800001F07CFC00E000BF00BF012084F83D00A9
:1026900000BF002084F83C0000BF00BF85E72DE9A3
:1026A000F04104460D4614B90120BDE8F08194F8CC
:1026B0003D0028B9002084F83C00204600F052F884
:1026C000022084F83D002068806844F207018843B6
:1026D00021688860211D206801F0FAFB2068D0F88D
:1026E0000880206886692068076A286840EA080828
:1026F00040F203308643A969A86840EA01200643F6
:1027000040F60C4086434FF2F0008643E969E868E2
:1027100040EA0120064328690001296A40EA0130A5
:10272000064327F022076969686840EA01100743F9
:102730002068C0F808802068866120680762012050
:1027400084F8460084F83E0001213F200155012015
:1027500084F8420043200155012084F83D00002008
:10276000A3E7000010B586B0044600200290039055
:10277000049005902068B0F1804F24D100BF274815
:10278000C06940F001002549C8610846C06900F0F1
:102790000100019000BF00BF00BF0846806940F003
:1027A000040088610846806900F00400019000BFC1
:1027B00000BF0320029000200390049002A9184853
:1027C000FEF7CCFF27E017492068884223D100BFDD
:1027D0001248C06940F004001049C8610846C06949
:1027E00000F00400019000BF00BF00BF08468069F0
:1027F00040F0080088610846806900F008000190F8
:1028000000BF00BFC020029000200390049002A9E6
:102810000548FEF7A3FF06B010BD000000100240FF
:102820000008014000080040000C01402DE9F04381
:1028300004460D4694F83E603F20075D94F84280C0
:10284000432010F804906DB9012E02D1B8F1010FA8
:1028500002D00120BDE8F083022084F83E0084F815
:10286000420025E0042D0CD1012F02D1B9F1010F56
:1028700001D00120EEE702213F2001554320015500
:1028800016E0012E07D1012F05D1B8F1010F02D1B9
:10289000B9F1010F01D00120DCE7022084F83E00ED
:1028A00002213F200155022084F8420043200155B7
:1028B00015B1042D0CD105E001220021206801F0A2
:1028C00041FB10E001220421206801F03BFB0AE0FB
:1028D00001220021206801F035FB0122042120683B
:1028E00001F030FB00BF00BF2068006840F001002D
:1028F000216808600020ADE710B586B004460020CE
:1029000002900390049005900E492068884217D1E8
:1029100000BF0D48806940F004000B4988610846FB
:10292000806900F00400019000BF00BF4FF4106008
:10293000029002200390059002A90448FEF70EFFC2
:1029400006B010BD002C01400010024000080140FC
:1029500070B504460D46164600BF94F83C000128A9
:1029600001D1022070BD012084F83C0000BF36B1C7
:10297000042E1BD0082E31D00C2E5ED145E0294606
:10298000206801F005FB2068806940F0080021689C
:1029900088612068806920F00400216888612068CF
:1029A0008069296908432168886147E029462068D1
:1029B00001F01EFB2068806940F400602168886196
:1029C0002068806920F480602168886120688069BF
:1029D000296940EA0120216888612FE029462068A2
:1029E00001F03AFB2068C06940F008002168C86126
:1029F0002068C06920F004002168C8612068C069AF
:102A0000296908432168C86118E02946206801F057
:102A100057FB2068C06940F400602168C8612068E5
:102A2000C06920F480602168C8612068C069296994
:102A300040EA01202168C86100E000BF00BF00BF7C
:102A4000002084F83C0000BF00BF8BE710B50446AF
:102A50000CB9012010BD94F83D0028B9002084F87D
:102A60003C00204600F026F8022084F83D00211D9D
:102A7000206801F02DFA012084F8460000BF84F898
:102A80003E0001213F2001554020015541200155C4
:102A900000BF00BF012084F84200432001554420BC
:102AA00001554520015500BF012084F83D0000205C
:102AB000D0E7000008B5094A016891420DD100BF76
:102AC0000749896941F40061054A916111468969A4
:102AD00001F40061009100BF00BF08BD002C01405F
:102AE0000010024070B504460D4615B994F83E003A
:102AF0000BE0042D02D13F20005D06E0082D02D13D
:102B00004020005D01E04120005D012801D001204E
:102B100070BD1DB9022084F83E000EE0042D03D1E3
:102B200002213F20015508E0082D03D10221402059
:102B3000015502E002214120015501222946206869
:102B400001F000FA19492068884201D1012000E013
:102B5000002028B12068406C40F40040216848649F
:102B60001249206888420BD02068B0F1804F07D00E
:102B70000F492068884203D00E49206888420CD152
:102B80002068806800F00706062E0CD020680068D8
:102B900040F001002168086005E02068006840F00E
:102BA0000100216808600020B2E70000002C01400D
:102BB0000004004000080040704700002DE9F04785
:102BC0000446206805682068C668206847694FF099
:102BD0000008C14605F00F08B8F1000F0AD105F052
:102BE000200038B106F0200020B1204601F0DDFAC7
:102BF000BDE8F087B8F1000F71D007F0010018B9F7
:102C000006F4907000286AD005F0010030B106F497
:102C1000807018B1E06B40F00100E06305F0040043
:102C200030B107F0010018B1E06B40F00200E06342
:102C300005F0020030B107F0010018B1E06B40F080
:102C40000400E06305F0080048B106F0200010B968
:102C500007F0010018B1E06B40F00800E063E06BA2
:102C600068B305F0200028B106F0200010B120461E
:102C700001F09BFA20684069C0F38019E06B00F016
:102C8000080010B9B9F1000F22D0204601F06DFA0A
:102C90002068406900F04000B0B12068406920F031
:102CA000400021684861606B50B11848616B48630F
:102CB000606BFEF7CBFC10B1606B416B88470CE09A
:102CC0002046FFF779FF08E02046FFF775FF04E094
:102CD0002046FFF771FF0020E06389E7FFE705F07A
:102CE000800030B106F0800018B1204601F02CFBC6
:102CF0007EE705F0400030B106F0400018B12046F4
:102D000001F043FA74E700BF72E700005741000882
:102D100010B504460CB9012010BDA06900B100E057
:102D200000BF94F8390028B9002084F83800204604
:102D300000F028F8242084F839002068C06820F4C6
:102D400000502168C860204601F080FA20680069C0
:102D500020F49040216808612068406920F02A0032
:102D6000216848612068C06840F400502168C8604C
:102D70000020E063202084F8390084F83A00002025
:102D8000CAE7000010B586B0044600200290039008
:102D9000049005903C492068884237D100BF3B48E9
:102DA000806940F48040394988610846806900F4B0
:102DB0008040019000BF00BF00BF0846806940F01E
:102DC000040088610846806900F00400019000BF9B
:102DD00000BF48150290022003900320059002A92D
:102DE0002B48FEF7BBFC4FF480600290002003905C
:102DF000049002A92648FEF7B1FC032211462520C3
:102E0000FEF7DEFE2520FEF7CBFE3AE021492068E2
:102E1000884236D100BF1D48C06940F480201B495C
:102E2000C8610846C06900F48020019000BF00BF5F
:102E300000BF0846806940F0080088610846806944
:102E400000F00800019000BF00BF081502900220AA
:102E500003900320059002A90F48FEF77FFC4FF472
:102E60000060029000200390049002A90A48FEF737
:102E700075FC002202212720FEF7A2FE2720FEF784
:102E80008FFE06B010BD0000003801400010024067
:102E90000008014000480040000C014010B5034606
:102EA00093F83A0020282FD101B10AB9012010BDB2
:102EB00000BF93F83800012801D10220F7E7012074
:102EC00083F8380000BF99629A85DA850020D863BC
:102ED000222083F83A0000BF002083F8380000BFAA
:102EE0001868C06840F480701C68E0601868406929
:102EF00040F001001C6860611868C06840F0200064
:102F00001C68E0600020D2E70220D0E710B504463C
:102F100006492068884202D104F014FD05E0044906
:102F20002068884201D104F053FD10BD00380140F3
:102F300000480040704700BFFEE7000010B50122C6
:102F400051020D48FEF7ACFD012211020A48FEF7BE
:102F5000A7FD00F043F800224FF400710648FEF789
:102F60009FFD00F03BF800224FF480710248FEF70D
:102F700097FD00F033F810BD000C014010B50022A1
:102F80004FF400710748FEF78BFD0122110205483E
:102F9000FEF786FD00F022F8012251020148FEF7FB
:102FA0007FFD10BD000C014010B5012251020A48FE
:102FB000FEF776FD00F012F8012211020648FEF736
:102FC0006FFD00F00BF800224FF480710248FEF70D
:102FD00067FD00F003F810BD000C0140032000BFA6
:102FE000011EA0F10102D0B2FAD170472DE9FC41D7
:102FF00004460D4616466B4606223B21682000F02B
:1030000019FA0746BFB99DF801009DF8001040EA83
:10301000012000B220809DF803009DF8021040EAD4
:10302000012000B228809DF805009DF8041040EAB8
:10303000012000B230803846BDE8FC812DE9FC411A
:1030400004460D4616466B4606224321682000F0D2
:10305000F1F90746BFB99DF801009DF8001040EA5C
:10306000012000B220809DF803009DF8021040EA84
:10307000012000B228809DF805009DF8041040EA68
:10308000012000B230803846BDE8FC8110B500BF99
:10309000002210211448FEF703FD00BF124800680B
:1030A00020F47040104908600846006840F4405021
:1030B000086000BF002208210B48FEF7F1FC00BFAA
:1030C00000F014F800BF012210210748FEF7E8FCC9
:1030D00000BF00F00BF800BF002210210248FEF7ED
:1030E000DFFC00BF10BD0000000C014010B5022045
:1030F00001F0CAFE10BD704710B500BF00221021BC
:103100001448FEF7CDFC00BF1248006820F4704060
:10311000104908600846006840F44050086000BF4D
:10312000012208210B48FEF7BBFC00BFFFF7DEFFC2
:1031300000BF012210210748FEF7B2FC00BFFFF7D5
:10314000D5FF00BF002210210248FEF7A9FC00BFF6
:1031500010BD0000000C014070B5054600241A485F
:10316000006820F47040184908600846006840F480
:103170000040086000261CE000BF00221021124819
:10318000FEF78EFC00BFFFF7B1FF00BF0122102148
:103190000D48FEF785FC00BF6006040E08210A48B2
:1031A000FEF76CFC08B1601CC4B2FFF79FFF701CF7
:1031B000C6B2082EE0DB15B9FFF79EFF01E0FFF76E
:1031C00065FF204670BD0000000C014070B504464C
:1031D0001D48006820F470401B49086008460068DC
:1031E00040F44050086000BF002210211648FEF74E
:1031F00057FC00BF002524E000BFE00928B10122F0
:1032000008211148FEF74CFC04E0002208210E487A
:10321000FEF746FC00BF6006040E00BF012210212D
:103220000948FEF73DFC00BFFFF760FF00BF00222A
:1032300010210548FEF734FC00BFFFF757FF681C5C
:10324000C5B2082DD8DB70BD000C014010B5164882
:10325000006820F47040144908600846006840F493
:103260004050086000BF012208210F48FEF718FCFB
:1032700000BF00BF012210210B48FEF711FC00BF68
:10328000FFF734FF00BF002208210748FEF708FCC3
:1032900000BFFFF72BFF00BF002210210248FEF7FE
:1032A000FFFB00BF10BD0000000C014010B5164828
:1032B000006820F47040144908600846006840F433
:1032C0004050086000BF002210210F48FEF7E8FBC5
:1032D00000BF00BF002208210B48FEF7E1FB00BF42
:1032E000FFF704FF00BF012210210748FEF7D8FBBB
:1032F00000BF00BF012208210348FEF7D1FB00BF39
:10330000FFF7F4FE10BD0000000C014010B50024D2
:103310001A48006820F470401849086008460068A0
:1033200040F40040086000BF012208211348FEF766
:10333000B7FB00BFFFF7DAFE00BF012210210F48E4
:10334000FEF7AEFB00BFFFF7D1FE07E0601CC4B282
:10335000FA2C03DDFFF7AAFF012010BD0821074862
:10336000FEF78CFB0028F1D100BF0022102103489A
:10337000FEF796FB00BF0020EFE70000000C0140C5
:1033800010B5FFF7B8FE80216B2000F0D7F864205D
:1033900001F070FD00216B2000F0D0F8032000F058
:1033A0008BF8002000F080F8642000F0AAF80021DB
:1033B000382000F0C3F800216A2000F0BFF8002197
:1033C000232000F0BBF88021372000F0B7F87520EB
:1033D00000F013F80446682C0BD101216B2000F09B
:1033E000ADF800216C2000F0A9F8642000F089F805
:1033F00001E0012010BD0020FCE770B50446FFF796
:1034000025FFD020FFF7E2FEFFF780FF2046FFF701
:10341000DDFEFFF77BFFFFF719FFD120FFF7D6FE98
:10342000FFF774FF0020FFF797FE0546FFF73EFF0A
:10343000284670BD2DE9F04106460F4614461D464C
:10344000FFF704FF002141EA4601C8B2FFF7BEFEC4
:10345000FFF75CFF20B1FFF729FF0120BDE8F081F5
:103460003846FFF7B3FEFFF751FFFFF7EFFE0121EC
:1034700001EB4601C8B2FFF7A9FEFFF747FF0DE0D9
:10348000012C04D10020FFF767FE287003E0012023
:10349000FFF762FE2870601EC4B26D1C002CEFD1D5
:1034A000FFF704FF0020D9E710B50446E006010E3F
:1034B0001C2000F043F810BD10B50446E006010ED4
:1034C0001B2000F03BF810BD70B504460025BC2C55
:1034D00001DB012510E0622C01DB02250CE02A2C27
:1034E00001DB032508E0142C01DB042504E00A2C91
:1034F00001DB052500E0062529461A2000F01EF80C
:1035000070BD70B50446B4F57A7F01DD4FF47A746E
:10351000042C00DA04244FF47A7090FBF4F0401E7F
:10352000C5B22946192000F009F80546264604EBE5
:10353000D671C1F34F00FFF7C7FF70BD70B50546E8
:103540000C46FFF783FED020FFF740FEFFF7DEFEBC
:1035500018B1FFF7ABFE012070BD2846FFF736FE1D
:10356000FFF7D4FE2046FFF731FEFFF7CFFE18B17C
:10357000FFF79CFE0120EFE7FFF798FE0020EBE746
:103580002DE9F04105460E4617469846FFF75EFEC8
:10359000002141EA4501C8B2FFF718FEFFF7B6FE69
:1035A00020B1FFF783FE0120BDE8F0813046FFF730
:1035B0000DFEFFF7ABFE00240CE018F80400FFF747
:1035C00005FEFFF7A3FE18B1FFF770FE0120EBE741
:1035D000601CC4B2BC42F0DBFFF768FE0020E3E7EA
:1035E00000B585B00020019002900390049000BFC8
:1035F0004E48806940F010004C4988610846806957
:1036000000F01000009000BF00BF00BF08468069B6
:1036100040F0200088610846806900F0200000909A
:1036200000BF00BF00BF0846806940F00400886109
:103630000846806900F00400009000BF00BF00BF92
:103640000846806940F0080088610846806900F0FB
:103650000800009000BF00BF00224FF40051344822
:10366000FEF71EFA00224FF473413248FEF718FAB3
:1036700000224FF400413048FEF712FA01221821CF
:103680002C48FEF70DFA4FF40050019001200290F3
:10369000002003900320049001A92548FEF75EF85E
:1036A0004FF21800019001200290002003900320A7
:1036B000049001A91F48FEF751F84FF48050019083
:1036C0001E4802900020039001A91B48FEF746F80F
:1036D0004FF400400190012002900020039003204D
:1036E000049001A91448FEF739F8202001901448ED
:1036F00002900120039001A90E48FEF72FF84FF425
:10370000407001901120029000200390032004904B
:1037100001A90848FEF722F8002202212820FEF71E
:103720004FFA2820FEF73CFA05B000BD0010024019
:1037300000100140000C0140000801400000311061
:103740000000211000B591B000200F9010901C21B6
:1037500008A8FCF7C3FE20216846FCF7BFFE2748F7
:10376000274908600020486000212548816041F613
:103770001F41C16000210161416180218161FFF72A
:1037800065F908B1FDF75EFF00200F9010900FA9BA
:103790001B48FEF723FE08B1FDF754FF6020089098
:1037A000002009900A900B900C900D900E90002232
:1037B00008A91348FFF7CCF808B1FDF743FF0C2226
:1037C00008A90F48FFF7C4F808B1FDF73BFF002038
:1037D000009001900290039004904FF400500590E7
:1037E0000020079069460648FEF7BEFD08B1FDF7C8
:1037F00029FF0348FFF780F811B000BD002C0140FD
:103800000801002000B58BB0242102A8FCF766FE59
:103810000020009001904FF080401849086000207F
:1038200048600021154881604FF6FF71C16000219A
:103830000161816103200290002003900120049027
:10384000002005900A200690002007900120089093
:10385000002009900A9002A90848FEF720FF08B14D
:10386000FDF7F0FE00200090019069460348FEF746
:10387000B5FD08B1FDF7E6FE0BB000BD500100201C
:1038800000B587B000200390049005900690019049
:1038900002901448144908604720486000211248EB
:1038A00081604FF6FF71C160002101618161FEF707
:1038B000D7FD08B1FDF7C6FE4FF48050039003A971
:1038C0000948FEF768FE08B1FDF7BCFE0020019034
:1038D000029001A90448FEF781FD08B1FDF7B2FE90
:1038E00007B000BD000400409801002000B58BB077
:1038F000242102A8FCF7F2FD002000900190194855
:1039000019490860002048600021174881604FF67F
:10391000FF71C160002101618161032002900020DC
:10392000039001200490002005900A2006900020BA
:10393000079001200890002009900A9002A90A48E7
:10394000FEF7ADFE08B1FDF77DFE0020009001906E
:1039500069460548FEF742FD08B1FDF773FE0BB05E
:1039600000BD000000080040E001002010B50B4839
:103970000B4908604FF4E13048600021084881603D
:10398000C16001610C21416100218161C161FFF7CA
:10399000BFF908B1FDF756FE10BD00000038014028
:1039A0002802002010B50B480B4908604FF4E130A5
:1039B0004860002108488160C16001610C214161BB
:1039C00000218161C161FFF7A3F908B1FDF73AFE5B
:1039D00010BD0000004800406802002000BFFEE764
:1039E00000BFFEE770B500240CE0002506E00020D3
:1039F000074901EBC5010855681CC5B2802DF6DBEF
:103A0000601CC4B2082CF0DB00F0D4F870BD0000DC
:103A1000A802002010B504461CB90021A62000F021
:103A2000C0F9012C03D10021A72000F0BAF910BD84
:103A300010B504463CB90021C82000F0B2F90021BD
:103A4000A12000F0AEF9012C07D10021C02000F028
:103A5000A8F90021A02000F0A4F910BDF0B514468B
:103A60000B46CF1701EB5777C7F3C702CF1701EB10
:103A70005777FF10A1EBC707FEB20123B340DDB2B9
:103A80004CB1134B03EBC0039B5C2B43104F07EB74
:103A9000C007BB541AE00E4B03EBC0039B5CDB4337
:103AA0000B4F07EBC007BB54094B03EBC0039B5CF8
:103AB0002B43074F07EBC007BB54054B03EBC00379
:103AC0009B5CDB43024F07EBC007BB54F0BD00001B
:103AD000A802002010B5C820FDF710FE0021AE207E
:103AE00000F05FF90021084600F05BF9002110208A
:103AF00000F057F90021402000F053F90021812007
:103B000000F04FF90021CF2000F04BF90021A12057
:103B100000F047F90021C82000F043F90021A62059
:103B200000F03FF90021A82000F03BF900213F20E0
:103B300000F037F90021D32000F033F900210846C6
:103B400000F02FF90021D52000F02BF90021802072
:103B500000F027F90021D92000F023F90021F120FD
:103B600000F01FF90021DA2000F01BF900211220DB
:103B700000F017F90021DB2000F013F900213020BC
:103B800000F00FF90021202000F00BF900210220A5
:103B900000F007F900218D2000F003F90021142026
:103BA00000F0FFF8FFF71EFF0021AF2000F0F9F84A
:103BB00010BD000070B500242BE004F1B001C8B2C4
:103BC000002100F0EEF80021084600F0EAF800219C
:103BD000102000F0E6F8FFF7B1F9782000F014F9B2
:103BE000FFF7E2F9402000F00FF9FFF7DDF90025BB
:103BF00009E0094901EBC501085D00F005F9FFF78F
:103C0000D3F9681CC5B2802DF3DBFFF7B7F9601C50
:103C1000C4B2082CD1DB70BDA80200202DE9FE4FF4
:103C20000746884692461C460197CDF80080082C2E
:103C300002D14FF006091FE02046E31704EB53734F
:103C4000DB1021464FEAE47C04EB5C7C4FEAEC0C91
:103C5000A4EBCC0CBCF1000F02D04FF0010C01E042
:103C60004FF0000C6344224604EBD27C4FEA6C0C0C
:103C700003FB0CF303F0FF09AAF12000C6B20025F4
:103C80005EE0082C07D106EB46002F4901EB40000F
:103C900010F805B01DE00C2C07D106EB46002B49AF
:103CA00001EB800010F805B013E0102C05D1284876
:103CB00000EB061010F805B00BE0182C07D106EB4E
:103CC000C600244901EB800010F805B001E0BDE812
:103CD000FE8F002002901CE00BF0010028B141464D
:103CE00038460C9AFFF7BAFE09E00C9808B9012093
:103CF00000E00020024641463846FFF7AFFE4FEA9B
:103D00006B0B08F1010000F0FF080298401CC0B2E4
:103D1000029002980828DFDB781CC7B2082C0BD071
:103D200004EBD4714A100199791A8A4204D1019F97
:103D300000980830C0B20090DDF80080681CC5B261
:103D40004D459EDB00BFC2E74E8F0008769100080C
:103D5000EA950008DA9B00082DE9F84106460F466F
:103D600014461D46DDF81C8013E0CDF80080227853
:103D70002B4639463046FFF751FF082D02D1B01DC2
:103D8000C6B205E0284605EBD07106EB6101CEB264
:103D9000641C2078202802DB20787E28E5DDBDE841
:103DA000F88170B505460C46FFF7C8F8782000F09A
:103DB0002BF8FFF7F9F81CB1402000F025F802E0DD
:103DC000002000F021F8FFF7EFF8284600F01CF87B
:103DD000FFF7EAF8FFF7D2F870BD704708B5084959
:103DE0000968C9084FF47A72B1FBF2F141430091BE
:103DF00000BF00BF00994A1E00920029F9D108BDFA
:103E00000C0000207047000070B50446002521E03A
:103E100004F0800028B1012251021048FDF740FE55
:103E200005E000224FF400710C48FDF739FEFFF762
:103E3000D5F8012211020948FDF732FEFFF7CEF84E
:103E400000224FF480710548FDF72AFE6006040E3B
:103E5000681CC5B2082DDBDB70BD0000000C014002
:103E600010B5FDF729FE10BD00B58FB0282105A8BB
:103E7000FCF734FB14216846FCF730FB0120059069
:103E800000040690002007900120099002200C9069
:103E9000C1030D914FF4E0110E9105A8FEF718F83B
:103EA00008B1FDF7CFFB0F20009002200190002009
:103EB00002904FF480600390002004900221684635
:103EC000FDF7D0FE08B1FDF7BDFB0FB000BD704798
:103ED00010B50268184B984208D0B0F1804F05D059
:103EE000164B984202D0164B984203D122F0700232
:103EF0004B681A43104B984208D0B0F1804F05D060
:103F00000E4B984202D00E4B984203D122F44072DD
:103F1000CB681A4322F080034C6943EA0402026032
:103F20008B68C3620B688362034B984201D10B69B3
:103F300003630123436110BD002C014000040040D5
:103F40000008004030B501F01F05012404FA05F314
:103F5000046A9C430462046A01F01F0502FA05F535
:103F60002C43046230BD30B50C46816821F47F419A
:103F700042EA032525432943816030BD0A46816812
:103F800021F0700142F0070319438160704700007F
:103F900030B5056A25F001050562026A4368846947
:103FA00024F0700424F003040D682C4322F0020274
:103FB0008D682A430D4DA84206D100BF22F00802A9
:103FC000CD682A4322F00402084DA84207D123F409
:103FD000807323F400734D692B438D692B43436039
:103FE00084614D684563026230BD0000002C0140D1
:103FF00030B5056A25F010050562026A43688469D8
:1040000024F4E04424F440740D6844EA052422F0CA
:1040100020028D6842EA05120E4DA84207D100BF6A
:1040200022F08002CD6842EA051222F04002094DDA
:10403000A84209D123F4806323F400634D6943EA65
:1040400085038D6943EA8503436084614D68856318
:10405000026230BD002C014030B5056A25F4807540
:104060000562026A4368C46924F0700424F0030402
:104070000D682C4322F400728D6842EA05220F4D30
:10408000A84207D100BF22F40062CD6842EA0522AF
:1040900022F48062094DA84209D123F4805323F40D
:1040A00000534D6943EA05138D6943EA05134360E4
:1040B000C4614D68C563026230BD0000002C014040
:1040C00030B5056A25F480550562036A4468C26903
:1040D00022F4E04222F440720D6842EA052223F401
:1040E00000538D6843EA0533064DA84204D124F4F9
:1040F00080444D6944EA85144460C2614D6805649A
:10410000036230BD002C014030B50B461446026AF4
:10411000056A25F001050562816921F0F00141EA97
:10412000041122F00A021A438161026230BD30B5E7
:104130000B461446056A25F0100505628169026A7E
:1041400021F4704141EA043122F0A00242EA031254
:104150008161026230BD70B505466C6A0020E08561
:10416000E0842046FEF728FD70BD0168C96821F48F
:1041700090710268D1600168496921F0010102680B
:104180005161202180F83A10704710B5044620682C
:10419000C06820F040002168C860202084F8390001
:1041A0002046FEF7C7FE002010BD70B5044694F807
:1041B0003A00222847D1A068B0F5805F0CD1206971
:1041C00050B90025A66A20684068C0F30800308016
:1041D000A06A801CA06215E0A56A0026A068B0F560
:1041E000805F03D0A06828B9206918B920684068AA
:1041F000287004E02068406800F07F002870A06A02
:10420000401CA062E08D401E80B2E085C8B92068E5
:10421000C06820F020002168C8602068C06820F4D1
:1042200080702168C8602068406920F00100216822
:104230004861202084F83A002046FEF767FE0020FF
:1042400070BD0020FCE70220FAE7000070B50446CC
:104250002168096921F44051E26811432268116123
:104260002269A1681143626941EA02052168C968AF
:1042700041F20C62914329432268D1602168496967
:1042800021F44071A2691143226851612D4A2168CD
:10429000914202D1FDF7C2FD01E0FDF7AFFD00EB59
:1042A000C00101EB001162689200B1FBF2F100EB7A
:1042B000C00202EB001263689B00B2FBF3F26423BE
:1042C000B2FBF3F202EBC20303EB0212A1EB820199
:1042D000322202EB01116422B1FBF2F101F0F00194
:1042E00000EBC00202EB001263689B00B2FBF3F22A
:1042F0006423B2FBF3F201EB021200EBC00101EB0D
:10430000001163689B00B1FBF3F100EBC00303EB0A
:1043100000136668B600B3FBF6F36426B3FBF6F34E
:1043200003EBC30606EB0313A1EB8301322303EB7C
:1043300001116423B1FBF3F101F00F011144226874
:10434000916070BD00380140014691F83900212884
:1043500028D18868B0F5805F0BD1086948B90A6A2E
:104360001088C0F308000B685860086A801C086257
:1043700005E00B6A581C086218780B685860C88CF6
:10438000401E80B2C88458B90868C06820F0800018
:104390000B68D8600868C06840F040000B68D860BF
:1043A000002070470220FCE710B50248FEF706FC2B
:1043B00010BD00002802002010B50248FEF7FEFBE9
:1043C00010BD00006802002000BFFEE7490050EA6F
:1043D000C12018BF04204A0D18BF40F0010040F270
:1043E000FF72B2EB515F08BF40F00200012808BF26
:1043F0000520704702480068C0F3022070470000A3
:104400000CED00E010B5002804DB0A07130E054A86
:10441000135406E00A07140E034A00F00F031B1F93
:10442000D45410BD00E400E018ED00E02DE9F041A7
:104430004F1E00EBC7010446D1E9000115461E4698
:1044400037F006020DD02A46334603F077FE7F1E72
:1044500004EBC703D3E9002303F00CFC37F006029A
:10446000F1D1022F25D0042F13D0062F18BFBDE89D
:10447000F0812A46334603F061FED4E90A2303F0B3
:10448000F9FB2A46334603F059FED4E9082303F02A
:10449000F1FB2A46334603F051FED4E9062303F02C
:1044A000E9FB2A46334603F049FED4E9042303F02E
:1044B000E1FB2A46334603F041FED4E9022303F030
:1044C000D9FB2A46334603F039FED4E90023BDE880
:1044D000F04103F0CFBB012204F0E7BC03F0CABBFC
:1044E000002213461046114603F080BC024A002009
:1044F000110704F0DABC000001FDFFFF30380A2884
:1045000001D2012070470020704700BF70470000B3
:104510002DE9FE4F06460F460025684601F0C8FA11
:10452000002442E056F8240057F82410A0EB010ABA
:10453000BAF1000F01DB514601E0CAF10001084663
:1045400004F0A2FA83464FF08F4104F06BF98046E5
:104550005DF82400002104F027FA16D05DF824103D
:10456000404604F05FF982464FF07E5104F0F4FBC0
:10457000814629F0004A0F48416A504604F0B0FBDA
:1045800012D20120A04005430EE00A48C16940460E
:1045900004F0A6FA05D30748016A404604F0A0FBE0
:1045A00002D20120A0400543641C032CBADB28463C
:1045B000BDE8FE8F88AD00082DE9F04D8D4F21F04C
:1045C000004A86B005460C46BA452ADBAAEB07002E
:1045D00028430AD08848824501DC1AD1CDB106B003
:1045E0002846BDE8F04DFFF776BF844A844B284645
:1045F00003F0A4FD07460E46824A834B2846214617
:1046000003F09CFD06B03A463346BDE8F04D03F09A
:1046100031BB0120FCF709F806B0BDE8F04DFFF70B
:104620005FBF7A48824542DABAF1795F0BDA2846F1
:10463000FFF7CCFE042808BFFFF758FF284606B056
:104640002146BDE8F08D2A460B46104603F076FD64
:10465000834602466E480E460B4606217844FFF715
:10466000E5FE5A46334603F069FD804669488A46AE
:104670005A46334604217844FFF7D8FE5A4633465B
:1046800003F05CFD00223B4603F0F4FA02460B46C1
:104690004046514603F0AAFB2A46234603F04EFD4E
:1046A00006B02A462346BDE8F04D03F0E3BA28469B
:1046B00024F0004100223D463B4603F03DFE4FF012
:1046C000FF3204F0F2FB0646024653480F460B4603
:1046D00006217844FFF7AAFE32463B4603F02EFD42
:1046E000CDE900014D4832463B4604217844FFF7AE
:1046F0009DFE32463B4603F021FD00222B4603F08F
:10470000B9FA834602913046394603F081F8804673
:1047100043480D46504517DCDDE900015A46029B2F
:1047200003F064FB42462B4603F008FD42462B464D
:1047300003F0A0FA012204F0B8FB304A304B03F03A
:10474000EDFE304A304B4CE04FF0000A52460B462B
:10475000404603F08FFACDE9031052462B4610462F
:10476000194603F0EBFC32463B4603F0E5FDDDE97C
:10477000033203F03BFB06460F46DDE900015A46D3
:10478000029B03F033FB83460091012230463946F9
:1047900004F08BFB194A1A4B03F0CEFD06460F4678
:1047A00001224046294604F080FB5A46009B03F054
:1047B000C5FC32463B4603F0B1FE06460F460122D9
:1047C0005046294604F071FB0E4DDFF858802A460A
:1047D000434603F0B1FD32463B4603F0ADFD2A46A9
:1047E000434603F0A9FD002CD8BF81F0004106B07C
:1047F000BDE8F08D0000F03F0000F07F075C14334F
:1048000026A6913C182D4454FB21F93F0000E03FBF
:10481000587300006E730000E2720000F87200002E
:104820003333EF3FFB21E93F2DE9F84F04460D46B6
:1048300021F0004000917349814211DC72498842A5
:1048400001DC06D12CB120462946BDE8F84FFFF720
:1048500042BE6E48002DCCBF6D496E49BDE8F88F51
:104860006D49814211DD6D498142D8BF4FF0FF365D
:104870006DDD20462946FFF7A9FD042808BFFFF794
:1048800035FE20462946BDE8F88F6549654F25F07D
:104890000045814233DD6449814219DD00263246FC
:1048A0004FF080432046294603F0E4F980468A46CB
:1048B00001222046294604F0F8FA00223B4603F084
:1048C0002DFE4246534603F091FA04460D463EE063
:1048D00001260022BA463B462046294603F0CAF983
:1048E00080460F46002253462046294603F016FE16
:1048F00042463B4603F07AFA04460D4627E04B4910
:1049000081421BDDDFF828A1022600225346204603
:10491000294603F013FC00223B4603F0ABF9804626
:104920000F46002253462046294603F0F7FD424633
:104930003B4603F05BFA04460D4608E00326224698
:104940002B4600203B4903F051FA04460D4622460F
:104950002B461046194603F0F1FB8B468246024671
:104960000B4603F0EBFB07460246334888460B46EE
:1049700006217844FFF75AFD52465B4603F0DEFB02
:1049800082462E488B463A46434605217844FFF737
:104990004DFD3A46434603F0D1FB02460B46002E3E
:1049A000504659460CDA03F065F922462B4603F0CF
:1049B000C5FB01B022462B46BDE8F04F03F0BCBC5E
:1049C00003F058F922462B4603F0B8FB1C4A7A4400
:1049D00002EBC603D3E9002303F0A0FD22462B46D9
:1049E00003F09CFD174A7A4402EBC603D3E9002387
:1049F00003F0A2FC009A002AB8BF81F00041BDE894
:104A0000F88F0000000010440000F07F182D44547F
:104A1000FB21F93FFB21F9BF0000DC3F0000203EF5
:104A20000000F33F0000F03F0000E63F008003403D
:104A30000000F83F0000F0BFFA700000B8700000FE
:104A4000567000001E7000002DE9F04D9446CCF128
:104A5000000423F000464CEA0404594F46EAD4749B
:104A60009A46884621F00042BC4206D8454240EAB8
:104A7000050442EAD474BC4204D9BDE8F04D624654
:104A8000FFF72CBDAAF14055A5F17F6555EA0C044E
:104A90000BD0022404EAAA744A4DDFF82CE144EA60
:104AA000D87452EA000B04D00CE0BDE8F04DFFF7DB
:104AB000BBBE002C14BF012CBDE8F08D022C30D001
:104AC000032C32D056EA0C0B0AD0BE4220D1BA4297
:104AD00009D126F0804622F080423346114617E085
:104AE00000291ADB25E0DFF8E4B0FB44002C04BF0A
:104AF000DBE90001BDE8F08D012C02BFDBE900011C
:104B000081F00041BDE8F08D022C0AD0032C0CD0BE
:104B1000BA4212D1B8F1000F0BDA2A482C49BDE88D
:104B2000F08D28462B49BDE8F08D28467146BDE83A
:104B3000F08D24482849BDE8F08D921B12153C2ABF
:104B4000C4BF204F244E10DCBAF1000FBEBF12F1DB
:104B50003C0F00273E4608DB624603F047F921F090
:104B60000041FFF761FE07460E4694B1012C08BFD5
:104B700086F000460DD0194A194B022C38463146B2
:104B800015D003F0CBFC2A46BDE8F04D114B03F0E5
:104B9000C5BC002213463846314603F07FFA04BFF5
:104BA0000220FBF742FD38463146BDE8F08D03F0A8
:104BB000B5FC2A46BDE8F04D064B03F0BDBB000036
:104BC0000000F07F182D4454FB2109C0B26F000093
:104BD000FB21F9BFFB210940FB21F93F075C14339E
:104BE00026A6A13C2DE9F0416A4802F05BFD404257
:104BF00069490860694802F055FD69490860694AD9
:104C000069496A4801F05AFC694A6A496A48FEF7EC
:104C100015FA6A4A6A496B48FEF7E8F96A4800786B
:104C200028B96A48007810B90020694908606648C8
:104C30000078012804D1664800680A306449086099
:104C400062480078012804D1614800680A38604948
:104C500008605F48006840F22621884201DD08466E
:104C600008E05B4800685B49884201DA084601E0D9
:104C700057480068564908605748007828B957488F
:104C8000007810B900205649086053480078012880
:104C900004D1534800680A38514908604F480078E9
:104CA000012804D14E4800680A304D4908604C483C
:104CB0000068642801DD642009E04948006810F1BB
:104CC000640F02DA6FF0630001E045480068444970
:104CD00008604148007830B94048007818B9414828
:104CE000414908600AE03C480078012803D03B486D
:104CF0000078012802D100203B490860284802685A
:104D0000254801683248006802F0D0FE3749086043
:104D10002948B0F9000003F0B7FE064633480068A2
:104D200003F0B2FE074632480168384603F00CFD36
:104D3000054632461C480168284602F02FFF2D49DF
:104D400008601B48B0F9000003F09EFE05462448A9
:104D50000168284602F0D4FD274908602548046808
:104D600008460068201A2549086023480068204446
:104D700023490860214801F0EFF9214801681F48E4
:104D8000006801F007FA0849194802F09DFDBDE8E6
:104D9000F081000050010020A4000020E00100206C
:104DA000A80000201C000020180000201400002093
:104DB0002A000020280000202600002024000020D7
:104DC00022000020200000207C0000207D00002028
:104DD000C0000020DAFDFFFF7E0000207F000020E1
:104DE000C40000209A9999BE9C000020AC000020CD
:104DF00084000020B0000020B4000020B800002093
:104E0000BC0000202DE9F0410446E07800F0C00627
:104E1000E07800F03F05607800F0010098B1EF10F5
:104E20002846E91705EB5171C910A5EBC101491CD2
:104E300001F0FF080B48006820B10A4841460268AB
:104E40003846904700BF607800F0080030B1054850
:104E5000406818B1B011034A516888470020BDE886
:104E6000F081000028070020014908607047000019
:104E70001000002010B504464FF47A7104FB01F0D5
:104E800000F002F810BD000070B5034600224FF09C
:104E9000E02675690D4E366803FB06F44FF0E026F8
:104EA000B16910E04FF0E026B06988420BD088422B
:104EB00002D20E1A324402E02E1A0E443244014647
:104EC000A24200D300E0EDE700BF70BD100000205B
:104ED00038B5044664B120208DF8000028208DF8F4
:104EE000010030208DF8020038208DF8030004E026
:104EF000A32204216846FBF7E9FA6A46042140F63A
:104F00009E2002F08FFB01F079FF38BD3EB50446CC
:104F100002208DF80000CA208DF80100E3208DF8F2
:104F2000020009208DF803006A460421682002F07F
:104F300079FBA3208DF8000004F0400048B1C020A8
:104F40008DF80100C8208DF80200C2208DF8030002
:104F500006E0A3208DF801008DF802008DF8030013
:104F600004F4C07048B1C4208DF80400CC208DF842
:104F70000500C6208DF8060006E0A3208DF8040089
:104F80008DF805008DF80600A3208DF807008DF838
:104F900008008DF809006A460A2140F6A72002F0B1
:104FA00041FB04F0030018B120208DF8000002E05E
:104FB000D8208DF800006A46012140F6B62002F0A4
:104FC00031FB04F0200018B1012000F0ADF802E040
:104FD000002000F0A9F804F4C07008B304F4807055
:104FE00060B1B2208DF800008B208DF80100B62052
:104FF0008DF802009B208DF803000BE0B0208DF8A7
:10500000000080208DF80100B4208DF8020090206F
:105010008DF803006A46042140F6A22002F002FB4C
:1050200004F0010020B3F8208DF800006A46012149
:105030004FF40B6002F0F6FAFA21072000F02CFC86
:10504000072000F0F3FB012000F013FC642000F0C7
:10505000F3FC4FF4FA7000F002FDC821304800F074
:10506000A3FB282000F0BCFB0A2000F0CCFB08E0EA
:10507000D8208DF800006A4601214FF40B6002F041
:10508000D1FA04F0020018B1D9208DF8000002E036
:10509000D8208DF800006A46012140F23D7002F0F0
:1050A000C1FA04F0040018B1012000F069F802E030
:1050B000002000F065F804F0100018B10120FFF79F
:1050C00007FF02E00020FFF703FF44F00800154946
:1050D000488101F093FE00201249887304F04000DB
:1050E00018B10846807B801D887304F4C07020B11D
:1050F0000C48807B801D0B49887304F0140020B19C
:105100000848807B10300749887304F0030020B101
:105110000448807B001D0349887300203EBD0000C9
:1051200009E3CA02280700203EB504466CB10EA16F
:10513000D1E900208968CDE9002002916A46092161
:105140004FF4976002F06EFA3EBD0AA2D2E9001059
:105150009268CDE9010200916A4609214FF49760F7
:1051600002F060FAF0E70000B8AAB38DB4980D35EC
:105170005D000000B8AAAAAAB088C3C5C700000095
:1051800038B5044664B1C0208DF80000C2208DF807
:105190000100C4208DF80200C6208DF8030004E051
:1051A0008B2204216846FBF791F96A46042140F6F8
:1051B000982002F037FA01F021FE38BD10B5C8235F
:1051C0004FF48062024940F6F63001F0ABFC10BDAE
:1051D000B0AD00082DE9F04F8DB007468846154662
:1051E0009946DDE9166B0024002030806B49887BEE
:1051F0005A4605A901F062FD18B1601E0DB0BDE868
:10520000F08F6648807A00F01400002867D09DF87F
:10521000140000069DF8151040EA01409DF8161094
:1052200040EA01209DF81710084328609DF81800F7
:1052300000069DF8191040EA01409DF81A1040EA56
:1052400001209DF81B10084368609DF81C000006B3
:105250009DF81D1040EA01409DF81E1040EA012013
:105260009DF81F100843A8609DF8200000069DF8D7
:10527000211040EA01409DF8221040EA01209DF8EB
:1052800023100843E86004F11000C4B22868001439
:105290000190686800140290A86800140390E86800
:1052A0000014049001984043029901FB0100039906
:1052B00001FB0100049901FB010ABAF1706F02DBE6
:1052C000BAF1885F05DD01F099FD00203080401EB5
:1052D00094E7B6F9000040F48070308000BF2F489A
:1052E000807A00F0400020B305A9601C085C095DCD
:1052F00040EA012000B2A8F8000005A9E01C095C02
:1053000005AAA01C105C41EA002000B2A8F8020027
:1053100005A9601D095C201D105C41EA002000B257
:10532000A8F80400A01DC4B2B6F9000040F00800BF
:1053300030801A48408900F4C07008B305A9601C89
:10534000085C095D40EA012000B2388005A9E01C34
:10535000095C05AAA01C105C41EA002000B278801C
:1053600005A9601D095C201D105C41EA002000B207
:10537000B880A01DC4B2B6F9000040F070003080C3
:105380000648807A00F0030018B105A90819FFF754
:1053900039FD484601F058F800202FE72807002083
:1053A00070B588B0064601A801F010FABDF80400F7
:1053B0000021C90341EA5045C4034448007A00F083
:1053C000030056F8200005904048007A00F00400E1
:1053D00010B10598404205903C48007AC0F3C100E6
:1053E00056F8200006903948007A00F0200010B1ED
:1053F0000698404206903548007AC0F3811056F86E
:10540000200007903148008900F4807010B107989F
:10541000404207900598C117A0FB042301FB04310B
:1054200000FB0510810041EA927005900698C117B3
:10543000A0FB042301FB043100FB0510810041EABD
:10544000927006900798C117A0FB042301FB04315A
:1054500000FB0510810041EA927007900598000E4C
:105460008DF808000598000C8DF809000598000AD1
:105470008DF80A000598C0B28DF80B000698000E52
:105480008DF80C000698000C8DF80D000698000AA7
:105490008DF80E000698C0B28DF80F000798000E28
:1054A0008DF810000798000C8DF811000798000A7D
:1054B0008DF812000798C0B28DF8130002AA0C21D3
:1054C0004FF4257002F0AEF808B070BD2807002038
:1054D00030B585B0044616A207CA02AB07C3C82C74
:1054E00003DD4FF0FF3005B030BDC82090FBF4F075
:1054F000401E85B2280A8DF80000E8B28DF8010040
:105500006A46022140F2162002F08CF810B14FF0EA
:10551000FF30E8E702AA0C2140F6C12002F082F831
:1055200010B14FF0FF30DEE7044884810020DAE755
:10553000FEF2ABC4AAF1DFDFBBAFDFDF280700203C
:105540001FB504464848007A00F0030054F82000D4
:1055500001904548007A00F0040010B101984042E3
:1055600001904148007AC0F3C10054F82000029035
:105570003D48007A00F0200010B1029840420290AD
:105580003948007AC0F3811054F82000039036485F
:10559000008900F4807010B10398404203903349B1
:1055A000019880FB0101800F40EA810001902F49A2
:1055B000029880FB0110820042EA917002902B4910
:1055C000039880FB0110820042EA917003900198D9
:1055D000000E8DF800000198000C8DF80100019874
:1055E000000A8DF802000198C0B28DF803006A46E7
:1055F00004214FF4747002F015F818B14FF0FF3029
:1056000004B010BD0298000E8DF800000298000C46
:105610008DF801000298000A8DF802000298C0B2CD
:105620008DF803006A4604214FF4757001F0FAFF0B
:1056300010B14FF0FF30E3E70398000E8DF8000043
:105640000398000C8DF801000398000A8DF8020001
:105650000398C0B28DF803006A4604214FF47670B7
:1056600001F0E0FFCCE700002807002009E3CA02B0
:1056700010B586B0044647A00068039046A00068B5
:10568000029046A00068019045A00068009004F0D8
:10569000030003A9085C8DF8140003A8C4F3C1013A
:1056A000405C8DF8150003A8C4F38111405C8DF8AF
:1056B000160004F0030002A9085C8DF8100002A88F
:1056C000C4F3C101405C8DF8110002A8C4F381113C
:1056D000405C8DF8120005AA032140F2264001F03B
:1056E000A1FF18B14FF0FF3006B010BD04AA03218E
:1056F00040F22A4001F096FF10B14FF0FF30F3E77F
:10570000019805900098049004F0040058B19DF8A9
:10571000140040F001008DF814009DF8100040F0D6
:1057200001008DF8100004F0200058B19DF815001C
:1057300040F001008DF815009DF8110040F00100C7
:105740008DF8110004F4807058B19DF8160040F0F7
:1057500001008DF816009DF8120040F001008DF850
:10576000120005AA03214FF4886001F05BFF10B11D
:105770004FF0FF30B8E704AA032140F2314001F0B6
:1057800051FF10B14FF0FF30AEE706480481002012
:10579000AAE700004CCD6C000CC92C0036567600F0
:1057A0002646660028070020F8B505460E464FF449
:1057B0007A7095FBF0F000FB06F4200E8DF80000E7
:1057C000200C8DF80100200A8DF80200E0B28DF85F
:1057D00003006A4604214FF4AE7001F023FFF8BDC8
:1057E00038B50446052094FBF0F084B220128DF801
:1057F0000000E0B28DF801006A4602214FF4AD705E
:1058000001F010FF38BD38B50446052094FBF0F0D8
:1058100084B220128DF80000E0B28DF801006A46D3
:1058200002214FF4AC7001F0FDFE38BD38B50446DE
:105830000020009004F0010020B19DF8000040F02D
:105840003000009004F0020020B19DF8000040F00C
:105850000C00009004F0040020B19DF8000040F01E
:10586000030000906A4601214FF4A47001F0DAFEB3
:1058700038BD38B50446012C01DA012402E0042CBD
:1058800000DD0424601EC0B200906A46012140F28F
:105890004F1001F0C7FE38BD2DE9FC4706460F4604
:1058A00006F0070010B1B7F5C86F03DD4FF0FF3009
:1058B000BDE8FC87384603F0FFF88146594902F0FD
:1058C000B1FF8046684600F05BFF9DF800000228AB
:1058D00006D0042816D0082826D0102848D135E054
:1058E0004FF08D41404603F02FF9814603F0ACF8AC
:1058F00084B24D49404603F027F9814603F0A4F8ED
:1059000085B238E04FF08C41404603F01DF98146E6
:1059100003F09AF884B24549404603F015F98146F0
:1059200003F092F885B226E04FF08B41404603F039
:105930000BF9814603F088F884B23D49404603F0F4
:1059400003F9814603F080F885B214E04FF08A41F4
:10595000404603F0F9F8814603F076F884B2354901
:10596000404603F0F1F8814603F06EF885B202E09C
:105970004FF0FF309CE700BF20128DF80400E0B22A
:105980008DF8050028128DF80600E8B28DF80700A2
:1059900006F00100A0B101AA02214FF4EA7001F063
:1059A00041FE10B14FF0FF3082E70DF106020221F7
:1059B0004FF4927001F036FE10B14FF0FF3077E7F0
:1059C00006F00200A0B101AA02214FF4EC7001F030
:1059D00029FE10B14FF0FF306AE70DF106020221F7
:1059E0004FF4947001F01EFE10B14FF0FF305FE7EE
:1059F00006F00400A0B101AA02214FF4EE7001F0FC
:105A000011FE10B14FF0FF3052E70DF106020221F6
:105A10004FF4967001F006FE10B14FF0FF3047E7EB
:105A2000002045E700004843000040460000C04514
:105A3000000040450000C04438B50446052094FBF2
:105A4000F0F085B228128DF80000E8B28DF8010060
:105A50006A4602214FF4EF7001F0E4FD38BD38B51D
:105A60000446052094FBF0F085B228128DF8000062
:105A7000E8B28DF801006A4602214FF4ED7001F0A2
:105A8000D1FD38BD0146002901DD0A4600E04A4249
:105A90001046704700BF054A126802F04002002A13
:105AA000F9D0C2B2014B1B1D1A607047003801408B
:105AB0007CB5054628494968087801AB04220D21C8
:105AC000FDF7B8FC08B107207CBD9DF80700C0F3C6
:105AD00001109DF8041001F0E00140EAE1008DF8AA
