:020000040800F2
:10000000F044002091020008393D0008EB3200085E
:10001000353D0008FD180008914800080000000068
:10002000000000000000000000000000F9010008CE
:1000300001190008000000003D02000865430008A7
:10004000AB020008AB020008AB020008AB020008DC
:10005000AB020008AB020008AB020008AB020008CC
:10006000AB020008AB020008AB020008AB020008BC
:10007000AB020008AB020008AB020008AB020008AC
:10008000AB020008AB020008AB020008AB0200089C
:10009000AB020008AB020008AB020008031900081D
:1000A000AB020008AB020008AB020008AB0200087C
:1000B000AB02000801440008AB020008AB020008D4
:1000C000AB020008AB020008AB020008AB0200085C
:1000D000AB02000871480008AB0200088148000824
:1000E000AB020008AB020008AB02000800F002F807
:1000F00000F073F80AA090E8000C82448344AAF14F
:100100000107DA4501D100F068F8AFF2090EBAE84C
:100110000F0013F0010F18BFFB1A43F0010318473B
:10012000A0E60000C0E600000A444FF0000C10F802
:10013000013B13F0070408BF10F8014B1D1108BF65
:1001400010F8015B641E05D010F8016B641E01F805
:10015000016BF9D113F0080F1EBF10F8014BAD1C55
:100160000C1B09D16D1E58BF01F801CBFAD505E073
:1001700014F8016B01F8016B6D1EF9D59142D6D3CD
:10018000704700000023002400250026103A28BFF5
:1001900078C1FBD8520728BF30C148BF0B607047F9
:1001A00066290BF05084642900F09E81752900F0C7
:1001B0009B81632900F0F185732900F0F68500200A
:1001C00070471FB500F05CFE0400002000210AF01B
:1001D0001FFBE0601FBD10B510BD00F059FF1146B8
:1001E000FFF7EFFF06F008FB00F077FF03B4FFF71F
:1001F000F2FF03BC04F0F7FB224B19680868B0E873
:10020000F00F80F30988BFF36F8F4FF0000080F389
:1002100011884EF00D0E704700000000064800687F
:10022000006880F3088862B661B6BFF34F8FBFF3F2
:100230006F8F00DF00BF00BF08ED00E0EFF3098023
:10024000BFF36F8F0F4B1A6820E9F00F106008B5ED
:100250004FF0500080F31188BFF34F8FBFF36F8FC3
:1002600009F0A2F94FF0000080F31188BDE80840C2
:1002700019680868B0E8F00F80F30988BFF36F8F42
:10028000704700BF14000020EFF3058070470000A6
:100290000948804709480047FEE7FEE7FEE7FEE71A
:1002A000FEE7FEE7FEE7FEE7FEE7FEE70448054956
:1002B000054A064B70470000FF430008ED000008A8
:1002C000F03E0020F0440020F0400020F0400020EC
:1002D000704753EA020C00F069802DE9F04B4FF0B3
:1002E0000006002B1FBFB3FA83F503FA05F424FAC6
:1002F00005F65E4012BF1643B2FA82F502FA05F423
:10030000C5F120051EBF22FA05FC44EA0C04203585
:1003100056EA044C4FEA144418BF641C4FF000081E
:100320004FF00009904271EB030C39D3002919BF3B
:10033000B1FA81F701FA07F6B0FA80F700FA07F68A
:10034000C7F120071EBF20FA07FC46EA0C0620373B
:10035000B6FBF4FCA7EB0507103F07F01F0BCBF132
:1003600020060CFA0BFB2CFA06F644BFB346002617
:10037000202FA4BF5E464FF0000B5BEA060C08BFBF
:100380004FF0010B19EB0B09ABFB027C48EB0608A5
:10039000C01B06FB02CC0BFB03CC71EB0C01C1E7CD
:1003A0000B46024641464846BDE8F08B13B54FF078
:1003B00000004FF00001AFF30080BDE81C40704723
:1003C00010B54C1084EA530404D54042C1F1000139
:1003D00038BF491E1B4204D55242C3F1000338BF47
:1003E0005B1EFFF776FF14F0804F04D04042C1F14E
:1003F000000138BF491E14F0004F04D05242C3F12F
:10040000000338BF5B1E10BD0FB4044910B503AA2A
:10041000029800F0CFFC10BC5DF814FBE80000204F
:100420000FB41CB5074B06AA7B446946009005989B
:1004300000F091FC0020694600F0A0FC1CBC5DF8B7
:1004400014FB00005109000070B50446856900687E
:10045000C10601D5302600E02026C00707D070BDB8
:10046000D4E9012130469047206A401C20626D1E6D
:10047000F6D570BD70B5044685690078C00707D110
:1004800070BDD4E9012120209047206A401C2062E1
:100490006D1EF6D570BD70B50C460546012A05D017
:1004A0002878800600D5EA69002302E0012305E0F0
:1004B0005B1C934202D2E05C0028F9D1A869E618DF
:1004C000C01AA861286A184428622846FFF7BCFFB2
:1004D00004E0D5E9012114F8010B9047B442F8D3A8
:1004E0002846FFF7C7FF70BD2DE9F04106460024FE
:1004F00010687529314616A510D0AFF3008000288A
:1005000002DA404213A507E031688A0701D512A537
:1005100002E0490704D511A5012401E0AFF30080F2
:1005200000210A2206F1240709E0B0FBF2FCB0FB2F
:10053000F2F302FB1C00303078541846491C0028A6
:10054000F3D123462A463046BDE8F04100F096B983
:10055000000000002D0000002B0000002000000023
:100560002DE9F05F894604464FF0000ADFF824B118
:10057000FB44C0F820A02046E168884700287DD0D1
:10058000252806D0D4E901219047206A401C20622A
:10059000F1E700255F462046E168884720280646A7
:1005A00007DB312E05D2B81910F8200C08B105432D
:1005B000F1E7A80701D525F00405C4F81CA0002721
:1005C000C4F818A02A2E09D0304604F005FA38B332
:1005D00004EB8708303EC8F8186019E059F8041B8E
:1005E000204604EB87029161E1688847012F0646A7
:1005F00018D1E069002820DA25F020051DE0D8F8A0
:10060000180000EB800006EB40003038C8F81800F6
:100610002046E1688847064604F0DEF90028EED15E
:10062000012F0AD02E2E08D12046E16888477F1C72
:100630000646022F45F02005C4DBA069002803DA36
:10064000404245F00105A061E80701D025F0100502
:10065000A6B1A6F14100192802D8203645F400655C
:100660004A463146204625604D46FFF799FD60B168
:10067000012807D0ED1D25F0070000E007E000F19C
:10068000080978E705F1040975E730467AE7206A3A
:10069000BDE8F09F5AE0000040EA010310B59B0757
:1006A0000FD1042A0DD310C808C9121F9C42F8D0DC
:1006B00020BA19BA884201D9012010BD4FF0FF308D
:1006C00010BD1AB1D30703D0521C07E0002010BDA3
:1006D00010F8013B11F8014B1B1B07D110F8013B2F
:1006E00011F8014B1B1B01D1921EF1D1184610BD10
:1006F00040EA0103024630B59B0710D14FF00134A8
:1007000000E008C208C91D1B9D4315EAC41FF8D0AC
:1007100013F0FF0102F8011B0DD01B0AF8E711F8D6
:10072000013B002B02F8013B05D011F8013B002BE7
:1007300002F8013BF3D130BD10B5431C02E010F8C4
:10074000011B71B18107FAD14FF0013202C88C1A36
:100750008C4314EAC211F9D0C01A0A0603D0C01E95
:1007600010BDC01A10BD0A0401D0801E10BD0902C0
:10077000FCD0401E10BD032A40F2308010F0030C64
:1007800000F0158011F8013BBCF1020F624498BFE4
:1007900011F801CB00F8013B38BF11F8013BA2F181
:1007A000040298BF00F801CB38BF00F8013B11F0FC
:1007B000030300F01183083AC0F0088051F8043BAD
:1007C000083A51F804CBA0E80810F5E7121D5CBF09
:1007D00051F8043B40F8043BAFF30080D20724BF3C
:1007E00011F8013B11F801CB48BF11F8012B24BFD0
:1007F00000F8013B00F801CB48BF00F8012B70471F
:1008000002F0FF0343EA032242EA024200F018BB6F
:100810004FF0000200B5134694469646203922BF99
:10082000A0E80C50A0E80C50B1F12001BFF4F7AFE4
:10083000090728BFA0E80C5048BF0CC05DF804EBC6
:10084000890028BF40F8042B08BF704748BF20F834
:10085000022B11F0804F18BF00F8012B7047704732
:1008600070477047704710B500F00EFB006810BD70
:1008700010B5044600F008FB046010BD2DE9F047F8
:100880000D4699469246044600F124080168880600
:1008900004D5E06921F01001216000E00120A842A8
:1008A00001DD471B00E00027A1697A1902EB09006E
:1008B000081AA0612078C00602D42046FFF7C4FDC4
:1008C000002608E0D4E901211AF806009047206AC2
:1008D000401C761C20624E45F4DB2078C0060AD509
:1008E0002046FFF7B1FD06E0D4E901213020904712
:1008F000206A401C2062381EA7F10107F4DC07E0E3
:10090000D4E9012118F805009047206A401C2062B4
:10091000281EA5F10105F3DC2046FFF7ABFD20788A
:10092000000602D50220BDE8F0870120FBE77047F2
:100930002DE9FF4F0C461E464FF0FF378BB0D2E932
:100940000001DDF860800A908A46C1F30A5505B9B6
:100950003D46002108464FF00000BAF1000F00F4B8
:10096000400005DA00EB80004FF4400101EA50003E
:100970004FEA9059B9F1010F00DDB9460A9850EAE3
:100980004A000ED044F61050A5F2FF3545432F140F
:10099000B8F1000F1ED07542291E1EDDC9F10002FC
:1009A0001CE0B8F1010F4FF0000001D0302103E04E
:1009B000F24305E02154401CB042FBDB30460022EC
:1009C000002121540B99C1F80880C1E900200FB023
:1009D000BDE8F08FBD1B6D1CDEE74A4600DA6942B8
:1009E00006A800F0DBFA06AB93E8070003AB83E848
:1009F000070050460A9900F0B9FB8DE80700A0F502
:100A000000501F3800900398002D0ADD42F21F01AC
:100A10004A460844002303A90390684600F022FEDA
:100A200009E0A0F500504A461F38002303A90390AF
:100A3000684600F02CFE8DE807000004000C03D08F
:100A40004FF0FF30410800E01046B8F1000F03D02E
:100A50000022009215461EE0751E05D400F018FA1B
:100A6000303262556D1EF9D5B3460122084302D0DB
:100A700000227F1C04E02078302801D100227F1E54
:100A8000002A099784D01DE0112D07DA00F000FA42
:100A9000303262556D1C50EA0102F5D1084302D094
:100AA0000098C8B10EE00021681E05E0235C625C7E
:100AB00063542254401E491C8142F7DBAB46A81BFD
:100AC000401E0990002004F80B000B98099AC0F80A
:100AD0000880C0E9002B7AE711264FF0000857E79D
:100AE0002DE9F04F88460446D21D22F0070191B04F
:100AF000D1E90001CDE90A0103F0CCFE02460B98D2
:100B0000C00F01D02D2007E02068810701D52B20E0
:100B100002E0202101EAC000032A099001D0072A3F
:100B200005DB03464146204600F0F8F90BE120784A
:100B3000800601D5E06900E00620B8F1650F814626
:100B400006D0B8F1660F18D0B8F1670F70D131E058
:100B50000020B9F1110F009001DB112301E009F130
:100B600001030AAA01A90CA8FFF7E2FEDDE90C7057
:100B7000002609F10105834647E001204B4600901D
:100B80004FF000470AAA01A90CA8FFF7D1FEDDE942
:100B90000DB00C995D46002610B909F101000D1841
:100BA000B9EB050003D4C0F1FF3609F10105A5EB4F
:100BB00009002BE0B9F1010F01DA4FF00109002023
:100BC000B9F1110F0090484601DD112300E0034602
:100BD0000AAA01A90CA8FFF7ABFEDDE90C704D468F
:100BE00000268346207800070AD4AB4500DA5D462C
:100BF00001A8012D04DD411911F8011C302907D08D
:100C00004F4502DA17F1040F04DA012082460FE0A3
:100C10006D1EEEE7002F02DCED1B3E4403E0781C66
:100C2000A84200DD7D1CB81B00F1010A4FF000470F
:100C30002078000703D4AA4501DB4FF0FF3A0021DA
:100C4000B7F1004F0DF143088DF8431024D0022076
:100C50002B23002F01DA7F422D230A21021EA0F14F
:100C6000010000DC5FB197FBF1FC97FBF1F201FBA7
:100C70001C7C17460CF1300C08F801CDEEE7A8F10A
:100C8000010003702188090501D5452100E0652197
:100C9000A0F1010800F8011C09980FA9A1EB0807B1
:100CA000FF1D00B10120411901EBEA70A169384430
:100CB000081A401EA0612078C00602D42046FFF723
:100CC000C3FB099828B1D4E901219047206A401C50
:100CD00020622078C00622D52046FFF7B5FB1EE033
:100CE000002E04DBB34502DD01A8805D00E030206A
:100CF000D4E901219047206A401C2062761CAAF1A9
:100D000001005FEA000A0AD100F0BAF8C068016881
:100D1000405CD4E901219047206A401C2062281ED3
:100D2000A5F10105DCDC07E0D4E9012118F8010B8D
:100D30009047206A401C2062381EA7F10107F3DCAF
:100D40002046FFF797FB032011B041E601694A1CDA
:100D500002610878704700B58FB0CDE901310021FC
:100D6000059105497944CDE9031011466846FFF71E
:100D7000F7FB0FB000BD0000E5FFFFFF0A6802F8B7
:100D8000010B0A60704710B5436913B1AFF30080DF
:100D900001E0FFF780FB012010BD127800F1240173
:100DA0000A7000224A700122EDE711684FF0FF320D
:100DB000E9E70000074B70B50D467B44FFF7CBFF1A
:100DC0000446284600F05CF910B14FF0FF3070BDCA
:100DD000204670BD7B52000010B5203AC0F00B8059
:100DE000B1E81850203AA0E81850B1E81850A0E82F
:100DF0001850BFF4F5AF5FEA027C24BFB1E8185089
:100E0000A0E8185044BF18C918C0BDE810405FEAF8
:100E1000827C24BF51F8043B40F8043B08BF704774
:100E2000D20728BF31F8023B48BF11F8012B28BF79
:100E300020F8023B48BF00F8012B70474FF000023A
:100E40000429C0F0128010F0030C3FF4E3ACCCF1A5
:100E5000040CBCF1020F18BF00F8012BA8BF20F84A
:100E6000022BA1EB0C01FFF7D5BC5FEAC17C24BFCC
:100E700000F8012B00F8012B48BF00F8012B704748
:100E800000487047B03E002000487047903E002068
:100E900030B5B0F10A024FEA900E71F100034EEA4C
:100EA000817EB0EB0E0061EB91014FEA101E4EEA1D
:100EB000017E10EB0E0041EB11114FEA102E4EEAAD
:100EC000016E10EB0E0041EB11214FEA104E4EEA7D
:100ED000014E10EB0E0041EB1141401841F10001B1
:100EE0004FEAD00040EA41704FEAD10110EB800593
:100EF0004FEA810444EA907444EB01046D1944EB19
:100F00000404521BA3414FF0000348BF0A3200D52E
:100F100030BD401C41F1000130BD00002DE9F04121
:100F20001F46044603260168072A01F4006004DB1B
:100F300008B116A505E016A503E008B115A500E067
:100F400015A521F010002060A069C01EA0610FB19E
:100F5000401EA0612046FFF777FA4FB1D4E9012186
:100F600038469047206A401C2062C01C206206E080
:100F7000206AFAE7D4E9012115F8010B9047761EA3
:100F8000F8D22046FFF776FABDE8F0814E414E00D8
:100F90006E616E00494E4600696E66002DE9F047AD
:100FA000814616468AB0354878440DC88DE80D0054
:100FB00032487844801C03AC0DC884E80D0041F62B
:100FC0009B300844372190FBF1F290FBF1F5A5F13D
:100FD000800501FB12041B3C02D56442012000E0A5
:100FE0000020DFF898A080460027FA44AAF1BE0A44
:100FF0000EE0E0070AD03246684607EB47010123BE
:101000000AEB810100F043FB8DE8070064107F1CB0
:10101000002CEED1194F7F44AE3F19E0E80715D000
:1010200007EB04100DF1180A90E80E008AE80E0094
:10103000C068F04201D1981908903246012306A9F0
:1010400003A800F024FB03AB83E807006D10641CC9
:10105000002DE3D14FF0010332466946B8F1000F8D
:1010600003A802D000F0FEFA01E000F010FBC9E98D
:101070000001C9F808200AB0BDE8F087A0D7000039
:10108000007B00F08000704700487047903E0020D1
:101090007546FFF7F9FFAE4605006946534620F056
:1010A0000700854618B020B5FFF700F9BDE82040DD
:1010B0004FF000064FF000074FF000084FF0000B14
:1010C00021F00701AC46ACE8C009ACE8C009ACE8C7
:1010D000C009ACE8C0098D46704710B50446AFF3AF
:1010E00000802046BDE81040FFF780B84FF0013C7B
:1010F00050F8042B51F8043B9A4221D1A2EB0C0387
:10110000934313EACC1317D150F8042B51F8043B46
:101110009A4215D1A2EB0C03934313EACC130BD1E3
:1011200050F8042B51F8043B9A4209D1A2EB0C036E
:10113000934313EACC13DBD04FF00000704700BF9D
:10114000D01A01BAB1FA81F101F0180122FA01F0C6
:10115000CB40C1F12001DBB2C0B2C01A2CFA01F3BE
:10116000D11A914311EAC311E6D170475FEA400CEE
:1011700008BF91F0000F4FEA8C234FEAC12243EAE7
:1011800051514FEA1C5018BF00F5F0404FEA3000B3
:1011900018BF41F000415FEA6C5C00F02980BCF1AF
:1011A000FF3F08BF40F080407047130C06BF120499
:1011B0004FF0100C4FF0000C130E04BF12020CF194
:1011C000080C130F04BF12010CF1040C930F04BFA1
:1011D00092000CF1020CD30F04BF52000CF1010C71
:1011E00011464FF00002A0F11F00A0EB0C00704769
:1011F00011F0004F08BF704731F000413FF4D5AF08
:101200000B0C06BF09044FF0100C4FF0000C0B0E36
:1012100004BF09020CF1080C0B0F04BF09010CF10B
:10122000040C8B0F04BF89000CF1020CCB0F04BF20
:1012300049000CF1010CCCF12003A0EB0C0022FAC8
:1012400003F302FA0CF241EA030100F101007047D6
:1012500020F07F4C80EA030023F07F47ACEB0703CC
:1012600003F57C5300F0004003F1FF032DE98049B2
:101270004FEA154B09B44FEA144325EA0B4E24EA12
:1012800003480FF2042606EB132749083E785FEA6D
:10129000320203FB0667C7F5000707FB06F64FEAB5
:1012A00054374FEAD64606F1020607FB066CCCF12E
:1012B000005C4FEA1C472CEA074C07FB06F40CFBCA
:1012C00006F504EB15464FEA961634BF00204FF0A2
:1012D00000404FEAD13706FB07FC4FEA1C4C0CFBE1
:1012E0000BF7D21B03FB0CF761EB07010CFB0EF7AE
:1012F000B0EB074072EB17420CFB08F734BFA2EBD0
:101300000742B2EB074261EB17414FEA0C444FEA48
:10131000910706FB07FC4FEA1C4C0CFB0BF7B0EBEC
:10132000C74072EB573203FB0CF734BFA2EBC74246
:10133000B2EBC74261EB57310CFB0EF7B0EBC700C5
:1013400072EB57720CFB08F734BFA2EBC702B2EB8B
:10135000C70261EB5771039F4FEA816141EA921125
:1013600004EBCC044FEAD1374FEA826206FB07FC5C
:1013700042EA90124FEA80604FEA1C4C0CFB0BF7DC
:10138000D21B03FB0CF761EB07010CFB0EF7B0EB74
:10139000074072EB17420CFB08F734BFA2EB074281
:1013A000B2EB074261EB17414FEA8C554FEA9107C8
:1013B00004EB9C2406FB07FC4FEA1C4C0CFB0BF7D0
:1013C000B0EBC74072EB573203FB0CF734BFA2EB14
:1013D000C742B2EBC74261EB57310CFB0EF7B0EBE3
:1013E000C70072EB57720CFB08F734BFA2EBC702C1
:1013F000B2EBC70261EB577115EB4C254FEA8161E7
:1014000041EA92114FEA82624FEAD13742EA9012E2
:1014100006FB07FC44F100044FEA80604FEA1C4CD5
:101420000CFB0BF7D21B03FB0CF761EB07010CFB6A
:101430000EF7B0EB074072EB17420CFB08F734BF16
:10144000A2EB0742B2EB074261EB174115EB1C150B
:101450004FEA813141EA92414FEA823242EA9042B8
:101460004FEA80304FEA0C7644F1000448EA034327
:101470004EEA0B484FF0000EB2EB080C71EB03077D
:1014800024BF624639464EEB0E0E4FF0000B00189B
:10149000524149414BEB0B0BB2EB080C71EB0307CC
:1014A0007BF1000B24BF624639464EEB0E0E4FF027
:1014B000000B0018524149414BEB0B0BB2EB080CEF
:1014C00071EB03077BF1000B24BF624639464EEBFC
:1014D0000E0E51EA020718BF46F0010616EB0E7613
:1014E00055F1000254F1000103D5BDE88901BDE8C2
:1014F0000088BDE88901BDE80048B619524141EBBA
:101500000101A3F10103704780807F7E7D7C7B7A9F
:101510007978777676757473727171706F6E6E6D9F
:101520006C6C6B6A6A696868676666656464636345
:1015300062616160605F5F5E5E5D5D5C5C5B5B5ACB
:101540005A59595858575756565555555454535338
:1015500052525251515050504F4F4F4E4E4D4D4D93
:101560004C4C4C4B4B4B4A4A4A49494948484847DE
:10157000474747464646454545444444444343431C
:101580004342424242414141002B9C4630D47700C5
:101590002BD01CB54FEA370703B44FF010004FF0C3
:1015A0001001BAF1000F06D0BCF1000FDCBF40F013
:1015B000080040F008014FF000000FBCBDE81040EB
:1015C0000BF1010BBBF1010F08BF5FEA170722BF48
:1015D00012F1010211F101014FF0004143F100034A
:1015E00000F0004043EA00007047F9D35708D0E705
:1015F00046EA064613F1400F4FEA16461FDD13F187
:10160000200FDFBF16430A46002120335B42BED0C5
:10161000C3F1200746EA064602FA07F74FEA1646E4
:1016200046EA0706C3F1200722FA03F201FA07F798
:1016300021FA03F14FF0000342EA0702A7E746EA66
:10164000020646EA06464FEA164646EA0106BCBFCF
:1016500046EA0646360C4FF000034FF000024FF00A
:10166000000194E72DE9804C9A46934670B491E8C6
:10167000380007C831EA400C48BF34EA430C03D5B0
:10168000FFF7E6FDFFF780FFF0BCBDE8008C2DE919
:10169000804C9A46934670B491E8380007C810F021
:1016A000804F08BF13F0804F03D100F005F8FFF71B
:1016B0006BFFF0BCBDE8008C20F07F4780EA0300A0
:1016C00023F07F4C07EB0C03A3F57C5300F00040A4
:1016D000A3F1FE0392F0000F00F0B38095F0000F2D
:1016E00000F077802DE901494FEA11404FEA144696
:1016F00021EA004800FB06FC24EA064708FB06F640
:1017000007FB08F800FB07F718EB06484CEB164CF4
:101710004FEA124B18EB07484FEA15464CEB1740BF
:1017200022EA0B4E0BFB06FC25EA06470EFB06F6EB
:1017300007FB0EFE0BFB07F71EEB064E4CEB164CA1
:101740004FF000061EEB074E4CEB174B18EB0B0847
:1017500040F1000018EB0E0B58EB000840F10000C0
:101760008F1A4FF000013CBFC943661B14BFB5EB95
:10177000040C00213CBFC943F61B4FEA17444EEA54
:101780008E0E27EA04454FEA1C4704FB07622CEA49
:10179000074C05FB07F70CFB05F604FB0CFC16EBEE
:1017A000074642EB174216EB0C4642EB1C421BEB82
:1017B000060658EB0202414146EA9E0601D5BDE805
:1017C0000189B619524141EB0101A3F10103BDE8C2
:1017D00001894FEA14454FEA114724EA054621EAF8
:1017E000074C05FB07F406FB07F70CFB06F105FBAE
:1017F0000CFC11EB074144EB17444FEA124711EB85
:101800000C4144EB1C4422EA074C05FB07F206FBA3
:1018100007F70CFB06F605FB0CFC16EB074642EB44
:10182000174216EB0C4642EB1C456A1854F10001B6
:1018300048BF7047B619524141EB0101A3F10103C2
:10184000704795F0000F37D04FEA11424FEA144726
:1018500021EA024624EA074C02FB07F106FB07F7E0
:101860000CFB06F402FB0CFC14EB074441EB1741A4
:101870004FEA154714EB0C4441EB1C4125EA074C99
:1018800002FB07F506FB07F70CFB06F602FB0CFC58
:1018900016EB074645EB174516EB0C4645EB1C428D
:1018A000121951F1000148BF7047B619524141EB7E
:1018B0000101A3F1010370474FEA14454FEA1147B4
:1018C00024EA054621EA074C05FB07F106FB07F76A
:1018D0000CFB06F24FF0000605FB0CFC12EB074276
:1018E00041EB174112EB0C4251EB1C4148BF7047D2
:1018F000921841EB0101A3F10103704700BFFEE71D
:10190000704710B5202000F08BF810BD72B600BFF4
:10191000FEE7000070B50446002594F82100022877
:1019200003D00420A063012548E02068006820F06F
:101930000E00216808602068006820F0010021681E
:1019400008601F492068884201D1012026E01C4917
:1019500014312068884201D110201FE01849283135
:101960002068884201D1801518E015493C31206873
:10197000884201D1801411E0114950312068884219
:1019800002D14FF4803009E00D496431206888426B
:1019900002D14FF4801001E04FF0807008490839FF
:1019A0004860012084F8210000BF002084F8200056
:1019B00000BF606B10B12046616B8847284670BD40
:1019C0000800024070B5044600F0E0F906462546DE
:1019D000681C10B104480078054400BF00F0D6F937
:1019E000801BA842FAD370BD0C00002010B504463D
:1019F000202C0ED107490848006808F08DF90548E9
:101A0000006830B1E00505490860BFF34F8FBFF3B0
:101A10006F8F10BD3C0100205801002004ED00E054
:101A200010B5044604480068204020B10248046014
:101A30002046FFF7DBFF10BD140401402DE9F847F5
:101A40000346002294466EE14FF0010808FA02F4C2
:101A5000D1F8008008EA0400A0427DD1DFF8DCA2C2
:101A6000D1F80480A8EB0A09D0453AD014DCB8F1CB
:101A7000030F50D009DCB8F1000F31D0B8F1010FDD
:101A80001CD0B8F1020F49D120E0B8F1110F18D0E5
:101A9000B8F1120F42D11EE0B9F5881F25D006DC3F
:101AA000B9F5803F20D0B9F5801F37D11AE0B9F5DC
:101AB000001F18D0B9F5041F30D117E0D1F80CC0C1
:101AC0002DE0D1F80C8008F1040C28E0D1F80C804E
:101AD00008F1080C23E0D1F80C8008F10C0C1EE092
:101AE00000BF00BF00BF00BF00BF00BFD1F808802B
:101AF000B8F1000F02D14FF0040C0BE0D1F80880D0
:101B0000B8F1010F03D14FF0080C1C6102E04FF057
:101B1000080C5C6103E04FF0000C00E000BF00BF68
:101B2000FF2801D8984601E003F104084646FF2843
:101B300002D84FEA820803E0A2F108084FEA8808B9
:101B40004746D6F800804FF00F0909FA07F928EA4E
:101B500009080CFA07F900E088E048EA0908C6F825
:101B60000080D1F8048008F08058B8F1805F7DD102
:101B700000BFDFF8CC81D8F8188048F00108DFF802
:101B8000C091C9F81880C846D8F8188008F0010834
:101B9000CDF8008000BF00BF4FEAB9384FEA920984
:101BA00058F829504FEA82784FEA18794FF00F0819
:101BB00008FA09F825EA0805DFF88881434502D1CB
:101BC0004FF0000816E0DFF88081434502D14FF066
:101BD00001080FE0DFF87481434502D14FF002089D
:101BE00008E0DFF86C81434502D14FF0030801E0C3
:101BF0004FF004084FEA82794FEA197908FA09F898
:101C000048EA0505DFF84C814FEA920948F8295067
:101C1000D1F8048008F48038B8F5803F0AD1DFF8A5
:101C20003881D8F8008048EA0008DFF82C91C9F81C
:101C3000008009E0DFF82081D8F8008028EA000859
:101C4000DFF81491C9F80080D1F8048008F4003856
:101C5000B8F5003F10D1DFF8008108F10408D8F88A
:101C6000008048EA0008DFF8F09000E05AE009F14F
:101C70000409C9F800800DE0DFF8DC8008F10408F1
:101C8000D8F8008028EA0008DFF8CC9009F10409B0
:101C9000C9F80080D1F8048008F48018B8F5801FD6
:101CA0000ED1DFF8B48008F10808D8F8008048EABF
:101CB0000008DFF8A49009F10809C9F800800DE0D8
:101CC000DFF8948008F10808D8F8008028EA0008B6
:101CD000DFF8849009F10809C9F80080D1F8048080
:101CE00008F40018B8F5001F0ED1DFF86C8008F179
:101CF0000C08D8F8008048EA0008DFF85C9009F189
:101D00000C09C9F800800DE0DFF84C8008F10C08E0
:101D1000D8F8008028EA0008DFF83C9009F10C09A7
:101D2000C9F80080521CD1F8008028FA02F8B8F1F6
:101D3000000F7FF489AEBDE8F887000000001110A5
:101D40000010024000080140000C0140001001405A
:101D5000001401400800014000040140024693685D
:101D60000B400BB1012000E00020704710B5C268A5
:101D700021EA020302EA010443EA0443036110BDBD
:101D80000AB1016101E00B0403617047014800687A
:101D900070470000040000200348006803490978E8
:101DA0000844014908607047040000200C0000202E
:101DB00010B50848006840F010000649086003208C
:101DC00000F0E2F8012000F007F800F05FF80020D2
:101DD00010BD0000002002402DE9F04188B004460B
:101DE0000027B846002600BF2348C06940F0020023
:101DF0002149C8610846C06900F00200019000BF97
:101E000000BF02A903A800F099F9069F1FB900F0CE
:101E1000BDF9054602E000F0B9F945001748B5FBE9
:101E2000F0F0A0F1010816481649086040F2E731C9
:101E30001448C160C0F804800021016181608161A3
:101E400000F0BEFC064696B90E4800F0EDFC0646D2
:101E50006EB91D2000F04AF8102C07D2002221464E
:101E60001D2000F053F80848046000E001263046C9
:101E700008B0BDE8F08100000010024040420F00B1
:101E800000040040140400200800002008B500BF32
:101E90001448806940F00100124988610846806951
:101EA00000F00100009000BF00BF00BF0846C069FD
:101EB00040F08050C8610846C06900F08050009032
:101EC00000BF00BF00220F21901E00F01FF800BFCE
:101ED0000549486820F0E06040F00070486000BFAD
:101EE00008BD000000100240000001400146084605
:101EF000002809DB00F01F0301229A4043099B00E0
:101F000003F1E023C3F8002100BF70472DE9F05F23
:101F100080460D461646002702F0D0FC074639469B
:101F20002A46334601F00700C0F1070ABAF1040F50
:101F300002D94FF0040A01E0C0F1070AD14600F1CE
:101F4000040ABAF1070F02D24FF0000A01E0A0F133
:101F5000030AD4464FF0010A0AFA09FAAAF1010A63
:101F60000AEA020A0AFA0CFA4FF0010B0BFA0CFB10
:101F7000ABF1010B0BEA030B4AEA0B042146404686
:101F800002F0A4FCBDE8F09F00BF00F00702064B82
:101F900019684FF6FF031940044B0B4343EA022133
:101FA000014B196000BF70470CED00E00000FA051E
:101FB00070B504460D460CB9012070BD5A48006842
:101FC00000F00700A8420ED25748006820F0070032
:101FD0002843554908600846006800F00700A842F9
:101FE00001D00120E9E7207800F0020002281DD18D
:101FF000207800F00400042805D14C48406840F4E3
:10200000E0604A494860207800F00800082805D1BF
:102010004648406840F4605044494860434840683E
:1020200020F0F000A168084340494860207800F0A3
:10203000010078B36068012806D13C48006800F4CC
:10204000003090B90120B8E76068022806D137480F
:10205000006800F0007040B90120AEE73348006826
:1020600000F0020008B90120A7E73048406820F0DE
:102070000300616808432D494860FFF787FE064664
:1020800009E0FFF783FE801B41F28831884202D9C4
:10209000032092E707E02548406800F00C006168E3
:1020A000B0EB810FEDD12048006800F00700A84296
:1020B0000ED91D48006820F0070028431A4908601F
:1020C0000846006800F00700A84201D0012074E72C
:1020D000207800F00400042807D11448406820F458
:1020E000E060E168084311494860207800F008008A
:1020F000082808D10D48406820F46050216940EA62
:10210000C1000A49486000F061F808494968C1F314
:102110000311074A515CC840064908600648006838
:10212000FFF75AFE002048E700200240001002405E
:1021300060BB000810000020080000200F22026091
:102140000D4A526802F0030242600B4A526802F0E4
:10215000F0028260084A526802F4E062C260064AF5
:10216000526802F46052D2080261044A126802F016
:1021700007020A6070470000001002400020024081
:1021800001480068704700001000002000B5FFF70C
:10219000F7FF04494968C1F30221034A515CC84072
:1021A00000BD00000010024070BB000800B5FFF742
:1021B000E7FF04494968C1F3C221034A515CC840A2
:1021C00000BD00000010024070BB0008F0B585B0F3
:1021D0000FF26C0C9CE8E01001A8A0E8E0101CA530
:1021E0002D68009500210022002300240020194DB5
:1021F000696801F00C05F5B1042D02D0082D19D144
:1022000001E0154819E001ADC1F38346AC5D01F46E
:10221000803555B10F4D6D68C5F340451DF805205B
:102220000D4D6543B5FBF2F302E00C4D04FB05F3E5
:10223000184602E000BF084800BF00BF05B0F0BD6F
:1022400002030405060708090A0B0C0D0E0F1010F7
:10225000010200000010024000127A0000093D0057
:10226000F8B504460CB90120F8BD207800F0010053
:10227000002878D0F848406800F00C0004280CD002
:10228000F548406800F00C00082811D1F248406879
:1022900000F48030B0F5803F0AD1EF48006800F4C8
:1022A000003000285FD0606800285CD10120DBE7A7
:1022B00000BF6068B0F5803F06D1E748006840F491
:1022C0008030E549086028E0606858B9E248006855
:1022D00020F48030E04908600846006820F480203F
:1022E00008601AE06068B0F5A02F0BD1DA480068EA
:1022F00040F48020D84908600846006840F48030E7
:1023000008600AE0D448006820F48030D2490860B0
:102310000846006820F48020086000BF606888B12B
:10232000FFF734FD054606E0FFF730FD401B64284B
:1023300001D9032098E7C848006800F4003000285D
:10234000F2D010E0FFF722FD054606E0FFF71EFD84
:10235000401B642801D9032086E7BF48006800F4C9
:1023600000300028F2D1207800F00200022857D176
:10237000B948406800F00C0050B1B748406800F020
:102380000C00082818D1B448406800F4803098B98F
:10239000B148006800F0020020B12069012801D096
:1023A000012061E7AC48006820F0F800616940EA6C
:1023B000C100A949086033E02069E8B10120A749BC
:1023C0000860FFF7E3FC054606E0FFF7DFFC401B73
:1023D000022801D9032047E79F48006800F0020067
:1023E0000028F2D09C48006820F0F800616940EABB
:1023F000C1009949086013E0002098490860FFF780
:10240000C5FC054606E0FFF7C1FC401B022801D9C8
:10241000032029E79048006800F002000028F2D16C
:10242000207800F0080008282DD1A069B8B101205B
:102430008B490860FFF7AAFC054606E0FFF7A6FCFB
:10244000401B022801D903200EE78348406A00F0B0
:1024500002000028F2D0012001F06CFE13E0002001
:102460007F490860FFF792FC054606E0FFF78EFC07
:10247000401B022801D90320F6E67748406A00F0A5
:1024800002000028F2D1207800F00400042873D163
:1024900000277148C06900F0805070B900BF6E48D5
:1024A000C06940F080506C49C8610846C06900F0BE
:1024B0008050009000BF00BF01276A48006800F408
:1024C0008070B0B96748006840F480706549086062
:1024D000FFF75CFC054606E0FFF758FC401B64284C
:1024E00001D90320C0E65F48006800F4807000282E
:1024F000F2D000BFE068012806D15748006A40F0DA
:1025000001005549086227E0E06858B95248006A5E
:1025100020F00100504908620846006A20F00400DB
:10252000086219E0E06805280BD14B48006A40F0CA
:102530000400494908620846006A40F00100086248
:102540000AE04548006A20F0010043490862084655
:10255000006A20F00400086200BFE068A0B1FFF745
:1025600015FC054609E0FFF711FC401B41F28831DC
:10257000884202D9032077E622E03748006A00F05B
:1025800002000028EFD012E0FFF700FC054608E04B
:10259000FFF7FCFB401B41F28831884201D9032040
:1025A00062E62D48006A00F002000028F0D1012FF9
:1025B00005D12948C06920F080502749C86100BF73
:1025C000E069C8B32448406800F00C00082860D0D7
:1025D000E069022848D1002020490866FFF7D6FBB1
:1025E000054606E0FFF7D2FB401B022801D9032075
:1025F0003AE61948006800F000700028F2D1206A1D
:10260000B0F5803F07D11448406820F40030A1683D
:10261000084311494860D4E9080108430E49496854
:1026200021F4741108430C49486001200B490866E5
:10263000FFF7ACFB054607E03DE0FFF7A7FB401BBB
:10264000022801D903200FE60348006800F000705B
:102650000028F2D02FE000000010024000004242AB
:102660008004424200700040002014490866FFF7D1
:102670008DFB054606E0FFF789FB401B022801D9C8
:102680000320F1E50E48006800F000700028F2D148
:1026900011E0E069012800D1E6E50948466806F442
:1026A0008031206A814204D106F47011606A81424F
:1026B00001D00120D8E50020D6E50000000042420C
:1026C000001002407047704710B50346002200BF5B
:1026D00093F83C00012801D1022010BD012083F8AD
:1026E0003C0000BF22F0FF00CC6840EA040222F464
:1026F00040708C6840EA040222F480604C6840EA32
:10270000040222F400600C6840EA040222F48050C3
:102710000C6940EA040222F400504C6940EA0402C9
:1027200022F48040CC6940EA04021868426400BF89
:10273000002083F83C0000BF00BFCEE730B5024662
:102740000B4600BF92F83C00012801D1022030BDA9
:10275000012082F83C0000BF022082F83D00106892
:1027600044681068816824F0700418680443106895
:102770004460104D1068A8420BD01068B0F1804F33
:1027800007D00D4D1068A84203D00C4D1068A84228
:1027900005D121F080015868014310688160012053
:1027A00082F83D0000BF002082F83C0000BF00BF5F
:1027B000CDE70000002C014000040040000800406C
:1027C00010B504460CB9012010BD94F83D0028B99D
:1027D000002084F83C00204600F025F8022084F810
:1027E0003D00211D206801F013FE012084F8460001
:1027F00000BF84F83E0001213F20015540200155D3
:102800004120015500BF00BF012084F84200432051
:102810000155442001554520015500BF012084F891
:102820003D000020D0E77047014691F83D000128A7
:1028300001D001207047022081F83D000868C0687F
:1028400040F001000B68D860124B086898420BD02A
:102850000868B0F1804F07D00F4B0868984203D04A
:102860000E4B086898420CD10868806800F0070297
:10287000062A0CD00868006840F001000B68186058
:1028800005E00868006840F001000B68186000204F
:10289000D0E70000002C0140000400400008004088
:1028A0002DE9F04104460D4614B90120BDE8F08140
:1028B00094F83D0028B9002084F83C00204600F040
:1028C00051F8022084F83D002068806844F2070136
:1028D000884321688860211D206801F099FD2068E7
:1028E000D0F80880206886692068076A286840EA6E
:1028F000080840F203308643A969A86840EA01202D
:10290000064340F60C4086434FF2F0008643E969E7
:10291000E86840EA0120064328690001296A40EA84
:102920000130064327F022076969686840EA011010
:1029300007432068C0F80880206886612068076225
:10294000012084F8460084F83E0001213F20015513
:10295000012084F8420043200155012084F83D0005
:102960000020A3E710B586B0044600200290039033
:10297000049005902068B0F1804F24D100BF274813
:10298000C06940F001002549C8610846C06900F0EF
:102990000100019000BF00BF00BF0846806940F001
:1029A000040088610846806900F00400019000BFBF
:1029B00000BF0320029000200390049002A9184851
:1029C000FFF73CF827E017492068884223D100BF71
:1029D0001248C06940F004001049C8610846C06947
:1029E00000F00400019000BF00BF00BF08468069EE
:1029F00040F0080088610846806900F008000190F6
:102A000000BF00BFC020029000200390049002A9E4
:102A10000548FFF713F806B010BD00000010024093
:102A20000008014000080040000C01402DE9F0437F
:102A300004460D4694F83E603F20075D94F84280BE
:102A4000432010F804906DB9012E02D1B8F1010FA6
:102A500002D00120BDE8F083022084F83E0084F813
:102A6000420025E0042D0CD1012F02D1B9F1010F54
:102A700001D00120EEE702213F20015543200155FE
:102A800016E0012E07D1012F05D1B8F1010F02D1B7
:102A9000B9F1010F01D00120DCE7022084F83E00EB
:102AA00002213F200155022084F8420043200155B5
:102AB00015B1042D0CD105E001220021206801F0A0
:102AC000E1FC10E001220421206801F0DBFC0AE0B7
:102AD00001220021206801F0D5FC01220421206898
:102AE00001F0D0FC00BF00BF2068006840F001008A
:102AF000216808600020ADE7704710B504462068E3
:102B00000069C0F34000D8B12068C068C0F340003D
:102B1000B0B16FF0020021680861012020772068C1
:102B2000806900F0030018B12046FFF7E5FF05E0DB
:102B3000204600F0D9F8204600F0A0F900202077C8
:102B400020680069C0F38000D8B12068C068C0F375
:102B50008000B0B16FF00400216808610220207786
:102B60002068806900F4407018B12046FFF7C4FF68
:102B700005E0204600F0B8F8204600F07FF900207C
:102B8000207720680069C0F3C000D8B12068C06811
:102B9000C0F3C000B0B16FF00800216808610420E4
:102BA00020772068C06900F0030018B12046FFF7C5
:102BB000A3FF05E0204600F097F8204600F05EF9FC
:102BC0000020207720680069C0F30010D8B1206889
:102BD000C068C0F30010B0B16FF010002168086148
:102BE000082020772068C06900F4407018B12046A2
:102BF000FFF782FF05E0204600F076F8204600F05F
:102C00003DF9002020772068006900F0010058B1EC
:102C10002068C06800F0010030B16FF00100216849
:102C20000861204600F096F920680069C0F3C010E2
:102C300058B12068C068C0F3C01030B16FF0800098
:102C4000216808612046FFF73DFD20680069C0F358
:102C5000801058B12068C068C0F3801030B16FF0A8
:102C6000400021680861204600F080F92068006972
:102C7000C0F3401058B12068C068C0F3401030B1B4
:102C80006FF02000216808612046FFF71CFD10BD91
:102C900010B586B004460020029003900490059081
:102CA0000E492068884217D100BF0D48806940F066
:102CB00004000B4988610846806900F00400019017
:102CC00000BF00BF4FF410600290022003900590F7
:102CD00002A90448FEF7B2FE06B010BD002C014068
:102CE0000010024000080140704770B504460D46D0
:102CF000164600BF94F83C00012801D1022070BDA7
:102D0000012084F83C0000BF36B1042E1BD0082EF1
:102D100031D00C2E5ED145E02946206801F0C4FB7D
:102D20002068806940F00800216888612068806917
:102D300020F00400216888612068806929690843BF
:102D40002168886147E02946206801F0DDFB2068A2
:102D5000806940F40060216888612068806920F4FF
:102D600080602168886120688069296940EA0120C3
:102D7000216888612FE02946206801F0F9FB20686E
:102D8000C06940F008002168C8612068C06920F06F
:102D900004002168C8612068C06929690843216866
:102DA000C86118E02946206801F016FC2068C06957
:102DB00040F400602168C8612068C06920F4806028
:102DC0002168C8612068C069296940EA012021683A
:102DD000C86100E000BF00BF00BF002084F83C00D5
:102DE00000BF00BF8BE710B504460CB9012010BD31
:102DF00094F83D0028B9002084F83C00204600F0FB
:102E000025F8022084F83D00211D206801F000FB18
:102E1000012084F8460000BF84F83E0001213F20D5
:102E20000155402001554120015500BF00BF012040
:102E300084F84200432001554420015545200155A6
:102E400000BF012084F83D000020D0E708B5094A02
:102E5000016891420DD100BF0749896941F40061C1
:102E6000054A91611146896901F40061009100BF32
:102E700000BF08BD002C0140001002407047000058
:102E800070B504460D4615B994F83E000BE0042DCC
:102E900002D13F20005D06E0082D02D14020005DF8
:102EA00001E04120005D012801D0012070BD1DB965
:102EB000022084F83E000EE0042D03D102213F20C1
:102EC000015508E0082D03D102214020015502E000
:102ED00002214120015501222946206801F0D2FA41
:102EE00019492068884201D1012000E0002028B162
:102EF0002068406C40F40040216848641249206812
:102F000088420BD02068B0F1804F07D00F4920686D
:102F1000884203D00E49206888420CD1206880681E
:102F200000F00706062E0CD02068006840F0010073
:102F30002168086005E02068006840F00100216811
:102F400008600020B2E70000002C014000040040AF
:102F50000008004010B5044603492068884201D1AA
:102F6000FEF71AFF10BD00000004004070477047D4
:102F70002DE9F0470446206805682068C668206887
:102F800047694FF00008C14605F00F08B8F1000F7F
:102F90000AD105F0200038B106F0200020B120460B
:102FA00001F068FBBDE8F087B8F1000F71D007F0C1
:102FB000010018B906F4907000286AD005F00100ED
:102FC00030B106F4807018B1E06B40F00100E063AE
:102FD00005F0040030B107F0010018B1E06B40F0DB
:102FE0000200E06305F0020030B107F0010018B103
:102FF000E06B40F00400E06305F0080048B106F023
:10300000200010B907F0010018B1E06B40F0080093
:10301000E063E06B68B305F0200028B106F0200003
:1030200010B1204601F026FB20684069C0F38019EA
:10303000E06B00F0080010B9B9F1000F22D0204673
:1030400001F0F8FA2068406900F04000B0B1206853
:10305000406920F0400021684861606B50B1184819
:10306000616B4863606BFEF755FC10B1606B416BA0
:1030700088470CE02046FFF77AFF08E02046FFF77C
:1030800076FF04E02046FFF772FF0020E06389E747
:10309000FFE705F0800030B106F0800018B120464F
:1030A00001F0B6FB7EE705F0400030B106F04000CD
:1030B00018B1204601F0CEFA74E700BF72E70000B5
:1030C0002146000810B504460CB9012010BDA069C6
:1030D00000B100E000BF94F8390028B9002084F85E
:1030E0003800204600F028F8242084F839002068B1
:1030F000C06820F400502168C860204601F00AFB37
:103100002068006920F490402168086120684069C7
:1031100020F02A00216848612068C06840F400500F
:103120002168C8600020E063202084F8390084F81A
:103130003A000020CAE7000010B586B0044600201F
:1031400002900390049005903C492068884237D152
:1031500000BF3B48806940F4804039498861084697
:10316000806900F48040019000BF00BF00BF0846A6
:10317000806940F0040088610846806900F004001E
:10318000019000BF00BF4815029002200390032069
:10319000059002A92B48FEF751FC4FF48060029085
:1031A00000200390049002A92648FEF747FC002265
:1031B00007212520FEF7AAFE2520FEF797FE3AE01C
:1031C00021492068884236D100BF1D48C06940F4BB
:1031D00080201B49C8610846C06900F48020019026
:1031E00000BF00BF00BF0846806940F0080088614A
:1031F0000846806900F00800019000BF00BF081574
:103200000290022003900320059002A90F48FEF7C8
:1032100015FC4FF40060029000200390049002A976
:103220000A48FEF70BFC002206212720FEF76EFE5F
:103230002720FEF75BFE06B010BD000000380140FD
:10324000001002400008014000480040000C01400E
:1032500010B5034693F83A0020282FD101B10AB9DE
:10326000012010BD00BF93F83800012801D10220D1
:10327000F7E7012083F8380000BF99629A85DA8564
:103280000020D863222083F83A0000BF002083F892
:10329000380000BF1868C06840F480701C68E060A7
:1032A0001868406940F001001C6860611868C068D7
:1032B00040F020001C68E0600020D2E70220D0E748
:1032C00010B5044606492068884202D105F04EFC3C
:1032D00005E004492068884201D105F08DFC10BD4D
:1032E0000038014000480040704700BFFEE7000082
:1032F00010B5012251020D48FEF742FD01221102D4
:103300000A48FEF73DFD00F043F800224FF400713B
:103310000648FEF735FD00F03BF800224FF48071BF
:103320000248FEF72DFD00F033F810BD000C0140FF
:1033300010B500224FF400710748FEF721FD01226D
:1033400011020548FEF71CFD00F022F8012251028F
:103350000148FEF715FD10BD000C014010B501221B
:1033600051020A48FEF70CFD00F012F8012211028A
:103370000648FEF705FD00F00BF800224FF48071BF
:103380000248FEF7FDFC00F003F810BD000C014000
:10339000032000BF011EA0F10102D0B2FAD1704794
:1033A0002DE9FC4104460D4616466B4606223B219C
:1033B000682000F019FA0746BFB99DF801009DF892
:1033C000001040EA012000B220809DF803009DF823
:1033D000021040EA012000B228809DF805009DF807
:1033E000041040EA012000B230803846BDE8FC817C
:1033F0002DE9FC4104460D4616466B460622432144
:10340000682000F0F1F90746BFB99DF801009DF86A
:10341000001040EA012000B220809DF803009DF8D2
:10342000021040EA012000B228809DF805009DF8B6
:10343000041040EA012000B230803846BDE8FC812B
:1034400010B500BF002210211448FEF799FC00BF00
:103450001248006820F4704010490860084600686F
:1034600040F44050086000BF002208210B48FEF7DE
:1034700087FC00BF00F014F800BF012210210748AC
:10348000FEF77EFC00BF00F00BF800BF0022102109
:103490000248FEF775FC00BF10BD0000000C0140A3
:1034A00010B5022001F0F2FE10BD704710B500BF4C
:1034B000002210211448FEF763FC00BF1248006888
:1034C00020F47040104908600846006840F44050FD
:1034D000086000BF012208210B48FEF751FC00BF25
:1034E000FFF7DEFF00BF012210210748FEF748FC6E
:1034F00000BFFFF7D5FF00BF002210210248FEF7F2
:103500003FFC00BF10BD0000000C014070B5054637
:1035100000241A48006820F47040184908600846E2
:10352000006840F40040086000261CE000BF002254
:1035300010211248FEF724FC00BFFFF7B1FF00BFC7
:10354000012210210D48FEF71BFC00BF6006040E8F
:1035500008210A48FEF702FC08B1601CC4B2FFF75C
:103560009FFF701CC6B2082EE0DB15B9FFF79EFF67
:1035700001E0FFF765FF204670BD0000000C014030
:1035800070B504461D48006820F470401B4908606F
:103590000846006840F44050086000BF0022102137
:1035A0001648FEF7EDFB00BF002524E000BFE00950
:1035B00028B1012208211148FEF7E2FB04E00022B5
:1035C00008210E48FEF7DCFB00BF6006040E00BFBA
:1035D000012210210948FEF7D3FB00BFFFF760FF6F
:1035E00000BF002210210548FEF7CAFB00BFFFF70D
:1035F00057FF681CC5B2082DD8DB70BD000C014018
:1036000010B51648006820F4704014490860084658
:10361000006840F44050086000BF012208210F48B4
:10362000FEF7AEFB00BF00BF012210210B48FEF7E2
:10363000A7FB00BFFFF734FF00BF002208210748A7
:10364000FEF79EFB00BFFFF72BFF00BF00221021FB
:103650000248FEF795FB00BF10BD0000000C0140C2
:1036600010B51648006820F47040144908600846F8
:10367000006840F44050086000BF002210210F484D
:10368000FEF77EFB00BF00BF002208210B48FEF7BB
:1036900077FB00BFFFF704FF00BF0122102107489E
:1036A000FEF76EFB00BF00BF012208210348FEF7B2
:1036B00067FB00BFFFF7F4FE10BD0000000C0140E7
:1036C00010B500241A48006820F4704018490860BA
:1036D0000846006840F40040086000BF012208214D
:1036E0001348FEF74DFB00BFFFF7DAFE00BF0122D3
:1036F00010210F48FEF744FB00BFFFF7D1FE07E0A3
:10370000601CC4B2FA2C03DDFFF7AAFF012010BD34
:1037100008210748FEF722FB0028F1D100BF002254
:1037200010210348FEF72CFB00BF0020EFE700004C
:10373000000C014010B5FFF7B8FE80216B2000F0AF
:10374000D7F8642001F096FD00216B2000F0D0F83E
:10375000032000F08BF8002000F080F8642000F0D7
:10376000AAF80021382000F0C3F800216A2000F0F8
:10377000BFF80021232000F0BBF88021372000F0A3
:10378000B7F8752000F013F80446682C0BD101211E
:103790006B2000F0ADF800216C2000F0A9F8642047
:1037A00000F089F801E0012010BD0020FCE770B5B1
:1037B0000446FFF725FFD020FFF7E2FEFFF780FF6A
:1037C0002046FFF7DDFEFFF77BFFFFF719FFD12053
:1037D000FFF7D6FEFFF774FF0020FFF797FE0546C0
:1037E000FFF73EFF284670BD2DE9F04106460F4623
:1037F00014461D46FFF704FF002141EA4601C8B206
:10380000FFF7BEFEFFF75CFF20B1FFF729FF0120A5
:10381000BDE8F0813846FFF7B3FEFFF751FFFFF731
:10382000EFFE012101EB4601C8B2FFF7A9FEFFF749
:1038300047FF0DE0012C04D10020FFF767FE287040
:1038400003E00120FFF762FE2870601EC4B26D1C09
:10385000002CEFD1FFF704FF0020D9E710B5044694
:10386000E006010E1C2000F043F810BD10B5044620
:10387000E006010E1B2000F03BF810BD70B50446B9
:103880000025BC2C01DB012510E0622C01DB0225A8
:103890000CE02A2C01DB032508E0142C01DB0425B5
:1038A00004E00A2C01DB052500E0062529461A2044
:1038B00000F01EF870BD70B50446B4F57A7F01DDE6
:1038C0004FF47A74042C00DA04244FF47A7090FBDD
:1038D000F4F0401EC5B22946192000F009F805464B
:1038E000264604EBD671C1F34F00FFF7C7FF70BD4A
:1038F00070B505460C46FFF783FED020FFF740FE6B
:10390000FFF7DEFE18B1FFF7ABFE012070BD2846C1
:10391000FFF736FEFFF7D4FE2046FFF731FEFFF734
:10392000CFFE18B1FFF79CFE0120EFE7FFF798FEEE
:103930000020EBE72DE9F04105460E461746984674
:10394000FFF75EFE002141EA4501C8B2FFF718FE0D
:10395000FFF7B6FE20B1FFF783FE0120BDE8F0813E
:103960003046FFF70DFEFFF7ABFE00240CE018F821
:103970000400FFF705FEFFF7A3FE18B1FFF770FE86
:103980000120EBE7601CC4B2BC42F0DBFFF768FE2D
:103990000020E3E710B5044A0021044804F020F9B0
:1039A0000349086010BD00003CBB0008B541000899
:1039B0000000002000B585B0002001900290039027
:1039C000049000BF4A48806940F01000484988616F
:1039D0000846806900F01000009000BF00BF00BFE3
:1039E0000846806940F0200088610846806900F040
:1039F0002000009000BF00BF00BF0846806940F073
:103A0000040088610846806900F00400009000BF4F
:103A100000BF00BF0846806940F008008861084682
:103A2000806900F00800009000BF00BF00224FF442
:103A300000513048FEF7A4F900224FF473412E489C
:103A4000FEF79EF900224FF400412C48FEF798F94A
:103A5000012218212848FEF793F94FF400500190F5
:103A600001200290002003900320049001A9214826
:103A7000FDF7E4FF4FF218000190012002900020B2
:103A800003900320049001A91B48FDF7D7FF4FF4D2
:103A9000805001901A4802900020039001A9174815
:103AA000FDF7CCFF4FF40040019001200290002070
:103AB00003900320049001A91048FDF7BFFF2020C8
:103AC0000190104802900120039001A90A48FDF7D7
:103AD000B5FF4FF440700190112002900020039038
:103AE0000320049001A90448FDF7A8FF05B000BD1C
:103AF0000010024000100140000C0140000801408D
:103B0000000031100000211000B591B000200F908E
:103B100010901C2108A8FCF77BFE20216846FCF7CA
:103B200077FE274827490860002048600021254883
:103B3000816041F61F41C160002101614161802126
:103B40008161FFF750F908B1FDF7E0FE00200F900A
:103B500010900FA91B48FEF7F1FD08B1FDF7D6FE46
:103B600060200890002009900A900B900C900D9016
:103B70000E90002208A91348FFF7B7F808B1FDF727
:103B8000C5FE0C2208A90F48FFF7AFF808B1FDF7F2
:103B9000BDFE0020009001900290039004904FF42D
:103BA000005005900020079069460648FEF78CFDFE
:103BB00008B1FDF7ABFE0348FFF76AF811B000BD8E
:103BC000002C0140BC02002000B58BB0242102A8CB
:103BD000FCF71EFE0020009001904FF08040184935
:103BE0000860002048600021154881604FF6FF7191
:103BF000C1600021016181610320029000200390D7
:103C000001200490002005900A20069000200790D3
:103C100001200890002009900A9002A90848FEF7A8
:103C20003FFE08B1FDF772FE00200090019069464A
:103C30000348FEF783FD08B1FDF768FE0BB000BD39
:103C40000403002000B58BB0242102A8FCF7E0FD9E
:103C50000020009001901948194908600020486030
:103C60000021174881604FF6FF71C160002101619A
:103C70008161032002900020039001200490002025
:103C800005900A200690002007900120089000204F
:103C900009900A9002A90A48FEF702FE08B1FDF752
:103CA00035FE00200090019069460548FEF746FD6C
:103CB00008B1FDF72BFE0BB000BD0000000800406E
:103CC0004C03002010B50B480B4908604FF4E1305D
:103CD0004860002108488160C16001610C21416198
:103CE00000218161C161FFF7EDF908B1FDF70EFE1A
:103CF00010BD0000003801409403002010B50B48AF
:103D00000B4908604FF4E1304860002108488160A9
:103D1000C16001610C21416100218161C161FFF736
:103D2000D1F908B1FDF7F2FD10BD000000480040D8
:103D3000D403002000BFFEE700BFFEE770B50024FB
:103D40000CE0002506E00020074901EBC5010855FD
:103D5000681CC5B2802DF6DB601CC4B2082CF0DBF9
:103D600000F0D4F870BD00003839002010B50446CA
:103D70001CB90021A62000F0C0F9012C03D10021BC
:103D8000A72000F0BAF910BD10B504463CB90021D7
:103D9000C82000F0B2F90021A12000F0AEF9012CFA
:103DA00007D10021C02000F0A8F90021A02000F0D8
:103DB000A4F910BDF0B514460B46CF1701EB5777A9
:103DC000C7F3C702CF1701EB5777FF10A1EBC70767
:103DD000FEB20123B340DDB24CB1134B03EBC00381
:103DE0009B5C2B43104F07EBC007BB541AE00E4BF4
:103DF00003EBC0039B5CDB430B4F07EBC007BB54DB
:103E0000094B03EBC0039B5C2B43074F07EBC00739
:103E1000BB54054B03EBC0039B5CDB43024F07EB3A
:103E2000C007BB54F0BD00003839002010B5C820D1
:103E3000FDF7C8FD0021AE2000F05FF90021084623
:103E400000F05BF90021102000F057F9002140201C
:103E500000F053F90021812000F04FF90021CF201C
:103E600000F04BF90021A12000F047F90021C82003
:103E700000F043F90021A62000F03FF90021A8201E
:103E800000F03BF900213F2000F037F90021D3205A
:103E900000F033F90021084600F02FF90021D52069
:103EA00000F02BF90021802000F027F90021D92013
:103EB00000F023F90021F12000F01FF90021DA20A1
:103EC00000F01BF90021122000F017F90021DB207F
:103ED00000F013F90021302000F00FF9002120201C
:103EE00000F00BF90021022000F007F900218D20DD
:103EF00000F003F90021142000F0FFF8FFF71EFF87
:103F00000021AF2000F0F9F810BD000070B50024CA
:103F10002BE004F1B001C8B2002100F0EEF800215E
:103F2000084600F0EAF80021102000F0E6F8FFF75C
:103F3000DFF9782000F012F9FFF710FA402000F0C6
:103F40000DF9FFF70BFA002509E0094901EBC5015E
:103F5000085D00F003F9FFF701FA681CC5B2802D77
:103F6000F3DBFFF7E5F9601CC4B2082CD1DB70BDB0
:103F7000383900202DE9FE4F0746884692461C46F8
:103F80000197CDF80080082C02D14FF006091FE000
:103F90002046E31704EB5373DB1021464FEAE47C21
:103FA00004EB5C7C4FEAEC0CA4EBCC0CBCF1000FF6
:103FB00002D04FF0010C01E04FF0000C63442246A8
:103FC00004EBD27C4FEA6C0C03FB0CF303F0FF090B
:103FD000AAF12000C6B200255EE0082C07D106EB4E
:103FE00046002F4901EB400010F805B01DE00C2CF5
:103FF00007D106EB46002B4901EB800010F805B015
:1040000013E0102C05D1284800EB061010F805B07D
:104010000BE0182C07D106EBC600244901EB800009
:1040200010F805B001E0BDE8FE8F002002901CE012
:104030000BF0010028B1414638460C9AFFF7BAFE52
:1040400009E00C9808B9012000E000200246414632
:104050003846FFF7AFFE4FEA6B0B08F1010000F0A6
:10406000FF080298401CC0B2029002980828DFDBCB
:10407000781CC7B2082C0BD004EBD4714A100199FC
:10408000791A8A4204D1019F00980830C0B200908A
:10409000DDF80080681CC5B24D459EDB00BFC2E75D
:1040A00078BB0008A0BD000814C2000804C80008BE
:1040B0002DE9F84106460F4614461D46DDF81C80E2
:1040C00013E0CDF8008022782B4639463046FFF7C2
:1040D00051FF082D02D1B01DC6B205E0284605EB00
:1040E000D07106EB6101CEB2641C2078202802DB7F
:1040F00020787E28E5DDBDE8F88170B505460C46E0
:10410000FFF7F6F8782000F029F8FFF727F91CB13F
:10411000402000F023F802E0002000F01FF8FFF735
:104120001DF9284600F01AF8FFF718F9FFF700F913
:1041300070BD000008B508490968C9084FF47A72D3
:10414000B1FBF2F14143009100BF00BF00994A1E4C
:1041500000920029F9D108BD1000002070B5044676
:10416000002521E004F0800028B10122510210480E
:10417000FDF706FE05E000224FF400710C48FDF744
:10418000FFFDFFF705F9012211020948FDF7F8FDCF
:10419000FFF7FEF800224FF480710548FDF7F0FDAF
:1041A0006006040E681CC5B2082DDBDB70BD000084
:1041B000000C01407CB5054603220021012005F0DA
:1041C00071FB3A49086004F071FE3948052100236B
:1041D0004FF48072CDE9001036A13A4805F0E2FFB5
:1041E0000446012C09D1082337A21946009000206B
:1041F000FFF75EFFFFF78AFE09E00120082337A2E0
:10420000194600900020FFF753FFFFF77FFE384864
:10421000042100238A01CDE9001036A1394805F0B8
:10422000C1FF0446012C09D1082337A210210090B8
:104230000020FFF73DFFFFF769FE09E0012008239A
:1042400036A2102100900020FFF732FFFFF75EFE3C
:104250003748032100238022CDE9001035A13848DA
:1042600005F0A0FF0446012C09D1082335A218212E
:1042700000900020FFF71CFFFFF748FE09E0012037
:10428000082334A2182100900020FFF711FFFFF748
:104290003DFE4FF47A7000F0EDFFFFF74FFD002078
:1042A00004F050FF04F02CFE7CBD000058010020FB
:1042B0004C010020636F6E74726F6C5F7461736B7E
:1042C00000000000E9510008434F4E54524F4C5F2C
:1042D0005441534B204F4B2100000000434F4E549C
:1042E000524F4C5F5441534B204552522100000025
:1042F00050010020646973706C61795F7461736B45
:1043000000000000D5520008444953504C41595F09
:104310005441534B204F4B2100000000444953505F
:104320004C41595F5441534B2045525221000000EB
:10433000540100206C65645F7461736B00000000C1
:10434000116700084C45445F5441534B204F4B21AB
:10435000000000004C45445F5441534B20455252ED
:104360002100000010B500BF502080F31188BFF37A
:104370004F8FBFF36F8F00BF05F0B8FF18B14FF03C
:1043800080500449086000BF002080F3118800BFFE
:1043900010BD000004ED00E000B58FB0282105A895
:1043A000FCF736FA14216846FCF732FA0120059032
:1043B00000040690002007900120099002200C9034
:1043C000C1030D914FF4E0110E9105A8FDF748FFD0
:1043D00008B1FDF79BFA0F20009002200190002009
:1043E00002904FF480600390002004900221684600
:1043F000FDF7DEFD08B1FDF789FA0FB000BD70478B
:1044000010B50248FEF779FB10BD0000140400202F
:1044100010B50268184B984208D0B0F1804F05D013
:10442000164B984202D0164B984203D122F07002EC
:104430004B681A43104B984208D0B0F1804F05D01A
:104440000E4B984202D00E4B984203D122F4407298
:10445000CB681A4322F080034C6943EA04020260ED
:104460008B68C3620B688362034B984201D10B696E
:1044700003630123436110BD002C01400004004090
:104480000008004030B501F01F05012404FA05F3CF
:10449000046A9C430462046A01F01F0502FA05F5F0
:1044A0002C43046230BD000030B5056A25F00105DB
:1044B0000562026A4368846924F0700424F00304EE
:1044C0000D682C4322F002028D682A430D4DA8424C
:1044D00006D100BF22F00802CD682A4322F0040270
:1044E000084DA84207D123F4807323F400734D696B
:1044F0002B438D692B43436084614D6845630262A1
:1045000030BD0000002C014030B5056A25F01005D3
:104510000562026A4368846924F4E04424F4407428
:104520000D6844EA052422F020028D6842EA051253
:104530000E4DA84207D100BF22F08002CD6842EAAA
:10454000051222F04002094DA84209D123F48063EC
:1045500023F400634D6943EA85038D6943EA8503CB
:10456000436084614D688563026230BD002C014068
:1045700030B5056A25F480750562026A4368C4692E
:1045800024F0700424F003040D682C4322F400721C
:104590008D6842EA05220F4DA84207D100BF22F4E0
:1045A0000062CD6842EA052222F48062094DA842E9
:1045B00009D123F4805323F400534D6943EA0513D2
:1045C0008D6943EA05134360C4614D68C5630262A7
:1045D00030BD0000002C014030B5056A25F480553F
:1045E0000562036A4468C26922F4E04222F4407220
:1045F0000D6842EA052223F400538D6843EA05332F
:10460000064DA84204D124F480444D6944EA85143F
:104610004460C2614D680564036230BD002C0140F6
:1046200070B505466C6A0020E085E0842046FEF700
:104630009EFC70BD0168C96821F490710268D16068
:104640000168496921F0010102685161202180F867
:104650003A10704710B504462068C06820F040004A
:104660002168C860202084F839002046FEF73CFE0F
:10467000002010BD70B5044694F83A00222847D1B6
:10468000A068B0F5805F0CD1206950B90025A66AFA
:1046900020684068C0F308003080A06A801CA062D7
:1046A00015E0A56A0026A068B0F5805F03D0A06879
:1046B00028B9206918B920684068287004E020688B
:1046C000406800F07F002870A06A401CA062E08D66
:1046D000401E80B2E085C8B92068C06820F0200084
:1046E0002168C8602068C06820F480702168C860B4
:1046F0002068406920F0010021684861202084F88A
:104700003A002046FEF7DCFD002070BD0020FCE7EB
:104710000220FAE770B504462168096921F4405186
:10472000E2681143226811612269A168114362693C
:1047300041EA02052168C96841F20C6291432943AC
:104740002268D1602168496921F44071A26911434E
:10475000226851612D4A2168914202D1FDF726FD60
:1047600001E0FDF713FD00EBC00101EB00116268F1
:104770009200B1FBF2F100EBC00202EB00126368A1
:104780009B00B2FBF3F26423B2FBF3F202EBC20331
:1047900003EB0212A1EB8201322202EB011164222F
:1047A000B1FBF2F101F0F00100EBC00202EB0012EC
:1047B00063689B00B2FBF3F26423B2FBF3F201EBFC
:1047C000021200EBC00101EB001163689B00B1FB1A
:1047D000F3F100EBC00303EB00136668B600B3FB14
:1047E000F6F36426B3FBF6F303EBC30606EB031301
:1047F000A1EB8301322303EB01116423B1FBF3F13D
:1048000001F00F0111442268916070BD0038014031
:10481000014691F83900212828D18868B0F5805FD9
:104820000BD1086948B90A6A1088C0F308000B6800
:104830005860086A801C086205E00B6A581C086210
:1048400018780B685860C88C401E80B2C88458B96C
:104850000868C06820F080000B68D8600868C068ED
:1048600040F040000B68D860002070470220FCE751
:1048700010B50248FEF77CFB10BD00009403002039
:1048800010B50248FEF774FB10BD0000D4030020F1
:1048900000BFFEE7490050EAC12018BF04204A0DBE
:1048A00018BF40F0010040F2FF72B2EB515F08BF49
:1048B00040F00200012808BF052070470248006848
:1048C000C0F30220704700000CED00E010B5002896
:1048D00004DB0A07130E054A135406E00A07140EF8
:1048E000034A00F00F031B1FD45410BD00E400E086
:1048F00018ED00E0EFF311807047EFF3058070478B
:10490000EFF3108070472DE9F0414F1E00EBC70117
:104910000446D1E9000115461E4637F006020DD0C7
:104920002A46334606F00CFA7F1E04EBC703D3E990
:10493000002305F0B5FF37F00602F1D1022F25D094
:10494000042F13D0062F18BFBDE8F0812A46334646
:1049500006F0F6F9D4E90A2305F0A2FF2A46334609
:1049600006F0EEF9D4E9082305F09AFF2A4633460B
:1049700006F0E6F9D4E9062305F092FF2A4633460D
:1049800006F0DEF9D4E9042305F08AFF2A4633460F
:1049900006F0D6F9D4E9022305F082FF2A46334611
:1049A00006F0CEF9D4E90023BDE8F04105F078BF68
:1049B000012207F07CB805F073BF002213461046B1
:1049C000114606F029B80000024A0020110707F03E
:1049D0006EB8000001FDFFFF30380A2801D2012027
:1049E00070470020704700BF704700002DE9FE4F60
:1049F00006460F460025684601F036FB002442E0DB
:104A000056F8240057F82410A0EB010ABAF1000F61
:104A100001DB514601E0CAF10001084606F036FE0E
:104A200083464FF08F4106F0FFFC80465DF824007E
:104A3000002106F0BBFD16D05DF82410404606F0BC
:104A4000F3FC82464FF07E5106F088FF814629F044
:104A5000004A0F48416A504606F044FF12D2012036
:104A6000A04005430EE00A48C169404606F03AFE00
:104A700005D30748016A404606F034FF02D2012000
:104A8000A0400543641C032CBADB2846BDE8FE8F1A
:104A9000B0D900082DE9F04D8D4F21F0004A86B0C5
:104AA00005460C46BA452ADBAAEB070028430AD084
:104AB0008848824501DC1AD1CDB106B02846BDE850
:104AC000F04DFFF775BF844A844B284606F038F94D
:104AD00007460E46824A834B2846214606F030F9A7
:104AE00006B03A463346BDE8F04D05F0D9BE012088
:104AF000FBF7BEFE06B0BDE8F04DFFF75EBF7A489B
:104B0000824542DABAF1795F0BDA2846FFF7C2FE36
:104B1000042808BFFFF758FF284606B02146BDE825
:104B2000F08D2A460B46104606F00AF983460246E7
:104B30006E480E460B4606217844FFF7E4FE5A46BF
:104B4000334606F0FDF8804669488A465A463346A1
:104B500004217844FFF7D7FE5A46334606F0F0F8B2
:104B600000223B4605F09CFE02460B46404651465D
:104B700005F052FF2A46234606F0E2F806B02A4620
:104B80002346BDE8F04D05F08BBE284624F00041D9
:104B900000223D463B4606F0D1F94FF0FF3206F0C9
:104BA00086FF0646024653480F460B4606217844C8
:104BB000FFF7A9FE32463B4606F0C2F8CDE90001F8
:104BC0004D4832463B4604217844FFF79CFE32466E
:104BD0003B4606F0B5F800222B4605F061FE834601
:104BE00002913046394603F029FF804643480D467E
:104BF000504517DCDDE900015A46029B05F00CFF29
:104C000042462B4606F09CF842462B4605F048FEED
:104C1000012206F04CFF304A304B06F081FA304A50
:104C2000304B4CE04FF0000A52460B46404605F030
:104C300037FECDE9031052462B461046194606F0C2
:104C40007FF832463B4606F079F9DDE9033205F09C
:104C5000E3FE06460F46DDE900015A46029B05F0D9
:104C6000DBFE8346009101223046394606F01FFFE5
:104C7000194A1A4B06F062F906460F4601224046D1
:104C8000294606F014FF5A46009B06F059F83246B2
:104C90003B4606F045FA06460F4601225046294695
:104CA00006F005FF0E4DDFF858802A46434606F011
:104CB00045F932463B4606F041F92A46434606F09E
:104CC0003DF9002CD8BF81F0004106B0BDE8F08D61
:104CD0000000F03F0000F07F075C143326A6913CF3
:104CE000182D4454FB21F93F0000E03FA49A000036
:104CF000BA9A00002E9A0000449A00003333EF3F26
:104D0000FB21E93F2DE9F84F04460D4621F0004014
:104D100000917349814211DC7249884201DC06D15D
:104D20002CB120462946BDE8F84FFFF741BE6E483A
:104D3000002DCCBF6D496E49BDE8F88F6D498142A9
:104D400011DD6D498142D8BF4FF0FF366DDD204641
:104D50002946FFF79FFD042808BFFFF735FE2046D0
:104D60002946BDE8F88F6549654F25F00045814229
:104D700033DD6449814219DD002632464FF080431D
:104D80002046294605F08CFD80468A4601222046B1
:104D9000294606F08CFE00223B4606F0C1F9424649
:104DA000534605F039FE04460D463EE0012600223A
:104DB000BA463B462046294605F072FD80460F461E
:104DC000002253462046294606F0AAF942463B46B1
:104DD00005F022FE04460D4627E04B4981421BDDCB
:104DE000DFF828A10226002253462046294605F076
:104DF000A7FF00223B4605F053FD80460F460022E8
:104E000053462046294606F08BF942463B4605F0BC
:104E100003FE04460D4608E0032622462B460020EA
:104E20003B4905F0F9FD04460D4622462B46104647
:104E3000194605F085FF8B46824602460B4605F073
:104E40007FFF07460246334888460B4606217844D2
:104E5000FFF759FD52465B4605F072FF82462E4829
:104E60008B463A46434605217844FFF74CFD3A46C7
:104E7000434605F065FF02460B46002E5046594654
:104E80000CDA05F00DFD22462B4605F059FF01B066
:104E900022462B46BDE8F04F06F050B805F000FD65
:104EA00022462B4605F04CFF1C4A7A4402EBC6030F
:104EB000D3E9002306F034F922462B4606F030F9F8
:104EC000174A7A4402EBC603D3E9002306F036F80A
:104ED000009A002AB8BF81F00041BDE8F88F0000B9
:104EE000000010440000F07F182D4454FB21F93FCE
:104EF000FB21F9BF0000DC3F0000203E0000F33F33
:104F00000000F03F0000E63F008003400000F83F53
:104F10000000F0BF4698000004980000A29700002F
:104F20006A9700002DE9F04D9446CCF1000423F07F
:104F300000464CEA0404594F46EAD4749A4688461F
:104F400021F00042BC4206D8454240EA050442EA4C
:104F5000D474BC4204D9BDE8F04D6246FFF72BBDC6
:104F6000AAF14055A5F17F6555EA0C040BD0022447
:104F700004EAAA744A4DDFF82CE144EAD87452EAF4
:104F8000000B04D00CE0BDE8F04DFFF7BBBE002CD9
:104F900014BF012CBDE8F08D022C30D0032C32D090
:104FA00056EA0C0B0AD0BE4220D1BA4209D126F0F3
:104FB000804622F080423346114617E000291ADB72
:104FC00025E0DFF8E4B0FB44002C04BFDBE900017E
:104FD000BDE8F08D012C02BFDBE9000181F000414A
:104FE000BDE8F08D022C0AD0032C0CD0BA4212D1AD
:104FF000B8F1000F0BDA2A482C49BDE8F08D28469D
:105000002B49BDE8F08D28467146BDE8F08D244857
:105010002849BDE8F08D921B12153C2AC4BF204FD1
:10502000244E10DCBAF1000FBEBF12F13C0F002776
:105030003E4608DB624605F0EFFC21F00041FFF739
:1050400061FE07460E4694B1012C08BF86F000466B
:105050000DD0194A194B022C3846314615D006F0AE
:105060005FF82A46BDE8F04D114B06F059B8002212
:1050700013463846314605F027FE04BF0220FBF7F1
:10508000F7FB38463146BDE8F08D06F049F82A4670
:10509000BDE8F04D064B05F051BF00000000F07F69
:1050A000182D4454FB2109C0FE960000FB21F9BFD6
:1050B000FB210940FB21F93F075C143326A6A13CE4
:1050C0002DE9F041324803F003FC404231490860C9
:1050D000314803F0FDFB31490860314A314932481B
:1050E00001F048FC314A32493248FEF781F9324A30
:1050F00032493348FEF754F92848026825480168C8
:105100003048006804F0B6FA2F4908602948B0F921
:10511000000006F0BBFA06462B48006806F0B6FA17
:1051200007462A480168384606F010F90546324617
:105130001C480168284604F015FB254908601B48F7
:10514000B0F9000006F0A2FA054622480168284698
:1051500003F0EAFC204908601D480468084600681E
:10516000201A1E4908601C48006820441C49086039
:105170001A4801F0DBFA1A4801681848006801F083
:10518000F3FA0849114803F07FFCBDE8F081000004
:1051900004030020180100204C0300201C01002003
:1051A0009C0000209800002094000020AA0000200D
:1051B000A8000020A6000020A4000020A2000020DB
:1051C000A00000203401002020010020F800002071
:1051D0002401002038010020280100202C0100209B
:1051E0003001002070470000002205211720FCF745
:1051F0008DFE1720FCF77AFE07E04FF0FF310348E1
:10520000006804F0ADFEFFF75BFFF6E758010020F1
:105210002DE9F0410446E07800F0C006E07800F0A7
:105220003F05607800F0010098B1EF102846E917BB
:1052300005EB5171C910A5EBC101491C01F0FF0834
:105240000B48006820B10A4841460268384690473A
:1052500000BF607800F0080030B10548406818B120
:10526000B011034A516888470020BDE8F081000072
:10527000B83D002030B50446002504E04FF47A70B4
:1052800000F004F86D1CA542F8DB30BDF0B5044613
:105290000F4A00231768FD6A04FB05F74FF47A7C78
:1052A000B7FBFCF61768796A0FE01768786A8842DE
:1052B0000BD0884202D9471A3B4402E06F1A0744D8
:1052C0003B440146B34200D300E0EEE700BFF0BD2F
:1052D0001404002008B559E02D48006806F00AF8CB
:1052E000044622460B462BA12E48FBF799F80120D5
:1052F00008232C4A002100900846FEF7D9FE2A48D0
:10530000006805F0F7FF044622460B4627A1254812
:10531000FBF786F801200823224A19460090002056
:10532000FEF7C6FE2448006805F0E4FF0446224666
:105330000B4622A11B48FBF773F801200823194AEA
:10534000102100900020FEF7B3FEFEF7DFFD1E489F
:105350001EA102681348FBF763F801200823114AD5
:10536000182100900020FEF7A3FE1C481CA1026833
:105370000C48FBF755F8012008230A4A2021009029
:105380000020FEF795FE642003F0AEFEA4E70000C7
:105390009400002050697463683A25342E316620E9
:1053A000000000005C01002098000020726F6C6C0F
:1053B0003A25342E316620009C0000207961773A2E
:1053C00025342E316620000018010020656E636FC1
:1053D000646572323A253564200000001C0100200B
:1053E000656E636F646572343A2535642000000091
:1053F00038B5044664B120208DF8000028208DF8CF
:10540000010030208DF8020038208DF8030004E000
:10541000A32204216846FBF7F3F96A46042140F60B
:105420009E2002F05BFB01F045FF38BD3EB504460F
:1054300002208DF80000CA208DF80100E3208DF8CD
:10544000020009208DF803006A460421682002F05A
:1054500045FBA3208DF8000004F0400048B1C020B7
:105460008DF80100C8208DF80200C2208DF80300DD
:1054700006E0A3208DF801008DF802008DF80300EE
:1054800004F4C07048B1C4208DF80400CC208DF81D
:105490000500C6208DF8060006E0A3208DF8040064
:1054A0008DF805008DF80600A3208DF807008DF813
:1054B00008008DF809006A460A2140F6A72002F08C
:1054C0000DFB04F0030018B120208DF8000002E06D
:1054D000D8208DF800006A46012140F6B62002F07F
:1054E000FDFA04F0200018B1012000F0ADF802E050
:1054F000002000F0A9F804F4C07008B304F4807030
:1055000060B1B2208DF800008B208DF80100B6202C
:105510008DF802009B208DF803000BE0B0208DF881
:10552000000080208DF80100B4208DF8020090204A
:105530008DF803006A46042140F6A22002F0CEFA5C
:1055400004F0010020B3F8208DF800006A46012124
:105550004FF40B6002F0C2FAFA21072000F02CFC95
:10556000072000F0F3FB012000F013FC642000F0A2
:10557000F3FC4FF4FA7000F002FDC821304800F04F
:10558000A3FB282000F0BCFB0A2000F0CCFB08E0C5
:10559000D8208DF800006A4601214FF40B6002F01C
:1055A0009DFA04F0020018B1D9208DF8000002E045
:1055B000D8208DF800006A46012140F23D7002F0CB
:1055C0008DFA04F0040018B1012000F069F802E03F
:1055D000002000F065F804F0100018B10120FFF77A
:1055E00007FF02E00020FFF703FF44F00800154921
:1055F000488101F05FFE00201249887304F04000EA
:1056000018B10846807B801D887304F4C07020B1F7
:105610000C48807B801D0B49887304F0140020B176
:105620000848807B10300749887304F0030020B1DC
:105630000448807B001D0349887300203EBD0000A4
:1056400009E3CA02B83D00203EB504466CB10EA184
:10565000D1E900208968CDE9002002916A4609213C
:105660004FF4976002F03AFA3EBD0AA2D2E9001068
:105670009268CDE9010200916A4609214FF49760D2
:1056800002F02CFAF0E70000B8AAB38DB4980D35FB
:105690005D000000B8AAAAAAB088C3C5C700000070
:1056A00038B5044664B1C0208DF80000C2208DF8E2
:1056B0000100C4208DF80200C6208DF8030004E02C
:1056C0008B2204216846FBF79BF86A46042140F6CA
:1056D000982002F003FA01F0EDFD38BD10B5C823A3
:1056E0004FF48062024940F6F63001F077FC10BDBD
:1056F000D8D900082DE9F04F8DB0074688461546E9
:105700009946DDE9166B0024002030806B49887BC8
:105710005A4605A901F02EFD18B1601E0DB0BDE876
:10572000F08F6648807A00F01400002867D09DF85A
:10573000140000069DF8151040EA01409DF816106F
:1057400040EA01209DF81710084328609DF81800D2
:1057500000069DF8191040EA01409DF81A1040EA31
:1057600001209DF81B10084368609DF81C0000068E
:105770009DF81D1040EA01409DF81E1040EA0120EE
:105780009DF81F100843A8609DF8200000069DF8B2
:10579000211040EA01409DF8221040EA01209DF8C6
:1057A00023100843E86004F11000C4B22868001414
:1057B0000190686800140290A86800140390E868DB
:1057C0000014049001984043029901FB01000399E1
:1057D00001FB0100049901FB010ABAF1706F02DBC1
:1057E000BAF1885F05DD01F065FD00203080401EC4
:1057F00094E7B6F9000040F48070308000BF2F4875
:10580000807A00F0400020B305A9601C085C095DA7
:1058100040EA012000B2A8F8000005A9E01C095CDC
:1058200005AAA01C105C41EA002000B2A8F8020002
:1058300005A9601D095C201D105C41EA002000B232
:10584000A8F80400A01DC4B2B6F9000040F008009A
:1058500030801A48408900F4C07008B305A9601C64
:10586000085C095D40EA012000B2388005A9E01C0F
:10587000095C05AAA01C105C41EA002000B27880F7
:1058800005A9601D095C201D105C41EA002000B2E2
:10589000B880A01DC4B2B6F9000040F0700030809E
:1058A0000648807A00F0030018B105A90819FFF72F
:1058B000AFFC484601F024F800202FE7B83D002057
:1058C00070B588B0064601A801F0DCF9BDF8040007
:1058D0000021C90341EA5045C4034448007A00F05E
:1058E000030056F8200005904048007A00F00400BC
:1058F00010B10598404205903C48007AC0F3C100C1
:1059000056F8200006903948007A00F0200010B1C7
:105910000698404206903548007AC0F3811056F848
:10592000200007903148008900F4807010B107987A
:10593000404207900598C117A0FB042301FB0431E6
:1059400000FB0510810041EA927005900698C1178E
:10595000A0FB042301FB043100FB0510810041EA98
:10596000927006900798C117A0FB042301FB043135
:1059700000FB0510810041EA927007900598000E27
:105980008DF808000598000C8DF809000598000AAC
:105990008DF80A000598C0B28DF80B000698000E2D
:1059A0008DF80C000698000C8DF80D000698000A82
:1059B0008DF80E000698C0B28DF80F000798000E03
:1059C0008DF810000798000C8DF811000798000A58
:1059D0008DF812000798C0B28DF8130002AA0C21AE
:1059E0004FF4257002F07AF808B070BDB83D002081
:1059F00030B585B0044616A207CA02AB07C3C82C4F
:105A000003DD4FF0FF3005B030BDC82090FBF4F04F
:105A1000401E85B2280A8DF80000E8B28DF801001A
:105A20006A46022140F2162002F058F810B14FF0F9
:105A3000FF30E8E702AA0C2140F6C12002F04EF840
:105A400010B14FF0FF30DEE7044884810020DAE730
:105A5000FEF2ABC4AAF1DFDFBBAFDFDFB83D002051
:105A60001FB504464848007A00F0030054F82000AF
:105A700001904548007A00F0040010B101984042BE
:105A800001904148007AC0F3C10054F82000029010
:105A90003D48007A00F0200010B102984042029088
:105AA0003948007AC0F3811054F82000039036483A
:105AB000008900F4807010B103984042039033498C
:105AC000019880FB0101800F40EA810001902F497D
:105AD000029880FB0110820042EA917002902B49EB
