:020000040800F2
:10000000100E0020A9010008193A00081F2F00084F
:10001000153A0008291600080144000800000000F5
:100020000000000000000000000000003D3E00084D
:100030002D16000800000000133E0008993E00083D
:10004000C3010008C3010008C3010008C301000880
:10005000C3010008C3010008C3010008C301000870
:10006000C3010008C3010008C3010008C301000860
:10007000C3010008C3010008C3010008C301000850
:10008000C3010008C3010008C3010008C301000840
:10009000C3010008C3010008C3010008C301000830
:1000A000C3010008C3010008C3010008C301000820
:1000B000C3010008C3010008C3010008C301000810
:1000C000C3010008C3010008C3010008C301000800
:1000D000C3010008E1430008C3010008F143000820
:1000E0002F160008C3010008C301000800F002F841
:1000F00000F04AF80AA090E8000C82448344AAF178
:100100000107DA4501D100F03FF8AFF2090EBAE875
:100110000F0013F0010F18BFFB1A43F0010318473B
:100120004CB700006CB70000103A24BF78C878C103
:10013000FAD8520724BF30C830C144BF04680C60ED
:10014000704700000023002400250026103A28BF35
:1001500078C1FBD8520728BF30C148BF0B60704739
:10016000662908F0DE84642900F0AC800020704726
:100170001FB500F01BFD04000020002107F096FBD6
:10018000E0601FBD10B510BD00F018FE1146FFF76E
:10019000EFFF05F047FF00F036FE03B4FFF7F2FF74
:1001A00003BC04F0CEF90000094880470948004725
:1001B000FEE7FEE7FEE7FEE7FEE7FEE7FEE7FEE717
:1001C000FEE7FEE704480549054A064B7047000074
:1001D000073F0008ED00000810080020100E002066
:1001E000100A0020100A0020704710B54C1084EA55
:1001F000530404D54042C1F1000138BF491E1B42DF
:1002000004D55242C3F1000338BF5B1E00F091F9E0
:1002100014F0804F04D04042C1F1000138BF491EA4
:1002200014F0004F04D05242C3F1000338BF5B1EEC
:1002300010BD00000FB4044910B503AA029800F0E5
:1002400081FC10BC5DF814FB740000200FB41CB5D9
:10025000074B06AA7B4469460090059800F059FCBC
:100260000020694600F068FC1CBC5DF814FB00002F
:10027000E108000070B5044685690068C10601D533
:10028000302600E02026C00707D070BDD4E9012148
:1002900030469047206A401C20626D1EF6D570BD26
:1002A00070B5044685690078C00707D170BDD4E9F0
:1002B000012120209047206A401C20626D1EF6D547
:1002C00070BD00002DE9F041064600241068752934
:1002D000314616A510D0AFF30080002802DA404264
:1002E00013A507E031688A0701D512A502E0490786
:1002F00004D511A5012401E0AFF3008000210A22FA
:1003000006F1240709E0B0FBF2FCB0FBF2F302FBBC
:100310001C00303078541846491C0028F3D123467D
:100320002A463046BDE8F04100F085B900000000E3
:100330002D0000002B000000200000002DE9F05FE0
:10034000894604464FF0000ADFF824B1FB44C0F8A8
:1003500020A02046E168884700287DD0252806D0C7
:10036000D4E901219047206A401C2062F1E7002572
:100370005F462046E16888472028064607DB312E85
:1003800005D2B81910F8200C08B10543F1E7A80709
:1003900001D525F00405C4F81CA00027C4F818A056
:1003A0002A2E09D0304604F0C5F838B304EB87088C
:1003B000303EC8F8186019E059F8041B204604EBD9
:1003C00087029161E1688847012F064618D1E069EC
:1003D000002820DA25F020051DE0D8F8180000EBF1
:1003E000800006EB40003038C8F818002046E1686D
:1003F0008847064604F09EF80028EED1012F0AD067
:100400002E2E08D12046E16888477F1C0646022F21
:1004100045F02005C4DBA069002803DA404245F01E
:100420000105A061E80701D025F01005A6B1A6F1ED
:100430004100192802D8203645F400654A46314665
:10044000204625604D46FFF78BFE60B1012807D09E
:10045000ED1D25F0070000E007E000F1080978E74E
:1004600005F1040975E730467AE7206ABDE8F09F98
:1004700036B3000040EA010310B59B070FD1042AF0
:100480000DD310C808C9121F9C42F8D020BA19BA5F
:10049000884201D9012010BD4FF0FF3010BD1AB1C4
:1004A000D30703D0521C07E0002010BD10F8013B19
:1004B00011F8014B1B1B07D110F8013B11F8014B40
:1004C0001B1B01D1921EF1D1184610BD02F0FF0393
:1004D00043EA032242EA024200F048BB4FF0000226
:1004E00000B5134694469646203922BFA0E80C502A
:1004F000A0E80C50B1F12001BFF4F7AF090728BF05
:10050000A0E80C5048BF0CC05DF804EB890028BF80
:1005100040F8042B08BF704748BF20F8022B11F0A9
:10052000804F18BF00F8012B704770477047704725
:10053000704753EA020C00F069802DE9F04B4FF050
:100540000006002B1FBFB3FA83F503FA05F424FA63
:1005500005F65E4012BF1643B2FA82F502FA05F4C0
:10056000C5F120051EBF22FA05FC44EA0C04203523
:1005700056EA044C4FEA144418BF641C4FF00008BC
:100580004FF00009904271EB030C39D3002919BFD9
:10059000B1FA81F701FA07F6B0FA80F700FA07F628
:1005A000C7F120071EBF20FA07FC46EA0C062037D9
:1005B000B6FBF4FCA7EB0507103F07F01F0BCBF1D0
:1005C00020060CFA0BFB2CFA06F644BFB3460026B5
:1005D000202FA4BF5E464FF0000B5BEA060C08BF5D
:1005E0004FF0010B19EB0B09ABFB027C48EB060843
:1005F000C01B06FB02CC0BFB03CC71EB0C01C1E76B
:100600000B46024641464846BDE8F08B13B54FF015
:1006100000004FF00001AFF30080BDE81C407047C0
:1006200010B500F0C7FA006810BD10B5044600F020
:10063000C1FA046010BD2DE9F0470D469946924677
:10064000044600F124080168880604D5E06921F019
:100650001001216000E00120A84201DD471B00E0FD
:100660000027A1697A1902EB0900081AA061207815
:10067000C00602D42046FFF7FDFD002608E0D4E9BD
:1006800001211AF806009047206A401C761C20625F
:100690004E45F4DB2078C0060AD52046FFF7EAFD78
:1006A00006E0D4E9012130209047206A401C2062F6
:1006B000381EA7F10107F4DC07E0D4E9012118F89E
:1006C00005009047206A401C2062281EA5F1010504
:1006D000F3DC2046FFF7E4FD2078000602D5022077
:1006E000BDE8F0870120FBE770472DE9FF4F0C467E
:1006F0001E464FF0FF378BB0D2E90001DDF8608075
:100700000A908A46C1F30A5505B93D4600210846BC
:100710004FF00000BAF1000F00F4400005DA00EBE2
:1007200080004FF4400101EA50004FEA9059B9F1BE
:10073000010F00DDB9460A9850EA4A000ED044F68F
:100740001050A5F2FF3545432F14B8F1000F1ED00D
:100750007542291E1EDDC9F100021CE0B8F1010F2F
:100760004FF0000001D0302103E0F24305E02154B6
:10077000401CB042FBDB30460022002121540B9983
:10078000C1F80880C1E900200FB0BDE8F08FBD1BA3
:100790006D1CDEE74A4600DA694206A800F094FACA
:1007A00006AB93E8070003AB83E8070050460A99BD
:1007B00000F072FB8DE80700A0F500501F38009094
:1007C0000398002D0ADD42F21F014A460844002327
:1007D00003A90390684600F0DBFD09E0A0F5005096
:1007E0004A461F38002303A90390684600F0E5FD40
:1007F0008DE807000004000C03D04FF0FF304108E3
:1008000000E01046B8F1000F03D000220092154618
:100810001EE0751E05D400F0D1F9303262556D1E10
:10082000F9D5B3460122084302D000227F1C04E020
:100830002078302801D100227F1E002A099784D019
:100840001DE0112D07DA00F0B9F9303262556D1C48
:1008500050EA0102F5D1084302D00098C8B10EE079
:100860000021681E05E0235C625C63542254401E34
:10087000491C8142F7DBAB46A81B401E09900020B3
:1008800004F80B000B98099AC0F80880C0E9002B07
:100890007AE711264FF0000857E72DE9F04F884618
:1008A0000446D21D22F0070191B0D1E90001CDE943
:1008B0000A0103F0A7FD02460B98C00F01D02D20BE
:1008C00007E02068810701D52B2002E0202101EA02
:1008D000C000032A099001D0072A05DB03464146E0
:1008E000204600F0B1F90BE12078800601D5E069DF
:1008F00000E00620B8F1650F814606D0B8F1660F1A
:1009000018D0B8F1670F70D131E00020B9F1110FA4
:10091000009001DB112301E009F101030AAA01A9FA
:100920000CA8FFF7E2FEDDE90C70002609F10105D5
:10093000834647E001204B4600904FF000470AAA4B
:1009400001A90CA8FFF7D1FEDDE90DB00C995D46B9
:10095000002610B909F101000D18B9EB050003D408
:10096000C0F1FF3609F10105A5EB09002BE0B9F153
:10097000010F01DA4FF001090020B9F1110F0090C9
:10098000484601DD112300E003460AAA01A90CA88C
:10099000FFF7ABFEDDE90C704D460026834620785C
:1009A00000070AD4AB4500DA5D4601A8012D04DD3D
:1009B000411911F8011C302907D04F4502DA17F10F
:1009C000040F04DA012082460FE06D1EEEE7002FCF
:1009D00002DCED1B3E4403E0781CA84200DD7D1CD8
:1009E000B81B00F1010A4FF000472078000703D43C
:1009F000AA4501DB4FF0FF3A0021B7F1004F0DF19E
:100A000043088DF8431024D002202B23002F01DA55
:100A10007F422D230A21021EA0F1010000DC5FB1FC
:100A200097FBF1FC97FBF1F201FB1C7C17460CF1E4
:100A3000300C08F801CDEEE7A8F101000370218821
:100A4000090501D5452100E06521A0F1010800F864
:100A5000011C09980FA9A1EB0807FF1D00B1012097
:100A6000411901EBEA70A1693844081A401EA061DF
:100A70002078C00602D42046FFF7FCFB099828B175
:100A8000D4E901219047206A401C20622078C006EA
:100A900022D52046FFF7EEFB1EE0002E04DBB34517
:100AA00002DD01A8805D00E03020D4E901219047FB
:100AB000206A401C2062761CAAF101005FEA000A4D
:100AC0000AD100F073F8C0680168405CD4E90121E4
:100AD0009047206A401C2062281EA5F10105DCDC3D
:100AE00007E0D4E9012118F8010B9047206A401C67
:100AF0002062381EA7F10107F3DC2046FFF7D0FB88
:100B0000032011B041E6000001694A1C0261087827
:100B1000704700B58FB0CDE901310021059105493D
:100B20007944CDE9031011466846FFF707FC0FB082
:100B300000BD0000E5FFFFFF0A6802F8010B0A6034
:100B400070470000074B70B50D467B44FFF7E1FF8F
:100B50000446284600F02AF910B14FF0FF3070BD6E
:100B6000204670BD5F4D00004FF000020429C0F028
:100B7000128010F0030C3FF4B3ACCCF1040CBCF1C8
:100B8000020F18BF00F8012BA8BF20F8022BA1EB21
:100B90000C01FFF7A5BC5FEAC17C24BF00F8012B64
:100BA00000F8012B48BF00F8012B70470048704740
:100BB000D007002000487047B007002030B5B0F1E2
:100BC0000A024FEA900E71F100034EEA817EB0EB0B
:100BD0000E0061EB91014FEA101E4EEA017E10EB10
:100BE0000E0041EB11114FEA102E4EEA016E10EB90
:100BF0000E0041EB11214FEA104E4EEA014E10EB70
:100C00000E0041EB1141401841F100014FEAD000C4
:100C100040EA41704FEAD10110EB80054FEA8104B0
:100C200044EA907444EB01046D1944EB0404521B34
:100C3000A3414FF0000348BF0A3200D530BD401C2D
:100C400041F1000130BD00002DE9F0411F4604468E
:100C500003260168072A01F4006004DB08B116A529
:100C600005E016A503E008B115A500E015A521F0E3
:100C700010002060A069C01EA0610FB1401EA061DD
:100C80002046FFF7F7FA4FB1D4E9012138469047E3
:100C9000206A401C2062C01C206206E0206AFAE73D
:100CA000D4E9012115F8010B9047761EF8D22046B1
:100CB000FFF7F6FABDE8F0814E414E006E616E001E
:100CC000494E4600696E66002DE9F047814616469A
:100CD0008AB0354878440DC88DE80D003248784414
:100CE000801C03AC0DC884E80D0041F69B3008441D
:100CF000372190FBF1F290FBF1F5A5F1800501FBA6
:100D000012041B3C02D56442012000E00020DFF801
:100D100098A080460027FA44AAF1BE0A0EE0E00738
:100D20000AD03246684607EB470101230AEB8101EE
:100D300000F043FB8DE8070064107F1C002CEED10F
:100D4000194F7F44AE3F19E0E80715D007EB0410B8
:100D50000DF1180A90E80E008AE80E00C068F04213
:100D600001D1981908903246012306A903A800F082
:100D700024FB03AB83E807006D10641C002DE3D156
:100D80004FF0010332466946B8F1000F03A802D0C4
:100D900000F0FEFA01E000F010FBC9E90001C9F81B
:100DA00008200AB0BDE8F0872CAB0000007B00F003
:100DB0008000704700487047B00700207546FFF775
:100DC000F9FFAE4605006946534620F00700854608
:100DD00018B020B5FFF7F6F9BDE820404FF0000647
:100DE0004FF000074FF000084FF0000B21F0070113
:100DF000AC46ACE8C009ACE8C009ACE8C009ACE856
:100E0000C0098D46704710B50446AFF300802046F8
:100E1000BDE81040FFF7C1B94FF0013C50F8042B7A
:100E200051F8043B9A4221D1A2EB0C03934313EAFD
:100E3000CC1317D150F8042B51F8043B9A4215D12A
:100E4000A2EB0C03934313EACC130BD150F8042B01
:100E500051F8043B9A4209D1A2EB0C03934313EAE5
:100E6000CC13DBD04FF00000704700BFD01A01BA9E
:100E7000B1FA81F101F0180122FA01F0CB40C1F181
:100E80002001DBB2C0B2C01A2CFA01F3D11A91438F
:100E900011EAC311E6D170475FEA400C08BF91F038
:100EA000000F4FEA8C234FEAC12243EA51514FEA27
:100EB0001C5018BF00F5F0404FEA300018BF41F059
:100EC00000415FEA6C5C00F02980BCF1FF3F08BF85
:100ED00040F080407047130C06BF12044FF0100C16
:100EE0004FF0000C130E04BF12020CF1080C130F8C
:100EF00004BF12010CF1040C930F04BF92000CF11B
:100F0000020CD30F04BF52000CF1010C11464FF03C
:100F10000002A0F11F00A0EB0C00704711F0004F81
:100F200008BF704731F000413FF4D5AF0B0C06BF4E
:100F300009044FF0100C4FF0000C0B0E04BF090217
:100F40000CF1080C0B0F04BF09010CF1040C8B0F02
:100F500004BF89000CF1020CCB0F04BF49000CF157
:100F6000010CCCF12003A0EB0C0022FA03F302FAEF
:100F70000CF241EA030100F10100704720F07F4CC0
:100F800080EA030023F07F47ACEB070303F57C53B3
:100F900000F0004003F1FF032DE980494FEA154BB3
:100FA00009B44FEA144325EA0B4E24EA03480FF232
:100FB000042606EB132749083E785FEA320203FB5A
:100FC0000667C7F5000707FB06F64FEA54374FEAF6
:100FD000D64606F1020607FB066CCCF1005C4FEA30
:100FE0001C472CEA074C07FB06F40CFB06F504EB48
:100FF00015464FEA961634BF00204FF000404FEAE6
:10100000D13706FB07FC4FEA1C4C0CFB0BF7D21B3D
:1010100003FB0CF761EB07010CFB0EF7B0EB07408D
:1010200072EB17420CFB08F734BFA2EB0742B2EB9E
:10103000074261EB17414FEA0C444FEA910706FB68
:1010400007FC4FEA1C4C0CFB0BF7B0EBC74072EBF4
:10105000573203FB0CF734BFA2EBC742B2EBC742D7
:1010600061EB57310CFB0EF7B0EBC70072EB577218
:101070000CFB08F734BFA2EBC702B2EBC70261EB6F
:101080005771039F4FEA816141EA921104EBCC044E
:101090004FEAD1374FEA826206FB07FC42EA901220
:1010A0004FEA80604FEA1C4C0CFB0BF7D21B03FB92
:1010B0000CF761EB07010CFB0EF7B0EB074072EB8E
:1010C00017420CFB08F734BFA2EB0742B2EB074212
:1010D00061EB17414FEA8C554FEA910704EB9C24D2
:1010E00006FB07FC4FEA1C4C0CFB0BF7B0EBC740B0
:1010F00072EB573203FB0CF734BFA2EBC742B2EBE3
:10110000C74261EB57310CFB0EF7B0EBC70072EB37
:1011100057720CFB08F734BFA2EBC702B2EBC70251
:1011200061EB577115EB4C254FEA816141EA921151
:101130004FEA82624FEAD13742EA901206FB07FC7F
:1011400044F100044FEA80604FEA1C4C0CFB0BF7A3
:10115000D21B03FB0CF761EB07010CFB0EF7B0EBA6
:10116000074072EB17420CFB08F734BFA2EB0742B3
:10117000B2EB074261EB174115EB1C154FEA8131C9
:1011800041EA92414FEA823242EA90424FEA80308D
:101190004FEA0C7644F1000448EA03434EEA0B4858
:1011A0004FF0000EB2EB080C71EB030724BF624650
:1011B00039464EEB0E0E4FF0000B001852414941DC
:1011C0004BEB0B0BB2EB080C71EB03077BF1000B45
:1011D00024BF624639464EEB0E0E4FF0000B00184E
:1011E000524149414BEB0B0BB2EB080C71EB03077F
:1011F0007BF1000B24BF624639464EEB0E0E51EADE
:10120000020718BF46F0010616EB0E7655F10002F4
:1012100054F1000103D5BDE88901BDE80088BDE8AF
:101220008901BDE80048B619524141EB0101A3F123
:101230000103704780807F7E7D7C7B7A797877762A
:1012400076757473727171706F6E6E6D6C6C6B6AA3
:101250006A69686867666665646463636261616041
:10126000605F5F5E5E5D5D5C5C5B5B5A5A595958BE
:101270005857575656555555545453535252525128
:10128000515050504F4F4F4E4E4D4D4D4C4C4C4B7E
:101290004B4B4A4A4A4949494848484747474746C5
:1012A0004646454545444444444343434342424201
:1012B00042414141002B9C4630D477002BD01CB5D5
:1012C0004FEA370703B44FF010004FF01001BAF1A6
:1012D000000F06D0BCF1000FDCBF40F0080040F06A
:1012E00008014FF000000FBCBDE810400BF1010BEE
:1012F000BBF1010F08BF5FEA170722BF12F101021D
:1013000011F101014FF0004143F1000300F00040F2
:1013100043EA00007047F9D35708D0E746EA06468B
:1013200013F1400F4FEA16461FDD13F1200FDFBF08
:1013300016430A46002120335B42BED0C3F120078A
:1013400046EA064602FA07F74FEA164646EA070655
:10135000C3F1200722FA03F201FA07F721FA03F199
:101360004FF0000342EA0702A7E746EA020646EA10
:1013700006464FEA164646EA0106BCBF46EA06465E
:10138000360C4FF000034FF000024FF0000194E7DD
:101390002DE9804C9A46934670B491E8380007C80E
:1013A00031EA400C48BF34EA430C03D5FFF7E6FDB1
:1013B000FFF780FFF0BCBDE8008C2DE9804C9A4619
:1013C000934670B491E8380007C810F0804F08BF0A
:1013D00013F0804F03D100F005F8FFF76BFFF0BC6E
:1013E000BDE8008C20F07F4780EA030023F07F4CAB
:1013F00007EB0C03A3F57C5300F00040A3F1FE03C0
:1014000092F0000F00F0B38095F0000F00F07780AD
:101410002DE901494FEA11404FEA144621EA0048FC
:1014200000FB06FC24EA064708FB06F607FB08F863
:1014300000FB07F718EB06484CEB164C4FEA124B33
:1014400018EB07484FEA15464CEB174022EA0B4EC3
:101450000BFB06FC25EA06470EFB06F607FB0EFE15
:101460000BFB07F71EEB064E4CEB164C4FF000063D
:101470001EEB074E4CEB174B18EB0B0840F100002E
:1014800018EB0E0B58EB000840F100008F1A4FF0DC
:1014900000013CBFC943661B14BFB5EB040C00211F
:1014A0003CBFC943F61B4FEA17444EEA8E0E27EAAB
:1014B00004454FEA1C4704FB07622CEA074C05FB76
:1014C00007F70CFB05F604FB0CFC16EB074642EB9A
:1014D000174216EB0C4642EB1C421BEB060658EB80
:1014E0000202414146EA9E0601D5BDE80189B619CE
:1014F000524141EB0101A3F10103BDE801894FEA2B
:1015000014454FEA114724EA054621EA074C05FB3A
:1015100007F406FB07F70CFB06F105FB0CFC11EBCF
:10152000074144EB17444FEA124711EB0C4144EBDF
:101530001C4422EA074C05FB07F206FB07F70CFBED
:1015400006F605FB0CFC16EB074642EB174216EBC2
:101550000C4642EB1C456A1854F1000148BF704725
:10156000B619524141EB0101A3F10103704795F017
:10157000000F37D04FEA11424FEA144721EA0246E2
:1015800024EA074C02FB07F106FB07F70CFB06F405
:1015900002FB0CFC14EB074441EB17414FEA1547E3
:1015A00014EB0C4441EB1C4125EA074C02FB07F508
:1015B00006FB07F70CFB06F602FB0CFC16EB0746D6
:1015C00045EB174516EB0C4645EB1C42121951F141
:1015D000000148BF7047B619524141EB0101A3F128
:1015E000010370474FEA14454FEA114724EA0546C4
:1015F00021EA074C05FB07F106FB07F70CFB06F297
:101600004FF0000605FB0CFC12EB074241EB1741C3
:1016100012EB0C4251EB1C4148BF7047921841EB52
:101620000101A3F10103704700BFFEE7704710B549
:101630004FF4805000F078F810BD72B600BFFEE79E
:1016400070B50446002594F82100022803D0042038
:10165000A063012548E02068006820F00E002168A2
:1016600008602068006820F00100216808601F49B8
:101670002068884201D1012026E01C4914312068ED
:10168000884201D110201FE0184928312068884283
:1016900001D1801518E015493C312068884201D1FC
:1016A000801411E0114950312068884202D14FF472
:1016B000803009E00D4964312068884202D14FF43E
:1016C000801001E04FF0807008490839486001201F
:1016D00084F8210000BF002084F8200000BF606B68
:1016E00010B12046616B8847284670BD0800024053
:1016F00070B5044600F0CEF906462546681C10B1C8
:1017000004480078054400BF00F0C4F9801BA842DB
:10171000FAD370BD0800002010B50446B4F5805F10
:1017200001D105F0D9FF10BD10B50446044800688A
:10173000204020B1024804602046FFF7EDFF10BDB5
:10174000140401402DE9F8470346002294466EE157
:101750004FF0010808FA02F4D1F8008008EA04000A
:10176000A0427DD1DFF8DCA2D1F80480A8EB0A0901
:10177000D0453AD014DCB8F1030F50D009DCB8F1F1
:10178000000F31D0B8F1010F1CD0B8F1020F49D1D0
:1017900020E0B8F1110F18D0B8F1120F42D11EE0BD
:1017A000B9F5881F25D006DCB9F5803F20D0B9F502
:1017B000801F37D11AE0B9F5001F18D0B9F5041F02
:1017C00030D117E0D1F80CC02DE0D1F80C8008F131
:1017D000040C28E0D1F80C8008F1080C23E0D1F8C3
:1017E0000C8008F10C0C1EE000BF00BF00BF00BF62
:1017F00000BF00BFD1F80880B8F1000F02D14FF050
:10180000040C0BE0D1F80880B8F1010F03D14FF0C0
:10181000080C1C6102E04FF0080C5C6103E04FF023
:10182000000C00E000BF00BFFF2801D8984601E08F
:1018300003F104084646FF2802D84FEA820803E075
:10184000A2F108084FEA88084746D6F800804FF012
:101850000F0909FA07F928EA09080CFA07F900E064
:1018600088E048EA0908C6F80080D1F8048008F04A
:101870008058B8F1805F7DD100BFDFF8CC81D8F807
:10188000188048F00108DFF8C091C9F81880C846F0
:10189000D8F8188008F00108CDF8008000BF00BF1C
:1018A0004FEAB9384FEA920958F829504FEA82783E
:1018B0004FEA18794FF00F0808FA09F825EA0805E9
:1018C000DFF88881434502D14FF0000816E0DFF8C9
:1018D0008081434502D14FF001080FE0DFF87481A9
:1018E000434502D14FF0020808E0DFF86C81434520
:1018F00002D14FF0030801E04FF004084FEA82796B
:101900004FEA197908FA09F848EA0505DFF84C8129
:101910004FEA920948F82950D1F8048008F4803839
:10192000B8F5803F0AD1DFF83881D8F8008048EA5E
:101930000008DFF82C91C9F8008009E0DFF8208169
:10194000D8F8008028EA0008DFF81491C9F8008070
:10195000D1F8048008F40038B8F5003F10D1DFF862
:10196000008108F10408D8F8008048EA0008DFF890
:10197000F09000E05AE009F10409C9F800800DE098
:10198000DFF8DC8008F10408D8F8008028EA0008B5
:10199000DFF8CC9009F10409C9F80080D1F804807F
:1019A00008F48018B8F5801F0ED1DFF8B48008F174
:1019B0000808D8F8008048EA0008DFF8A49009F188
:1019C0000809C9F800800DE0DFF8948008F10808E4
:1019D000D8F8008028EA0008DFF8849009F10809A7
:1019E000C9F80080D1F8048008F40018B8F5001F89
:1019F0000ED1DFF86C8008F10C08D8F8008048EAB6
:101A00000008DFF85C9009F10C09C9F800800DE0CE
:101A1000DFF84C8008F10C08D8F8008028EA0008AC
:101A2000DFF83C9009F10C09C9F80080521CD1F88C
:101A3000008028FA02F8B8F1000F7FF489AEBDE803
:101A4000F88700000000111000100240000801405B
:101A5000000C01400010014000140140080001404A
:101A600000040140024693680B400BB1012000E0E6
:101A70000020704710B5C26821EA020302EA01049F
:101A800043EA0443036110BD0AB1016101E00B04A4
:101A900003617047014800687047000000000020A3
:101AA0000348006803490978084401490860704701
:101AB000000000200800002010B50848006840F031
:101AC000100006490860032000F0ACF8002000F088
:101AD00007F800F02BF8002010BD000000200240A5
:101AE00070B504460E4800784FF47A71B1FBF0F0FF
:101AF0000C490968B1FBF0F5284600F00FFC08B16D
:101B0000012070BD102C07D200222146501E00F08B
:101B10004BF80548046001E00120F2E70020F0E7FF
:101B2000080000200C0000200400002008B500BFC1
:101B30001348806940F001001149886108468069B6
:101B400000F00100009000BF00BF00BF0846C06960
:101B500040F08050C8610846C06900F08050009095
:101B600000BF00BF052000F05DF800BF05494868D0
:101B700020F0E06040F00070486000BF08BD000049
:101B8000001002400000014001460846002809DB21
:101B900000F01F0301229A4043099B0003F1E02358
:101BA000C3F8002100BF70472DE9F05F80460D4665
:101BB0001646002702F03AFC074639462A463346C5
:101BC00001F00700C0F1070ABAF1040F02D94FF083
:101BD000040A01E0C0F1070AD14600F1040ABAF193
:101BE000070F02D24FF0000A01E0A0F1030AD44629
:101BF0004FF0010A0AFA09FAAAF1010A0AEA020AEE
:101C00000AFA0CFA4FF0010B0BFA0CFBABF1010BCB
:101C10000BEA030B4AEA0B042146404602F00EFC95
:101C2000BDE8F09F00BF00F00702064B19684FF6B1
:101C3000FF031940044B0B4343EA0221014B196097
:101C400000BF70470CED00E00000FA0570B50446D7
:101C50000D460CB9012070BD5A48006800F007001D
:101C6000A8420ED25748006820F007002843554983
:101C700008600846006800F00700A84201D0012073
:101C8000E9E7207800F0020002281DD1207800F05A
:101C90000400042805D14C48406840F4E0604A49FB
:101CA0004860207800F00800082805D146484068C0
:101CB00040F46050444948604348406820F0F000D8
:101CC000A168084340494860207800F0010078B3DB
:101CD0006068012806D13C48006800F4003090B9E3
:101CE0000120B8E76068022806D13748006800F094
:101CF000007040B90120AEE73348006800F00200F0
:101D000008B90120A7E73048406820F00300616867
:101D100008432D494860FFF7BDFE064609E0FFF77E
:101D2000B9FE801B41F28831884202D9032092E734
:101D300007E02548406800F00C006168B0EB810FB7
:101D4000EDD12048006800F00700A8420ED91D48D8
:101D5000006820F0070028431A4908600846006818
:101D600000F00700A84201D0012074E7207800F0BD
:101D70000400042807D11448406820F4E060E168BA
:101D8000084311494860207800F00800082808D16D
:101D90000D48406820F46050216940EAC1000A49BA
:101DA000486000F03FF808494968C1F30311074A49
:101DB000515CC8400649086006480068FFF790FE7D
:101DC000002048E70020024000100240168C000866
:101DD0000C0000200400002001480068704700004B
:101DE0000C00002000B5FFF7F7FF04494968C1F374
:101DF0000221034A515CC84000BD000000100240AF
:101E0000268C000800B5FFF7E7FF04494968C1F3D5
:101E1000C221034A515CC84000BD000000100240CE
:101E2000268C0008F0B585B00FF26C0C9CE8E01031
:101E300001A8A0E8E0101CA52D6800950021002253
:101E4000002300240020194D696801F00C05F5B14C
:101E5000042D02D0082D19D101E0154819E001AD7B
:101E6000C1F38346AC5D01F4803555B10F4D6D680B
:101E7000C5F340451DF805200D4D6543B5FBF2F354
:101E800002E00C4D04FB05F3184602E000BF0848D1
:101E900000BF00BF05B0F0BD020304050607080936
:101EA0000A0B0C0D0E0F1010010200000010024072
:101EB00000127A0000093D00F8B504460CB9012073
:101EC000F8BD207800F00100002878D0F84840687C
:101ED00000F00C0004280CD0F548406800F00C001D
:101EE000082811D1F248406800F48030B0F5803FF6
:101EF0000AD1EF48006800F4003000285FD0606825
:101F000000285CD10120DBE700BF6068B0F5803FAE
:101F100006D1E748006840F48030E549086028E0D1
:101F2000606858B9E248006820F48030E0490860F1
:101F30000846006820F4802008601AE06068B0F568
:101F4000A02F0BD1DA48006840F48020D8490860FF
:101F50000846006840F4803008600AE0D448006811
:101F600020F48030D24908600846006820F48020C0
:101F7000086000BF606888B1FFF78CFD054606E089
:101F8000FFF788FD401B642801D9032098E7C84863
:101F9000006800F400300028F2D010E0FFF77AFD6E
:101FA000054606E0FFF776FD401B642801D90320B3
:101FB00086E7BF48006800F400300028F2D120789E
:101FC00000F00200022857D1B948406800F00C0028
:101FD00050B1B748406800F00C00082818D1B44848
:101FE000406800F4803098B9B148006800F0020001
:101FF00020B12069012801D0012061E7AC480068C8
:1020000020F0F800616940EAC100A949086033E0A6
:102010002069E8B10120A7490860FFF73BFD0546AC
:1020200006E0FFF737FD401B022801D9032047E7F0
:102030009F48006800F002000028F2D09C48006829
:1020400020F0F800616940EAC1009949086013E096
:10205000002098490860FFF71DFD054606E0FFF7E0
:1020600019FD401B022801D9032029E79048006888
:1020700000F002000028F2D1207800F008000828C3
:102080002DD1A069B8B101208B490860FFF702FD8E
:10209000054606E0FFF7FEFC401B022801D903209D
:1020A0000EE78348406A00F002000028F2D00120C9
:1020B00001F0B0FE13E000207F490860FFF7EAFC62
:1020C000054606E0FFF7E6FC401B022801D9032085
:1020D000F6E67748406A00F002000028F2D1207846
:1020E00000F00400042873D100277148C06900F093
:1020F000805070B900BF6E48C06940F080506C4994
:10210000C8610846C06900F08050009000BF00BF61
:1021100001276A48006800F48070B0B96748006819
:1021200040F4807065490860FFF7B4FC054606E09E
:10213000FFF7B0FC401B642801D90320C0E65F48CC
:10214000006800F480700028F2D000BFE068012829
:1021500006D15748006A40F001005549086227E05F
:10216000E06858B95248006A20F0010050490862FE
:102170000846006A20F00400086219E0E0680528BB
:102180000BD14B48006A40F00400494908620846F8
:10219000006A40F0010008620AE04548006A20F049
:1021A0000100434908620846006A20F00400086202
:1021B00000BFE068A0B1FFF76DFC054609E0FFF73E
:1021C00069FC401B41F28831884202D9032077E63E
:1021D00022E03748006A00F002000028EFD012E049
:1021E000FFF758FC054608E0FFF754FC401B41F29E
:1021F0008831884201D9032062E62D48006A00F048
:1022000002000028F0D1012F05D12948C06920F033
:1022100080502749C86100BFE069C8B324484068BE
:1022200000F00C00082860D0E069022848D10020A6
:1022300020490866FFF72EFC054606E0FFF72AFC5A
:10224000401B022801D903203AE61948006800F033
:1022500000700028F2D1206AB0F5803F07D1144801
:10226000406820F40030A168084311494860D4E96F
:10227000080108430E49496821F4741108430C49C8
:10228000486001200B490866FFF704FC054607E09B
:102290003DE0FFF7FFFB401B022801D903200FE6BA
:1022A0000348006800F000700028F2D02FE0000022
:1022B0000010024000004242800442420070004090
:1022C000002014490866FFF7E5FB054606E0FFF726
:1022D000E1FB401B022801D90320F1E50E4800680C
:1022E00000F000700028F2D111E0E069012800D16F
:1022F000E6E50948466806F48031206A814204D147
:1023000006F47011606A814201D00120D8E50020F6
:10231000D6E50000000042420010024070B50446BD
:102320002546681EB0F1807F01D301200FE0681EB2
:102330004FF0E02148610F214FF0FF3002F07EF8AE
:1023400000204FF0E021886107200861002070BD67
:1023500010B50346002200BF93F83C00012801D1CC
:10236000022010BD012083F83C0000BF22F0FF00D6
:10237000CC6840EA040222F440708C6840EA04020F
:1023800022F480604C6840EA040222F400600C6889
:1023900040EA040222F480500C6940EA040222F46C
:1023A00000504C6940EA040222F48040CC6940EAC3
:1023B00004021868426400BF002083F83C0000BF9C
:1023C00000BFCEE730B502460B4600BF92F83C0096
:1023D000012801D1022030BD012082F83C0000BF5D
:1023E000022082F83D00106844681068816824F07B
:1023F00070041868044310684460104D1068A842C7
:102400000BD01068B0F1804F07D00D4D1068A84276
:1024100003D00C4D1068A84205D121F08001586806
:10242000014310688160012082F83D0000BF002058
:1024300082F83C0000BF00BFCDE70000002C014047
:10244000000400400008004010B504460CB901200B
:1024500010BD94F83D0028B9002084F83C002046C7
:1024600000F026F8022084F83D00211D206801F0CC
:102470004BFD012084F8460000BF84F83E00012196
:102480003F200155402001554120015500BF00BFAC
:10249000012084F842004320015544200155452085
:1024A000015500BF012084F83D000020D0E7000066
:1024B00008B5094A016891420DD100BF0749C969B1
:1024C00041F00201054AD1611146C96901F00201DA
:1024D000009100BF00BF08BD000400400010024092
:1024E000014691F83D00012801D0012070470220EB
:1024F00081F83D00124B086898420BD00868B0F193
:10250000804F07D00F4B0868984203D00E4B0868E5
:1025100098420CD10868806800F00702062A0CD0A7
:102520000868006840F001000B68186005E0086862
:10253000006840F001000B6818600020D6E700003A
:10254000002C01400004004000080040014600BF8C
:102550000868006A41F21112104050B90868006A18
:102560009210104028B90868006820F001000A683D
:10257000106000BF012081F83D00002070472DE968
:10258000F04104460D4600BF94F83C00012802D1FA
:102590000220BDE8F081012084F83C0000BF022049
:1025A00084F83D002068866826F0770626F47F468A
:1025B000206886602868502833D00CDC202850D052
:1025C00004DC00284BD0102851D149E0302849D0F4
:1025D00040284CD139E060282DD0702807D0B0F5C4
:1025E000805F03D0B0F5005F41D10DE040E0D5E958
:1025F00002136A68206801F0D2FC2068866846F001
:1026000077062068866033E0D5E902136A6820689F
:1026100001F0C5FC2068806840F480402168886033
:1026200026E0EA686968206801F08AFD5021206888
:1026300001F0C0FC1CE0EA686968206801F093FDC5
:102640006021206801F0B6FC12E0EA686968206841
:1026500001F076FD4021206801F0ACFC08E000BFED
:1026600000BF00BF2968206801F0A4FC00E000BFA3
:1026700000BF012084F83D0000BF002084F83C002A
:1026800000BF00BF85E72DE9F04104460D4614B9AF
:102690000120BDE8F08194F83D0028B9002084F8BD
:1026A0003C00204600F052F8022084F83D002068EB
:1026B000806844F20701884321688860211D2068F2
:1026C00001F022FC2068D0F8088020688669206824
:1026D000076A286840EA080840F203308643A9697F
:1026E000A86840EA0120064340F60C4086434FF2BA
:1026F000F0008643E969E86840EA0120064328695A
:102700000001296A40EA0130064327F0220769697F
:10271000686840EA011007432068C0F80880206814
:10272000866120680762012084F8460084F83E0034
:1027300001213F200155012084F84200432001552A
:10274000012084F83D000020A3E7000010B586B00A
:102750000446002002900390049005902068B0F198
:10276000804F24D100BF2748C06940F001002549AF
:10277000C8610846C06900F00100019000BF00BFB9
:1027800000BF0846806940F00400886108468069FF
:1027900000F00400019000BF00BF03200290002061
:1027A0000390049002A91848FEF7CCFF27E01749D0
:1027B0002068884223D100BF1248C06940F004005D
:1027C0001049C8610846C06900F00400019000BFCC
:1027D00000BF00BF0846806940F0080088610846D5
:1027E000806900F00800019000BF00BFC020029087
:1027F00000200390049002A90548FEF7A3FF06B04D
:1028000010BD000000100240000801400008004018
:10281000000C01402DE9F04304460D4694F83E605B
:102820003F20075D94F84280432010F804906DB972
:10283000012E02D1B8F1010F02D00120BDE8F083D2
:10284000022084F83E0084F8420025E0042D0CD1DB
:10285000012F02D1B9F1010F01D00120EEE70221D1
:102860003F2001554320015516E0012E07D1012FCD
:1028700005D1B8F1010F02D1B9F1010F01D001204A
:10288000DCE7022084F83E0002213F2001550220AF
:1028900084F842004320015515B1042D0CD105E008
:1028A00001220021206801F069FB10E001220421CF
:1028B000206801F063FB0AE001220021206801F09A
:1028C0005DFB01220421206801F058FB00BF00BF1E
:1028D0002068006840F00100216808600020ADE732
:1028E00010B586B004460020029003900490059035
:1028F0000E492068884217D100BF0D48806940F01A
:1029000004000B4988610846806900F004000190CA
:1029100000BF00BF4FF410600290022003900590AA
:1029200002A90448FEF70EFF06B010BD002C0140BE
:10293000001002400008014070B504460D461646DE
:1029400000BF94F83C00012801D1022070BD012095
:1029500084F83C0000BF36B1042E1BD0082E31D0C5
:102960000C2E5ED145E02946206801F02DFB206841
:10297000806940F00800216888612068806920F043
:1029800004002168886120688069296908432168FA
:10299000886147E02946206801F046FB206880698D
:1029A00040F40060216888612068806920F48060BC
:1029B0002168886120688069296940EA01202168CE
:1029C00088612FE02946206801F062FB2068C06919
:1029D00040F008002168C8612068C06920F0040048
:1029E0002168C8612068C069296908432168C861F5
:1029F00018E02946206801F07FFB2068C06940F498
:102A000000602168C8612068C06920F48060216886
:102A1000C8612068C069296940EA01202168C8614D
:102A200000E000BF00BF00BF002084F83C0000BFF2
:102A300000BF8BE710B504460CB9012010BD94F817
:102A40003D0028B9002084F83C00204600F026F81C
:102A5000022084F83D00211D206801F055FA012074
:102A600084F8460000BF84F83E0001213F20015554
:102A7000402001554120015500BF00BF012084F8CE
:102A8000420043200155442001554520015500BF17
:102A9000012084F83D000020D0E7000008B5094A75
:102AA000016891420DD100BF0749896941F4006175
:102AB000054A91611146896901F40061009100BFE6
:102AC00000BF08BD002C01400010024070B5044654
:102AD0000D4615B994F83E000BE0042D02D13F20BD
:102AE000005D06E0082D02D14020005D01E041209C
:102AF000005D012801D0012070BD1DB9022084F8BD
:102B00003E000EE0042D03D102213F20015508E0D4
:102B1000082D03D102214020015502E0022141206D
:102B2000015501222946206801F028FA1949206838
:102B3000884201D1012000E0002028B12068406CCB
:102B400040F40040216848641249206888420BD054
:102B50002068B0F1804F07D00F492068884203D029
:102B60000E49206888420CD12068806800F0070672
:102B7000062E0CD02068006840F001002168086033
:102B800005E02068006840F001002168086000202E
:102B9000B2E70000002C01400004004000080040A3
:102BA000704700002DE9F04704462068056820685A
:102BB000C668206847694FF00008C14605F00F0855
:102BC000B8F1000F0AD105F0200038B106F020005E
:102BD00020B1204601F005FBBDE8F087B8F1000FF9
:102BE00071D007F0010018B906F4907000286AD07F
:102BF00005F0010030B106F4807018B1E06B40F0D0
:102C00000100E06305F0040030B107F0010018B1E5
:102C1000E06B40F00200E06305F0020030B107F025
:102C2000010018B1E06B40F00400E06305F008001B
:102C300048B106F0200010B907F0010018B1E06BB0
:102C400040F00800E063E06B68B305F0200028B1B5
:102C500006F0200010B1204601F0C3FA2068406958
:102C6000C0F38019E06B00F0080010B9B9F1000F53
:102C700022D0204601F095FA2068406900F040001B
:102C8000B0B12068406920F0400021684861606B65
:102C900050B11848616B4863606BFEF7D1FC10B10E
:102CA000606B416B88470CE02046FFF779FF08E036
:102CB0002046FFF775FF04E02046FFF771FF002074
:102CC000E06389E7FFE705F0800030B106F080009F
:102CD00018B1204601F054FB7EE705F0400030B10A
:102CE00006F0400018B1204601F06BFA74E700BF0F
:102CF00072E700008F41000810B504460CB90120AE
:102D000010BDA06900B100E000BF94F8390028B9F7
:102D1000002084F83800204600F028F8242084F8A9
:102D200039002068C06820F400502168C86020463F
:102D300001F0A8FA2068006920F490402168086139
:102D40002068406920F02A00216848612068C06836
:102D500040F400502168C8600020E063202084F81F
:102D6000390084F83A000020CAE7000010B586B0A8
:102D70000446002002900390049005903C4920688E
:102D8000884237D100BF3B48806940F480403949D0
:102D900088610846806900F48040019000BF00BF50
:102DA00000BF0846806940F00400886108468069D9
:102DB00000F00400019000BF00BF481502900220FF
:102DC00003900320059002A92B48FEF7BBFC4FF4AB
:102DD0008060029000200390049002A92648FEF72C
:102DE000B1FC032211462520FEF7DEFE2520FEF76A
:102DF000CBFE3AE021492068884236D100BF1D4809
:102E0000C06940F480201B49C8610846C06900F4CD
:102E10008020019000BF00BF00BF0846806940F0DD
:102E2000080088610846806900F00800019000BF32
:102E300000BF08150290022003900320059002A90C
:102E40000F48FEF77FFC4FF40060029000200390D3
:102E5000049002A90A48FEF775FC002202212720EF
:102E6000FEF7A2FE2720FEF78FFE06B010BD000081
:102E700000380140001002400008014000480040B6
:102E8000000C014010B5034693F83A0020282FD1DA
:102E900001B10AB9012010BD00BF93F83800012824
:102EA00001D10220F7E7012083F8380000BF9962C2
:102EB0009A85DA850020D863222083F83A0000BF83
:102EC000002083F8380000BF1868C06840F48070A4
:102ED0001C68E0601868406940F001001C6860618F
:102EE0001868C06840F020001C68E0600020D2E74D
:102EF0000220D0E710B5044606492068884202D176
:102F000004F020FC05E004492068884201D104F067
:102F10005FFC10BD0038014000480040704700BF12
:102F2000FEE7000010B5012251020D48FEF7ACFD8E
:102F3000012211020A48FEF7A7FD00F043F8002223
:102F40004FF400710648FEF79FFD00F03BF80022A9
:102F50004FF480710248FEF797FD00F033F810BD82
:102F6000000C014010B500224FF400710748FEF735
:102F70008BFD012211020548FEF786FD00F022F8C4
:102F8000012251020148FEF77FFD10BD000C0140F7
:102F900010B5012251020A48FEF776FD00F012F842
:102FA000012211020648FEF76FFD00F00BF8002227
:102FB0004FF480710248FEF767FD00F003F810BD82
:102FC000000C0140032000BF011EA0F10102D0B29D
:102FD000FAD170472DE9FC4104460D4616466B4672
:102FE00006223B21682000F04DFA0746BFB99DF844
:102FF00001009DF8001040EA012000B220809DF8F9
:1030000003009DF8021040EA012000B228809DF8DC
:1030100005009DF8041040EA012000B230803846D7
:10302000BDE8FC812DE9FC4104460D4616466B4681
:1030300006224321682000F025FA0746BFB99DF813
:1030400001009DF8001040EA012000B220809DF8A8
:1030500003009DF8021040EA012000B228809DF88C
:1030600005009DF8041040EA012000B23080384687
:10307000BDE8FC812DE9F84F6B4602224121682012
:1030800000F000FA9DF801009DF8001040EA0120D0
:103090000FFA80FA504604F0A1FE804600220B4B46
:1030A00004F008FD06460A4A0A4B04F047FC0446B1
:1030B00004F012FC83460849584605F0BFFB04465D
:1030C00005F020FB00B2BDE8F88F0000004075401D
:1030D000A4703D0AD74342400000C84210B500BF6B
:1030E000002210211448FEF7CFFC00BF12480068F0
:1030F00020F47040104908600846006840F44050D1
:10310000086000BF002208210B48FEF7BDFC00BF8D
:1031100000F014F800BF012210210748FEF7B4FCAC
:1031200000BF00F00BF800BF002210210248FEF79C
:10313000ABFC00BF10BD0000000C014010B5022028
:1031400001F0AEFD10BD704710B500BF0022102188
:103150001448FEF799FC00BF1248006820F4704044
:10316000104908600846006840F44050086000BFFD
:10317000012208210B48FEF787FC00BFFFF7DEFFA6
:1031800000BF012210210748FEF77EFC00BFFFF7B9
:10319000D5FF00BF002210210248FEF775FC00BFDA
:1031A00010BD0000000C014070B5054600241A480F
:1031B000006820F47040184908600846006840F430
:1031C0000040086000261CE000BF002210211248C9
:1031D000FEF75AFC00BFFFF7B1FF00BF012210212C
:1031E0000D48FEF751FC00BF6006040E08210A4896
:1031F000FEF738FC08B1601CC4B2FFF79FFF701CDB
:10320000C6B2082EE0DB15B9FFF79EFF01E0FFF71D
:1032100065FF204670BD0000000C014070B50446FB
:103220001D48006820F470401B490860084600688B
:1032300040F44050086000BF002210211648FEF7FD
:1032400023FC00BF002524E000BFE00928B10122D3
:1032500008211148FEF718FC04E0002208210E485E
:10326000FEF712FC00BF6006040E00BF0122102111
:103270000948FEF709FC00BFFFF760FF00BF00220E
:1032800010210548FEF700FC00BFFFF757FF681C40
:10329000C5B2082DD8DB70BD000C014010B5164832
:1032A000006820F47040144908600846006840F443
:1032B0004050086000BF012208210F48FEF7E4FBE0
:1032C00000BF00BF012210210B48FEF7DDFB00BF4D
:1032D000FFF734FF00BF002208210748FEF7D4FBA8
:1032E00000BFFFF72BFF00BF002210210248FEF7AE
:1032F000CBFB00BF10BD0000000C014010B516480C
:10330000006820F47040144908600846006840F4E2
:103310004050086000BF002210210F48FEF7B4FBA8
:1033200000BF00BF002208210B48FEF7ADFB00BF25
:10333000FFF704FF00BF012210210748FEF7A4FB9E
:1033400000BF00BF012208210348FEF79DFB00BF1C
:10335000FFF7F4FE10BD0000000C014010B5002482
:103360001A48006820F47040184908600846006850
:1033700040F40040086000BF012208211348FEF716
:1033800083FB00BFFFF7DAFE00BF012210210F48C8
:10339000FEF77AFB00BFFFF7D1FE07E0601CC4B266
:1033A000FA2C03DDFFF7AAFF012010BD0821074812
:1033B000FEF758FB0028F1D100BF0022102103487E
:1033C000FEF762FB00BF0020EFE70000000C0140A9
:1033D00010B5FFF7B8FE80216B2000F0D7F864200D
:1033E00001F054FC00216B2000F0D0F8032000F025
:1033F0008BF8002000F080F8642000F0AAF800218B
:10340000382000F0C3F800216A2000F0BFF8002146
:10341000232000F0BBF88021372000F0B7F875209A
:1034200000F013F80446682C0BD101216B2000F04A
:10343000ADF800216C2000F0A9F8642000F089F8B4
:1034400001E0012010BD0020FCE770B50446FFF745
:1034500025FFD020FFF7E2FEFFF780FF2046FFF7B1
:10346000DDFEFFF77BFFFFF719FFD120FFF7D6FE48
:10347000FFF774FF0020FFF797FE0546FFF73EFFBA
:10348000284670BD2DE9F04106460F4614461D46FC
:10349000FFF704FF002141EA4601C8B2FFF7BEFE74
:1034A000FFF75CFF20B1FFF729FF0120BDE8F081A5
:1034B0003846FFF7B3FEFFF751FFFFF7EFFE01219C
:1034C00001EB4601C8B2FFF7A9FEFFF747FF0DE089
:1034D000012C04D10020FFF767FE287003E00120D3
:1034E000FFF762FE2870601EC4B26D1C002CEFD185
:1034F000FFF704FF0020D9E710B50446E006010EEF
:103500001C2000F043F810BD10B50446E006010E83
:103510001B2000F03BF810BD70B504460025BC2C04
:1035200001DB012510E0622C01DB02250CE02A2CD6
:1035300001DB032508E0142C01DB042504E00A2C40
:1035400001DB052500E0062529461A2000F01EF8BB
:1035500070BD70B50446B4F57A7F01DD4FF47A741E
:10356000042C00DA04244FF47A7090FBF4F0401E2F
:10357000C5B22946192000F009F80546264604EB95
:10358000D671C1F34F00FFF7C7FF70BD70B5054698
:103590000C46FFF783FED020FFF740FEFFF7DEFE6C
:1035A00018B1FFF7ABFE012070BD2846FFF736FECD
:1035B000FFF7D4FE2046FFF731FEFFF7CFFE18B12C
:1035C000FFF79CFE0120EFE7FFF798FE0020EBE7F6
:1035D0002DE9F04105460E4617469846FFF75EFE78
:1035E000002141EA4501C8B2FFF718FEFFF7B6FE19
:1035F00020B1FFF783FE0120BDE8F0813046FFF7E0
:103600000DFEFFF7ABFE00240CE018F80400FFF7F6
:1036100005FEFFF7A3FE18B1FFF770FE0120EBE7F0
:10362000601CC4B2BC42F0DBFFF768FE0020E3E799
:1036300000B585B00020019002900390049000BF77
:103640004948806940F01000474988610846806910
:1036500000F01000009000BF00BF00BF0846806966
:1036600040F0200088610846806900F0200000904A
:1036700000BF00BF00BF0846806940F004008861B9
:103680000846806900F00400009000BF00BF00BF42
:103690000846806940F0080088610846806900F0AB
:1036A0000800009000BF00BF00224FF400512F48D7
:1036B000FEF7EAF900224FF473412D48FEF7E4F9D2
:1036C00000224FF400412B48FEF7DEF901221821B9
:1036D0002748FEF7D9F94FF40050019001200290DD
:1036E000002003900320049001A92048FEF72AF847
:1036F0004FF2180001900120029000200390032057
:10370000049001A91A48FEF71DF84FF4805001906B
:10371000194802900020039001A91648FEF712F8FC
:103720004FF40040019001200290002003900320FC
:10373000049001A90F48FEF705F84FF4407001907E
:1037400011200290002003900320049001A9084852
:10375000FDF7F8FF002202212820FEF725FA282095
:10376000FEF712FA05B000BD001002400010014043
:10377000000C0140000801400000311000B591B07C
:1037800000200F9010901C2108A8FCF7A7FE202114
:103790006846FCF7A3FE27482749086000204860D8
:1037A00000212548816041F61F41C160002101616F
:1037B000416180218161FFF73DF908B1FDF73DFFCF
:1037C00000200F9010900FA91B48FEF7FBFD08B1D9
:1037D000FDF733FF60200890002009900A900B90BD
:1037E0000C900D900E90002208A91348FFF7A4F842
:1037F00008B1FDF722FF0C2208A90F48FFF79CF83B
:1038000008B1FDF71AFF002000900190029003908C
:1038100004904FF400500590002007906946064838
:10382000FEF796FD08B1FDF708FF0348FFF758F8CB
:1038300011B000BD002C0140B800002000B58BB0D5
:10384000242102A8FCF74AFE0020009001904FF0CE
:1038500080401849086000204860002115488160B8
:103860004FF6FF71C1600021016181610320029068
:103870000020039001200490002005900A2006906B
:103880000020079001200890002009900A9002A9CA
:103890000848FEF7F8FE08B1FDF7CFFE00200090C3
:1038A000019069460348FEF78DFD08B1FDF7C5FE9E
:1038B0000BB000BD0001002000B587B000200390D0
:1038C00004900590069001900290144814490860F5
:1038D000472048600021124881604FF6FF71C160A7
:1038E000002101618161FEF7AFFD08B1FDF7A5FE82
:1038F0004FF48050039003A90948FEF740FE08B139
:10390000FDF79BFE00200190029001A90448FEF7FC
:1039100059FD08B1FDF791FE07B000BD000400405D
:103920004801002000B58BB0242102A8FCF7D6FD89
:103930000020009001901948194908600020486053
:103940000021174881604FF6FF71C16000210161BD
:103950008161032002900020039001200490002048
:1039600005900A2006900020079001200890002072
:1039700009900A9002A90A48FEF785FE08B1FDF7F2
:103980005CFE00200090019069460548FEF71AFD94
:1039900008B1FDF752FE0BB000BD0000000800406A
:1039A0009001002010B50B480B4908604FF4E1303E
:1039B0004860002108488160C16001610C214161BB
:1039C00000218161C161FFF797F908B1FDF735FE6C
:1039D00010BD000000380140D801002010B50B4890
:1039E0000B4908604FF4E1304860002108488160CD
:1039F000C16001610C21416100218161C161FFF75A
:103A00007BF908B1FDF719FE10BD00000048004029
:103A10001802002000BFFEE700BFFEE770B50024DB
:103A20000CE0002506E00020074901EBC501085520
:103A3000681CC5B2802DF6DB601CC4B2082CF0DB1C
:103A400000F0D4F870BD00005802002010B5044604
:103A50001CB90021A62000F0C0F9012C03D10021DF
:103A6000A72000F0BAF910BD10B504463CB90021FA
:103A7000C82000F0B2F90021A12000F0AEF9012C1D
:103A800007D10021C02000F0A8F90021A02000F0FB
:103A9000A4F910BDF0B514460B46CF1701EB5777CC
:103AA000C7F3C702CF1701EB5777FF10A1EBC7078A
:103AB000FEB20123B340DDB24CB1134B03EBC003A4
:103AC0009B5C2B43104F07EBC007BB541AE00E4B17
:103AD00003EBC0039B5CDB430B4F07EBC007BB54FE
:103AE000094B03EBC0039B5C2B43074F07EBC0075D
:103AF000BB54054B03EBC0039B5CDB43024F07EB5E
:103B0000C007BB54F0BD00005802002010B5C8200B
:103B1000FDF7EEFD0021AE2000F05FF90021084620
:103B200000F05BF90021102000F057F9002140203F
:103B300000F053F90021812000F04FF90021CF203F
:103B400000F04BF90021A12000F047F90021C82026
:103B500000F043F90021A62000F03FF90021A82041
:103B600000F03BF900213F2000F037F90021D3207D
:103B700000F033F90021084600F02FF90021D5208C
:103B800000F02BF90021802000F027F90021D92036
:103B900000F023F90021F12000F01FF90021DA20C4
:103BA00000F01BF90021122000F017F90021DB20A2
:103BB00000F013F90021302000F00FF9002120203F
:103BC00000F00BF90021022000F007F900218D2000
:103BD00000F003F90021142000F0FFF8FFF71EFFAA
:103BE0000021AF2000F0F9F810BD000070B50024EE
:103BF0002BE004F1B001C8B2002100F0EEF8002182
:103C0000084600F0EAF80021102000F0E6F8FFF77F
:103C100089F9782000F014F9FFF7BAF9402000F094
:103C20000FF9FFF7B5F9002509E0094901EBC501D6
:103C3000085D00F005F9FFF7ABF9681CC5B2802DEF
:103C4000F3DBFFF78FF9601CC4B2082CD1DB70BD29
:103C5000580200202DE9FE4F0746884692461C4632
:103C60000197CDF80080082C02D14FF006091FE023
:103C70002046E31704EB5373DB1021464FEAE47C44
:103C800004EB5C7C4FEAEC0CA4EBCC0CBCF1000F19
:103C900002D04FF0010C01E04FF0000C63442246CB
:103CA00004EBD27C4FEA6C0C03FB0CF303F0FF092E
:103CB000AAF12000C6B200255EE0082C07D106EB71
:103CC00046002F4901EB400010F805B01DE00C2C18
:103CD00007D106EB46002B4901EB800010F805B038
:103CE00013E0102C05D1284800EB061010F805B0A1
:103CF0000BE0182C07D106EBC600244901EB80002D
:103D000010F805B001E0BDE8FE8F002002901CE035
:103D10000BF0010028B1414638460C9AFFF7BAFE75
:103D200009E00C9808B9012000E000200246414655
:103D30003846FFF7AFFE4FEA6B0B08F1010000F0C9
:103D4000FF080298401CC0B2029002980828DFDBEE
:103D5000781CC7B2082C0BD004EBD4714A1001991F
:103D6000791A8A4204D1019F00980830C0B20090AD
:103D7000DDF80080681CC5B24D459EDB00BFC2E780
:103D80002E8C0008568E0008CA920008BA980008C7
:103D90002DE9F84106460F4614461D46DDF81C8005
:103DA00013E0CDF8008022782B4639463046FFF7E5
:103DB00051FF082D02D1B01DC6B205E0284605EB23
:103DC000D07106EB6101CEB2641C2078202802DBA2
:103DD00020787E28E5DDBDE8F88170B505460C4603
:103DE000FFF7A0F8782000F02BF8FFF7D1F81CB10E
:103DF000402000F025F802E0002000F021F8FFF755
:103E0000C7F8284600F01CF8FFF7C2F8FFF7AAF839
:103E100070BD704708B508490968C9084FF47A723F
:103E2000B1FBF2F14143009100BF00BF00994A1E6F
:103E300000920029F9D108BD0C0000207047000055
:103E400070B50446002521E004F0800028B101226D
:103E500051021048FDF718FE05E000224FF40071F2
:103E60000C48FDF711FEFFF7ADF8012211020948D9
:103E7000FDF70AFEFFF7A6F800224FF4807105480F
:103E8000FDF702FE6006040E681CC5B2082DDBDBE0
:103E900070BD0000000C014010B5FDF701FE10BD23
:103EA00000B58FB0282105A8FCF718FB142168463F
:103EB000FCF714FB012005900004069000200790F9
:103EC0000120099002200C90C1030D914FF4E011E4
:103ED0000E9105A8FDF7F0FF08B1FDF7AEFB0F202E
:103EE000009002200190002002904FF48060039027
:103EF0000020049002216846FDF7A8FE08B1FDF7F6
:103F00009CFB0FB000BD704710B50268184B98427B
:103F100008D0B0F1804F05D0164B984202D0164B16
:103F2000984203D122F070024B681A43104B98421A
:103F300008D0B0F1804F05D00E4B984202D00E4B06
:103F4000984203D122F44072CB681A4322F08003D6
:103F50004C6943EA040202608B68C3620B688362A7
:103F6000034B984201D10B6903630123436110BDE8
:103F7000002C0140000400400008004030B501F072
:103F80001F05012404FA05F3046A9C430462046AD1
:103F900001F01F0502FA05F52C43046230BD30B56F
:103FA0000C46816821F47F4142EA032525432943D9
:103FB000816030BD0A46816821F0700142F007033C
:103FC000194381607047000030B5056A25F001058E
:103FD0000562026A4368846924F0700424F00304D3
:103FE0000D682C4322F002028D682A430D4DA84231
:103FF00006D100BF22F00802CD682A4322F0040255
:10400000084DA84207D123F4807323F400734D694F
:104010002B438D692B43436084614D684563026285
:1040200030BD0000002C014030B5056A25F01005B8
:104030000562026A4368846924F4E04424F440740D
:104040000D6844EA052422F020028D6842EA051238
:104050000E4DA84207D100BF22F08002CD6842EA8F
:10406000051222F04002094DA84209D123F48063D1
:1040700023F400634D6943EA85038D6943EA8503B0
:10408000436084614D688563026230BD002C01404D
:1040900030B5056A25F480750562026A4368C46913
:1040A00024F0700424F003040D682C4322F4007201
:1040B0008D6842EA05220F4DA84207D100BF22F4C5
:1040C0000062CD6842EA052222F48062094DA842CE
:1040D00009D123F4805323F400534D6943EA0513B7
:1040E0008D6943EA05134360C4614D68C56302628C
:1040F00030BD0000002C014030B5056A25F4805524
:104100000562036A4468C26922F4E04222F4407204
:104110000D6842EA052223F400538D6843EA053313
:10412000064DA84204D124F480444D6944EA851424
:104130004460C2614D680564036230BD002C0140DB
:1041400030B50B461446026A056A25F00105056282
:10415000816921F0F00141EA041122F00A021A43B8
:104160008161026230BD30B50B461446056A25F008
:10417000100505628169026A21F4704141EA043147
:1041800022F0A00242EA03128161026230BD70B5E2
:1041900005466C6A0020E085E0842046FEF700FDBD
:1041A00070BD0168C96821F490710268D16001682E
:1041B000496921F0010102685161202180F83A101B
:1041C000704710B504462068C06820F040002168A0
:1041D000C860202084F839002046FEF79FFE0020AA
:1041E00010BD70B5044694F83A00222847D1A06863
:1041F000B0F5805F0CD1206950B90025A66A20680F
:104200004068C0F308003080A06A801CA06215E0FE
:10421000A56A0026A068B0F5805F03D0A06828B921
:10422000206918B920684068287004E02068406858
:1042300000F07F002870A06A401CA062E08D401E44
:1042400080B2E085C8B92068C06820F020002168ED
:10425000C8602068C06820F480702168C860206849
:10426000406920F0010021684861202084F83A006C
:104270002046FEF73FFE002070BD0020FCE7022034
:10428000FAE7000070B504462168096921F440513D
:10429000E2681143226811612269A16811436269D1
:1042A00041EA02052168C96841F20C629143294341
:1042B0002268D1602168496921F44071A2691143E3
:1042C000226851612D4A2168914202D1FDF79AFD81
:1042D00001E0FDF787FD00EBC00101EB0011626812
:1042E0009200B1FBF2F100EBC00202EB0012636836
:1042F0009B00B2FBF3F26423B2FBF3F202EBC203C6
:1043000003EB0212A1EB8201322202EB01116422C3
:10431000B1FBF2F101F0F00100EBC00202EB001280
:1043200063689B00B2FBF3F26423B2FBF3F201EB90
:10433000021200EBC00101EB001163689B00B1FBAE
:10434000F3F100EBC00303EB00136668B600B3FBA8
:10435000F6F36426B3FBF6F303EBC30606EB031395
:10436000A1EB8301322303EB01116423B1FBF3F1D1
:1043700001F00F0111442268916070BD00380140C6
:10438000014691F83900212828D18868B0F5805F6E
:104390000BD1086948B90A6A1088C0F308000B6895
:1043A0005860086A801C086205E00B6A581C0862A5
:1043B00018780B685860C88C401E80B2C88458B901
:1043C0000868C06820F080000B68D8600868C06882
:1043D00040F040000B68D860002070470220FCE7E6
:1043E00010B50248FEF7DEFB10BD0000D80100202A
:1043F00010B50248FEF7D6FB10BD000018020020E1
:1044000000BFFEE7490050EAC12018BF04204A0D52
:1044100018BF40F0010040F2FF72B2EB515F08BFDD
:1044200040F00200012808BF0520704702480068DC
:10443000C0F30220704700000CED00E010B500282A
:1044400004DB0A07130E054A135406E00A07140E8C
:10445000034A00F00F031B1FD45410BD00E400E01A
:1044600018ED00E02DE9F0414F1E00EBC7010446B6
:10447000D1E9000115461E4637F006020DD02A4646
:10448000334603F0D5FC7F1E04EBC703D3E90023BA
:1044900003F054FA37F00602F1D1022F25D0042F91
:1044A00013D0062F18BFBDE8F0812A46334603F02B
:1044B000BFFCD4E90A2303F041FA2A46334603F04D
:1044C000B7FCD4E9082303F039FA2A46334603F04F
:1044D000AFFCD4E9062303F031FA2A46334603F051
:1044E000A7FCD4E9042303F029FA2A46334603F053
:1044F0009FFCD4E9022303F021FA2A46334603F055
:1045000097FCD4E90023BDE8F04103F017BA01227B
:1045100004F03BBB03F012BA0022134610461146CA
:1045200003F0C8BA024A0020110704F02EBB0000B5
:1045300001FDFFFF30380A2801D20120704700201A
:10454000704700BF704700002DE9FE4F06460F463A
:104550000025684601F0B8F9002442E056F824002E
:1045600057F82410A0EB010ABAF1000F01DB514605
:1045700001E0CAF10001084604F000F983464FF05B
:104580008F4103F0C9FF80465DF82400002104F04C
:1045900085F816D05DF82410404603F0BDFF824632
:1045A0004FF07E5104F048FA814629F0004A0F4846
:1045B000416A504604F00EFA12D20120A040054391
:1045C0000EE00A48C169404604F004F905D30748E3
:1045D000016A404604F0FEF902D20120A0400543E2
:1045E000641C032CBADB2846BDE8FE8F68AA0008CD
:1045F0002DE9F04D8D4F21F0004A86B005460C465E
:10460000BA452ADBAAEB070028430AD0884882452E
:1046100001DC1AD1CDB106B02846BDE8F04DFFF758
:1046200076BF844A844B284603F002FC07460E46B8
:10463000824A834B2846214603F0FAFB06B03A46ED
:104640003346BDE8F04D03F079B90120FBF7EDFFEB
:1046500006B0BDE8F04DFFF75FBF7A48824542DA09
:10466000BAF1795F0BDA2846FFF7CCFE042808BFC1
:10467000FFF758FF284606B02146BDE8F08D2A46D0
:104680000B46104603F0D4FB834602466E480E46A6
:104690000B4606217844FFF7E5FE5A46334603F001
:1046A000C7FB804669488A465A4633460421784407
:1046B000FFF7D8FE5A46334603F0BAFB00223B46CA
:1046C00003F03CF902460B464046514603F0F2F92E
:1046D0002A46234603F0ACFB06B02A462346BDE833
:1046E000F04D03F02BB9284624F0004100223D464E
:1046F0003B4603F09BFC4FF0FF3204F046FA0646BF
:10470000024653480F460B4606217844FFF7AAFE9F
:1047100032463B4603F08CFBCDE900014D48324662
:104720003B4604217844FFF79DFE32463B4603F0AA
:104730007FFB00222B4603F001F9834602913046AD
:10474000394602F0A3FF804643480D46504517DC2A
:10475000DDE900015A46029B03F0ACF942462B46C4
:1047600003F066FB42462B4603F0E8F8012204F012
:104770000CFA304A304B03F04BFD304A304B4CE0E2
:104780004FF0000A52460B46404603F0D7F8CDE9F9
:10479000031052462B461046194603F049FB324699
:1047A0003B4603F043FCDDE9033203F083F90646A0
:1047B0000F46DDE900015A46029B03F07BF9834670
:1047C000009101223046394604F0DFF9194A1A4BAC
:1047D00003F02CFC06460F4601224046294604F011
:1047E000D4F95A46009B03F023FB32463B4603F0C4
:1047F0000FFD06460F4601225046294604F0C5F932
:104800000E4DDFF858802A46434603F00FFC32462F
:104810003B4603F00BFC2A46434603F007FC002C02
:10482000D8BF81F0004106B0BDE8F08D0000F03F38
:104830000000F07F075C143326A6913C182D4454E9
:10484000FB21F93F0000E03F0070000016700000FF
:104850008A6F0000A06F00003333EF3FFB21E93F78
:104860002DE9F84F04460D4621F0004000917349B0
:10487000814211DC7249884201DC06D12CB120460C
:104880002946BDE8F84FFFF742BE6E48002DCCBF69
:104890006D496E49BDE8F88F6D49814211DD6D4962
:1048A0008142D8BF4FF0FF366DDD20462946FFF725
:1048B000A9FD042808BFFFF735FE20462946BDE8BC
:1048C000F88F6549654F25F00045814233DD644925
:1048D000814219DD002632464FF0804320462946AA
:1048E00003F02CF880468A4601222046294604F02F
:1048F0004CF900223B4603F08BFC4246534603F042
:10490000D9F804460D463EE001260022BA463B4651
:104910002046294603F012F880460F4600225346EF
:104920002046294603F074FC42463B4603F0C2F899
:1049300004460D4627E04B4981421BDDDFF828A1E4
:104940000226002253462046294603F071FA00222F
:104950003B4602F0F3FF80460F46002253462046B6
:10496000294603F055FC42463B4603F0A3F80446B3
:104970000D4608E0032622462B4600203B4903F063
:1049800099F804460D4622462B461046194603F078
:104990004FFA8B46824602460B4603F049FA074619
:1049A0000246334888460B4606217844FFF75AFDF5
:1049B00052465B4603F03CFA82462E488B463A4606
:1049C000434605217844FFF74DFD3A46434603F040
:1049D0002FFA02460B46002E504659460CDA02F0DA
:1049E000ADFF22462B4603F023FA01B022462B46A8
:1049F000BDE8F04F03F01ABB02F0A0FF22462B46A1
:104A000003F016FA1C4A7A4402EBC603D3E90023EA
:104A100003F0FEFB22462B4603F0FAFB174A7A44CA
:104A200002EBC603D3E9002303F000FB009A002A3F
:104A3000B8BF81F00041BDE8F88F000000001044CD
:104A40000000F07F182D4454FB21F93FFB21F9BFF2
:104A50000000DC3F0000203E0000F33F0000F03F7C
:104A60000000E63F008003400000F83F0000F0BF78
:104A7000A26D0000606D0000FE6C0000C66C0000BE
:104A80002DE9F04D9446CCF1000423F000464CEAA9
:104A90000404594F46EAD4749A46884621F00042ED
:104AA000BC4206D8454240EA050442EAD474BC42FE
:104AB00004D9BDE8F04D6246FFF72CBDAAF1405580
:104AC000A5F17F6555EA0C040BD0022404EAAA7410
:104AD0004A4DDFF82CE144EAD87452EA000B04D0C6
:104AE0000CE0BDE8F04DFFF7BBBE002C14BF012C5D
:104AF000BDE8F08D022C30D0032C32D056EA0C0BDE
:104B00000AD0BE4220D1BA4209D126F0804622F016
:104B100080423346114617E000291ADB25E0DFF812
:104B2000E4B0FB44002C04BFDBE90001BDE8F08DDC
:104B3000012C02BFDBE9000181F00041BDE8F08DEE
:104B4000022C0AD0032C0CD0BA4212D1B8F1000FBB
:104B50000BDA2A482C49BDE8F08D28462B49BDE8E0
:104B6000F08D28467146BDE8F08D24482849BDE8FF
:104B7000F08D921B12153C2AC4BF204F244E10DC2E
:104B8000BAF1000FBEBF12F13C0F00273E4608DB12
:104B9000624602F08FFF21F00041FFF761FE0746F9
:104BA0000E4694B1012C08BF86F000460DD0194A7C
:104BB000194B022C3846314615D003F029FB2A4602
:104BC000BDE8F04D114B03F023BB002213463846DD
:104BD000314603F0C7F804BF0220FBF726FD384634
:104BE0003146BDE8F08D03F013FB2A46BDE8F04DD9
:104BF000064B03F01BBA00000000F07F182D445450
:104C0000FB2109C05A6C0000FB21F9BFFB210940C0
:104C1000FB21F93F075C143326A6A13C2DE9F041A6
:104C20000446E07800F0C006E07800F03F056078C8
:104C300000F0010098B1EF102846E91705EB51711B
:104C4000C910A5EBC101491C01F0FF080B48006821
:104C500020B10A48414602683846904700BF607854
:104C600000F0080030B10548406818B1B011034A9F
:104C7000516888470020BDE8F0810000D806002078
:104C800001490860704700001000002010B504467C
:104C90004FF47A7104FB01F000F002F810BD00003F
:104CA00070B5034600224FF0E02675690D4E366858
:104CB00003FB06F44FF0E026B16910E04FF0E02668
:104CC000B06988420BD0884202D20E1A324402E008
:104CD0002E1A0E4432440146A24200D300E0EDE712
:104CE00000BF70BD1000002038B5044664B120201C
:104CF0008DF8000028208DF8010030208DF802008A
:104D000038208DF8030004E0A32204216846FBF755
:104D1000DDFB6A46042140F69E2002F0C1FB01F053
:104D2000ABFF38BD3EB5044602208DF80000CA2016
:104D30008DF80100E3208DF8020009208DF80300B2
:104D40006A460421682002F0ABFBA3208DF8000026
:104D500004F0400048B1C0208DF80100C8208DF853
:104D60000200C2208DF8030006E0A3208DF80100A8
:104D70008DF802008DF8030004F4C07048B1C4201F
:104D80008DF80400CC208DF80500C6208DF80600B3
:104D900006E0A3208DF804008DF805008DF80600CC
:104DA000A3208DF807008DF808008DF809006A46E9
:104DB0000A2140F6A72002F073FB04F0030018B1AB
:104DC00020208DF8000002E0D8208DF800006A460F
:104DD000012140F6B62002F063FB04F0200018B178
:104DE000012000F0ADF802E0002000F0A9F804F482
:104DF000C07008B304F4807060B1B2208DF8000078
:104E00008B208DF80100B6208DF802009B208DF8D4
:104E100003000BE0B0208DF8000080208DF8010029
:104E2000B4208DF8020090208DF803006A4604211A
:104E300040F6A22002F034FB04F0010020B3F82079
:104E40008DF800006A4601214FF40B6002F028FB48
:104E5000FA21072000F02CFC072000F0F3FB0120D2
:104E600000F013FC642000F0F3FC4FF4FA7000F043
:104E700002FDC821304800F0A3FB282000F0BCFB55
:104E80000A2000F0CCFB08E0D8208DF800006A462C
:104E900001214FF40B6002F003FB04F0020018B193
:104EA000D9208DF8000002E0D8208DF800006A4675
:104EB000012140F23D7002F0F3FA04F0040018B151
:104EC000012000F069F802E0002000F065F804F02D
:104ED000100018B10120FFF707FF02E00020FFF7E4
:104EE00003FF44F008001549488101F0C5FE002089
:104EF0001249887304F0400018B10846807B801D79
:104F0000887304F4C07020B10C48807B801D0B496D
:104F1000887304F0140020B10848807B10300749E2
:104F2000887304F0030020B10448807B001D03490E
:104F3000887300203EBD000009E3CA02D8060020A5
:104F40003EB504466CB10EA1D1E900208968CDE9D7
:104F5000002002916A4609214FF4976002F0A0FAFE
:104F60003EBD0AA2D2E900109268CDE9010200918B
:104F70006A4609214FF4976002F092FAF0E70000C8
:104F8000B8AAB38DB4980D355D000000B8AAAAAADE
:104F9000B088C3C5C700000038B5044664B1C0205E
:104FA0008DF80000C2208DF80100C4208DF80200A9
:104FB000C6208DF8030004E08B2204216846FBF72D
:104FC00085FA6A46042140F6982002F069FA01F059
:104FD00053FE38BD10B5C8234FF48062024940F635
:104FE000F63001F0DDFC10BD90AA00082DE9F04F6D
:104FF0008DB00746884615469946DDE9166B0024B4
:10500000002030806B49887B5A4605A901F094FD49
:1050100018B1601E0DB0BDE8F08F6648807A00F0D0
:105020001400002867D09DF8140000069DF81510A4
:1050300040EA01409DF8161040EA01209DF8171043
:10504000084328609DF8180000069DF8191040EAF2
:1050500001409DF81A1040EA01209DF81B100843FA
:1050600068609DF81C0000069DF81D1040EA014094
:105070009DF81E1040EA01209DF81F100843A8600B
:105080009DF8200000069DF8211040EA01409DF89F
:10509000221040EA01209DF823100843E86004F143
:1050A0001000C4B2286800140190686800140290CF
:1050B000A86800140390E868001404900198404325
:1050C000029901FB0100039901FB0100049901FB16
:1050D000010ABAF1706F02DBBAF1885F05DD01F0F9
:1050E000CBFD00203080401E94E7B6F9000040F46C
:1050F0008070308000BF2F48807A00F0400020B3DD
:1051000005A9601C085C095D40EA012000B2A8F80E
:10511000000005A9E01C095C05AAA01C105C41EA7E
:10512000002000B2A8F8020005A9601D095C201D3E
:10513000105C41EA002000B2A8F80400A01DC4B22F
:10514000B6F9000040F0080030801A48408900F4A9
:10515000C07008B305A9601C085C095D40EA012025
:1051600000B2388005A9E01C095C05AAA01C105CEF
:1051700041EA002000B2788005A9601D095C201D6D
:10518000105C41EA002000B2B880A01DC4B2B6F99C
:10519000000040F0700030800648807A00F0030084
:1051A00018B105A90819FFF739FD484601F08AF83A
:1051B00000202FE7D806002070B588B0064601A869
:1051C00001F042FABDF804000021C90341EA50454C
:1051D000C4034448007A00F0030056F8200005900C
:1051E0004048007A00F0040010B105984042059054
:1051F0003C48007AC0F3C10056F8200006903948B8
:10520000007A00F0200010B1069840420690354820
:10521000007AC0F3811056F82000079031480089C9
:1052200000F4807010B10798404207900598C117AC
:10523000A0FB042301FB043100FB0510810041EABF
:10524000927005900698C117A0FB042301FB04315E
:1052500000FB0510810041EA927006900798C11783
:10526000A0FB042301FB043100FB0510810041EA8F
:10527000927007900598000E8DF808000598000CB4
:105280008DF809000598000A8DF80A000598C0B24B
:105290008DF80B000698000E8DF80C000698000C97
:1052A0008DF80D000698000A8DF80E000698C0B221
:1052B0008DF80F000798000E8DF810000798000C6D
:1052C0008DF811000798000A8DF812000798C0B2F7
:1052D0008DF8130002AA0C214FF4257002F0E0F8BB
:1052E00008B070BDD806002030B585B0044616A2BF
:1052F00007CA02AB07C3C82C03DD4FF0FF3005B06F
:1053000030BDC82090FBF4F0401E85B2280A8DF80D
:105310000000E8B28DF801006A46022140F2162032
:1053200002F0BEF810B14FF0FF30E8E702AA0C21FE
:1053300040F6C12002F0B4F810B14FF0FF30DEE7C4
:10534000044884810020DAE7FEF2ABC4AAF1DFDF73
:10535000BBAFDFDFD80600201FB504464848007AFF
:1053600000F0030054F8200001904548007A00F056
:10537000040010B10198404201904148007AC0F306
:10538000C10054F8200002903D48007A00F020004F
:1053900010B10298404202903948007AC0F381105F
:1053A00054F8200003903648008900F4807010B152
:1053B0000398404203903349019880FB0101800F1C
:1053C00040EA810001902F49029880FB0110820081
:1053D00042EA917002902B49039880FB01108200F1
:1053E00042EA917003900198000E8DF80000019838
:1053F000000C8DF801000198000A8DF80200019858
:10540000C0B28DF803006A4604214FF4747002F0B4
:1054100047F818B14FF0FF3004B010BD0298000EED
:105420008DF800000298000C8DF801000298000A27
:105430008DF802000298C0B28DF803006A4604217C
:105440004FF4757002F02CF810B14FF0FF30E3E725
:105450000398000E8DF800000398000C8DF80100F1
:105460000398000A8DF802000398C0B28DF803007B
:105470006A4604214FF4767002F012F8CCE700007F
:10548000D806002009E3CA0210B586B0044647A03A
:105490000068039046A00068029046A00068019052
:1054A00045A00068009004F0030003A9085C8DF893
:1054B000140003A8C4F3C101405C8DF8150003A8D3
:1054C000C4F38111405C8DF8160004F0030002A9BA
:1054D000085C8DF8100002A8C4F3C101405C8DF88F
:1054E000110002A8C4F38111405C8DF8120005AAD6
:1054F000032140F2264001F0D3FF18B14FF0FF30F6
:1055000006B010BD04AA032140F22A4001F0C8FFF2
:1055100010B14FF0FF30F3E7019805900098049028
:1055200004F0040058B19DF8140040F001008DF81B
:1055300014009DF8100040F001008DF8100004F0F8
:10554000200058B19DF8150040F001008DF81500BD
:105550009DF8110040F001008DF8110004F48070F6
:1055600058B19DF8160040F001008DF816009DF826
:10557000120040F001008DF8120005AA03214FF43B
:10558000886001F08DFF10B14FF0FF30B8E704AA3A
:10559000032140F2314001F083FF10B14FF0FF30A2
:1055A000AEE7064804810020AAE700004CCD6C005D
:1055B0000CC92C003656760026466600D806002018
:1055C000F8B505460E464FF47A7095FBF0F000FBF7
:1055D00006F4200E8DF80000200C8DF80100200A42
:1055E0008DF80200E0B28DF803006A4604214FF402
:1055F000AE7001F055FFF8BD38B50446052094FBA8
:10560000F0F084B220128DF80000E0B28DF80100B5
:105610006A4602214FF4AD7001F042FF38BD38B543
:105620000446052094FBF0F084B220128DF80000AF
:10563000E0B28DF801006A4602214FF4AC7001F02F
:105640002FFF38BD38B504460020009004F001005B
:1056500020B19DF8000040F03000009004F00200FE
:1056600020B19DF8000040F00C00009004F0040010
:1056700020B19DF8000040F0030000906A4601212F
:105680004FF4A47001F00CFF38BD38B50446012C6E
:1056900001DA012402E0042C00DD0424601EC0B203
:1056A00000906A46012140F24F1001F0F9FE38BD2A
:1056B0002DE9FC4706460F4606F0070010B1B7F586
:1056C000C86F03DD4FF0FF30BDE8FC87384603F0BC
:1056D0006DF88146594902F01FFF8046684600F088
:1056E0008DFF9DF80000022806D0042816D0082857
:1056F00026D0102848D135E04FF08D41404603F0C8
:105700009DF8814603F01AF884B24D49404603F0F3
:1057100095F8814603F012F885B238E04FF08C41DD
:10572000404603F08BF8814603F008F884B24549FF
:10573000404603F083F8814603F000F885B226E086
:105740004FF08B41404603F079F8814602F0F6FFB6
:1057500084B23D49404603F071F8814602F0EEFF05
:1057600085B214E04FF08A41404603F067F8814665
:1057700002F0E4FF84B23549404603F05FF8814609
:1057800002F0DCFF85B202E04FF0FF309CE700BF83
:1057900020128DF80400E0B28DF8050028128DF873
:1057A0000600E8B28DF8070006F00100A0B101AADA
:1057B00002214FF4EA7001F073FE10B14FF0FF3098
:1057C00082E70DF1060202214FF4927001F068FEAB
:1057D00010B14FF0FF3077E706F00200A0B101AA48
:1057E00002214FF4EC7001F05BFE10B14FF0FF307E
:1057F0006AE70DF1060202214FF4947001F050FEA9
:1058000010B14FF0FF305FE706F00400A0B101AA2D
:1058100002214FF4EE7001F043FE10B14FF0FF3063
:1058200052E70DF1060202214FF4967001F038FEA6
:1058300010B14FF0FF3047E7002045E70000484334
:10584000000040460000C045000040450000C04444
:1058500038B50446052094FBF0F085B228128DF887
:105860000000E8B28DF801006A4602214FF4EF70A3
:1058700001F016FE38BD38B50446052094FBF0F063
:1058800085B228128DF80000E8B28DF801006A4652
:1058900002214FF4ED7001F003FE38BD01460029EE
:1058A00001DD0A4600E04A421046704700BF054A43
:1058B000126802F04002002AF9D0C2B2014B1B1D4F
:1058C0001A607047003801407CB505462849496890
:1058D000087801AB04220D21FDF7D4FD08B10720A3
:1058E0007CBD9DF80700C0F301109DF8041001F085
:1058F000E00140EAE1008DF800009DF80700C0F3E8
:1059000081009DF8051001F0E00140EAE1008DF80A
:1059100001009DF8070000F003009DF8061001F05B
:10592000E00140EAE1008DF8020000241CE01DF8CF
:10593000040018B9002045F8240013E00D4845F88C
:10594000240006E055F824000B4902F077FF45F8E3
:1059500024001DF80400401EC0B20DF80400002809
:10596000F0D100BF601CC4B2032CE0DB0020B7E71D
:10597000300000207B14AE3E1D5A843F10B501223A
:10598000D1030648FCF780F80F20FFF789F90022C1
:105990004FF400410148FCF777F810BD00080140C2
:1059A0002DE9F04F87B005460C46914601208DF851
:1059B000100000208DF81100FE4A1268917CFD4A0B
:1059C0005268107804AB0222FDF702FE20B14FF0BE
:1059D000FF3007B0BDE8F08FC820FFF757F900206F
:1059E0008DF81000F34A1268D17BF24A52681078A1
:1059F00004AB0122FDF7ECFD10B14FF0FF30E8E7FA
:105A0000EC4A12685179EB4A5268107804AB0122D3
:105A1000FDF7DEFD10B14FF0FF30DAE7E54A12681E
:105A2000917CE44A5268107804AB0122FDF7D0FD66
:105A300010B14FF0FF30CCE7DE4A1268D17DDD4A6D
:105A40005268107804AB0122FDF7C2FD10B14FF08F
:105A5000FF30BEE7D74A12681179D64A52681078EB
:105A600004AB0122FDF7B4FD10B14FF0FF30B0E7F9
:105A70000C208DF81000CF4A12681179CD4A526877
:105A8000107804AB0122FDF7A3FD10B14FF0FF30F9
:105A90009FE70F20FFF7FAF8C648806A407A8DF832
:105AA0001000C44A12689178C24A5268107804AB58
:105AB0000122FDF78DFD10B14FF0FF3089E7BD48A1
:105AC000806A007A8DF81000BA4A12685178B94A93
:105AD0005268107804AB0122FDF77AFD10B14FF047
